{
	"hardhat-tutorial/contracts/CryptoDevsDAO.sol": {
		"CryptoDevsDAO": {
			"abi": [
				{
					"inputs": [
						{
							"internalType": "address",
							"name": "_nftMarketPlace",
							"type": "address"
						},
						{
							"internalType": "address",
							"name": "_cryptoDevsNFT",
							"type": "address"
						}
					],
					"stateMutability": "payable",
					"type": "constructor"
				},
				{
					"anonymous": false,
					"inputs": [
						{
							"indexed": true,
							"internalType": "address",
							"name": "previousOwner",
							"type": "address"
						},
						{
							"indexed": true,
							"internalType": "address",
							"name": "newOwner",
							"type": "address"
						}
					],
					"name": "OwnershipTransferred",
					"type": "event"
				},
				{
					"stateMutability": "payable",
					"type": "fallback"
				},
				{
					"inputs": [
						{
							"internalType": "uint256",
							"name": "_nftTokenId",
							"type": "uint256"
						}
					],
					"name": "createProposal",
					"outputs": [
						{
							"internalType": "uint256",
							"name": "",
							"type": "uint256"
						}
					],
					"stateMutability": "nonpayable",
					"type": "function"
				},
				{
					"inputs": [
						{
							"internalType": "uint256",
							"name": "proposalIndex",
							"type": "uint256"
						}
					],
					"name": "executeProposal",
					"outputs": [],
					"stateMutability": "nonpayable",
					"type": "function"
				},
				{
					"inputs": [],
					"name": "numProposals",
					"outputs": [
						{
							"internalType": "uint256",
							"name": "",
							"type": "uint256"
						}
					],
					"stateMutability": "view",
					"type": "function"
				},
				{
					"inputs": [],
					"name": "owner",
					"outputs": [
						{
							"internalType": "address",
							"name": "",
							"type": "address"
						}
					],
					"stateMutability": "view",
					"type": "function"
				},
				{
					"inputs": [
						{
							"internalType": "uint256",
							"name": "",
							"type": "uint256"
						}
					],
					"name": "proposals",
					"outputs": [
						{
							"internalType": "uint256",
							"name": "nftTokenId",
							"type": "uint256"
						},
						{
							"internalType": "uint256",
							"name": "deadline",
							"type": "uint256"
						},
						{
							"internalType": "uint256",
							"name": "yesVotes",
							"type": "uint256"
						},
						{
							"internalType": "uint256",
							"name": "noVotes",
							"type": "uint256"
						},
						{
							"internalType": "bool",
							"name": "executed",
							"type": "bool"
						}
					],
					"stateMutability": "view",
					"type": "function"
				},
				{
					"inputs": [],
					"name": "renounceOwnership",
					"outputs": [],
					"stateMutability": "nonpayable",
					"type": "function"
				},
				{
					"inputs": [
						{
							"internalType": "address",
							"name": "newOwner",
							"type": "address"
						}
					],
					"name": "transferOwnership",
					"outputs": [],
					"stateMutability": "nonpayable",
					"type": "function"
				},
				{
					"inputs": [
						{
							"internalType": "uint256",
							"name": "proposalIndex",
							"type": "uint256"
						},
						{
							"internalType": "enum CryptoDevsDAO.Vote",
							"name": "vote",
							"type": "uint8"
						}
					],
					"name": "voteOnProposal",
					"outputs": [],
					"stateMutability": "nonpayable",
					"type": "function"
				},
				{
					"inputs": [],
					"name": "withdrawEther",
					"outputs": [],
					"stateMutability": "nonpayable",
					"type": "function"
				},
				{
					"stateMutability": "payable",
					"type": "receive"
				}
			],
			"devdoc": {
				"kind": "dev",
				"methods": {
					"createProposal(uint256)": {
						"details": "createProposal allows a CryptoDevsNFT holder to create a new proposal in the DAO",
						"params": {
							"_nftTokenId": "- the tokenID of the NFT to be purchased from FakeNFTMarketplace if this proposal passes"
						},
						"returns": {
							"_0": "Returns the proposal index for the newly created proposal"
						}
					},
					"owner()": {
						"details": "Returns the address of the current owner."
					},
					"renounceOwnership()": {
						"details": "Leaves the contract without owner. It will not be possible to call `onlyOwner` functions anymore. Can only be called by the current owner. NOTE: Renouncing ownership will leave the contract without an owner, thereby removing any functionality that is only available to the owner."
					},
					"transferOwnership(address)": {
						"details": "Transfers ownership of the contract to a new account (`newOwner`). Can only be called by the current owner."
					}
				},
				"version": 1
			},
			"evm": {
				"assembly": "    /* \"hardhat-tutorial/contracts/CryptoDevsDAO.sol\":1028:6281  contract CryptoDevsDAO is Ownable {... */\n  mstore(0x40, 0x80)\n    /* \"hardhat-tutorial/contracts/CryptoDevsDAO.sol\":2413:2608  constructor(address _nftMarketPlace, address _cryptoDevsNFT) payable {... */\n  mload(0x40)\n  sub(codesize, bytecodeSize)\n  dup1\n  bytecodeSize\n  dup4\n  codecopy\n  dup2\n  dup2\n  add\n  0x40\n  mstore\n  dup2\n  add\n  swap1\n  tag_1\n  swap2\n  swap1\n  tag_2\n  jump\t// in\ntag_1:\n    /* \"@openzeppelin/contracts/access/Ownable.sol\":936:968  _transferOwnership(_msgSender()) */\n  tag_6\n    /* \"@openzeppelin/contracts/access/Ownable.sol\":955:967  _msgSender() */\n  tag_7\n    /* \"@openzeppelin/contracts/access/Ownable.sol\":955:965  _msgSender */\n  shl(0x20, tag_8)\n    /* \"@openzeppelin/contracts/access/Ownable.sol\":955:967  _msgSender() */\n  0x20\n  shr\n  jump\t// in\ntag_7:\n    /* \"@openzeppelin/contracts/access/Ownable.sol\":936:954  _transferOwnership */\n  shl(0x20, tag_9)\n    /* \"@openzeppelin/contracts/access/Ownable.sol\":936:968  _transferOwnership(_msgSender()) */\n  0x20\n  shr\n  jump\t// in\ntag_6:\n    /* \"hardhat-tutorial/contracts/CryptoDevsDAO.sol\":2529:2544  _nftMarketPlace */\n  dup2\n    /* \"hardhat-tutorial/contracts/CryptoDevsDAO.sol\":2492:2506  nftMarketPlace */\n  0x03\n  0x00\n    /* \"hardhat-tutorial/contracts/CryptoDevsDAO.sol\":2492:2545  nftMarketPlace = IFakeNFTMarketPlace(_nftMarketPlace) */\n  0x0100\n  exp\n  dup2\n  sload\n  dup2\n  0xffffffffffffffffffffffffffffffffffffffff\n  mul\n  not\n  and\n  swap1\n  dup4\n  0xffffffffffffffffffffffffffffffffffffffff\n  and\n  mul\n  or\n  swap1\n  sstore\n  pop\n    /* \"hardhat-tutorial/contracts/CryptoDevsDAO.sol\":2586:2600  _cryptoDevsNFT */\n  dup1\n    /* \"hardhat-tutorial/contracts/CryptoDevsDAO.sol\":2555:2568  cryptoDevsNFT */\n  0x04\n  0x00\n    /* \"hardhat-tutorial/contracts/CryptoDevsDAO.sol\":2555:2601  cryptoDevsNFT = ICryptoDevsNFT(_cryptoDevsNFT) */\n  0x0100\n  exp\n  dup2\n  sload\n  dup2\n  0xffffffffffffffffffffffffffffffffffffffff\n  mul\n  not\n  and\n  swap1\n  dup4\n  0xffffffffffffffffffffffffffffffffffffffff\n  and\n  mul\n  or\n  swap1\n  sstore\n  pop\n    /* \"hardhat-tutorial/contracts/CryptoDevsDAO.sol\":2413:2608  constructor(address _nftMarketPlace, address _cryptoDevsNFT) payable {... */\n  pop\n  pop\n    /* \"hardhat-tutorial/contracts/CryptoDevsDAO.sol\":1028:6281  contract CryptoDevsDAO is Ownable {... */\n  jump(tag_11)\n    /* \"@openzeppelin/contracts/utils/Context.sol\":640:736  function _msgSender() internal view virtual returns (address) {... */\ntag_8:\n    /* \"@openzeppelin/contracts/utils/Context.sol\":693:700  address */\n  0x00\n    /* \"@openzeppelin/contracts/utils/Context.sol\":719:729  msg.sender */\n  caller\n    /* \"@openzeppelin/contracts/utils/Context.sol\":712:729  return msg.sender */\n  swap1\n  pop\n    /* \"@openzeppelin/contracts/utils/Context.sol\":640:736  function _msgSender() internal view virtual returns (address) {... */\n  swap1\n  jump\t// out\n    /* \"@openzeppelin/contracts/access/Ownable.sol\":2433:2620  function _transferOwnership(address newOwner) internal virtual {... */\ntag_9:\n    /* \"@openzeppelin/contracts/access/Ownable.sol\":2506:2522  address oldOwner */\n  0x00\n    /* \"@openzeppelin/contracts/access/Ownable.sol\":2525:2531  _owner */\n  dup1\n  0x00\n  swap1\n  sload\n  swap1\n  0x0100\n  exp\n  swap1\n  div\n  0xffffffffffffffffffffffffffffffffffffffff\n  and\n    /* \"@openzeppelin/contracts/access/Ownable.sol\":2506:2531  address oldOwner = _owner */\n  swap1\n  pop\n    /* \"@openzeppelin/contracts/access/Ownable.sol\":2550:2558  newOwner */\n  dup2\n    /* \"@openzeppelin/contracts/access/Ownable.sol\":2541:2547  _owner */\n  0x00\n  dup1\n    /* \"@openzeppelin/contracts/access/Ownable.sol\":2541:2558  _owner = newOwner */\n  0x0100\n  exp\n  dup2\n  sload\n  dup2\n  0xffffffffffffffffffffffffffffffffffffffff\n  mul\n  not\n  and\n  swap1\n  dup4\n  0xffffffffffffffffffffffffffffffffffffffff\n  and\n  mul\n  or\n  swap1\n  sstore\n  pop\n    /* \"@openzeppelin/contracts/access/Ownable.sol\":2604:2612  newOwner */\n  dup2\n    /* \"@openzeppelin/contracts/access/Ownable.sol\":2573:2613  OwnershipTransferred(oldOwner, newOwner) */\n  0xffffffffffffffffffffffffffffffffffffffff\n  and\n    /* \"@openzeppelin/contracts/access/Ownable.sol\":2594:2602  oldOwner */\n  dup2\n    /* \"@openzeppelin/contracts/access/Ownable.sol\":2573:2613  OwnershipTransferred(oldOwner, newOwner) */\n  0xffffffffffffffffffffffffffffffffffffffff\n  and\n  0x8be0079c531659141344cd1fd0a4f28419497f9722a3daafe3b4186f6b6457e0\n  mload(0x40)\n  mload(0x40)\n  dup1\n  swap2\n  sub\n  swap1\n  log3\n    /* \"@openzeppelin/contracts/access/Ownable.sol\":2496:2620  {... */\n  pop\n    /* \"@openzeppelin/contracts/access/Ownable.sol\":2433:2620  function _transferOwnership(address newOwner) internal virtual {... */\n  pop\n  jump\t// out\n    /* \"#utility.yul\":88:205   */\ntag_15:\n    /* \"#utility.yul\":197:198   */\n  0x00\n    /* \"#utility.yul\":194:195   */\n  dup1\n    /* \"#utility.yul\":187:199   */\n  revert\n    /* \"#utility.yul\":334:460   */\ntag_17:\n    /* \"#utility.yul\":371:378   */\n  0x00\n    /* \"#utility.yul\":411:453   */\n  0xffffffffffffffffffffffffffffffffffffffff\n    /* \"#utility.yul\":404:409   */\n  dup3\n    /* \"#utility.yul\":400:454   */\n  and\n    /* \"#utility.yul\":389:454   */\n  swap1\n  pop\n    /* \"#utility.yul\":334:460   */\n  swap2\n  swap1\n  pop\n  jump\t// out\n    /* \"#utility.yul\":466:562   */\ntag_18:\n    /* \"#utility.yul\":503:510   */\n  0x00\n    /* \"#utility.yul\":532:556   */\n  tag_27\n    /* \"#utility.yul\":550:555   */\n  dup3\n    /* \"#utility.yul\":532:556   */\n  tag_17\n  jump\t// in\ntag_27:\n    /* \"#utility.yul\":521:556   */\n  swap1\n  pop\n    /* \"#utility.yul\":466:562   */\n  swap2\n  swap1\n  pop\n  jump\t// out\n    /* \"#utility.yul\":568:690   */\ntag_19:\n    /* \"#utility.yul\":641:665   */\n  tag_29\n    /* \"#utility.yul\":659:664   */\n  dup2\n    /* \"#utility.yul\":641:665   */\n  tag_18\n  jump\t// in\ntag_29:\n    /* \"#utility.yul\":634:639   */\n  dup2\n    /* \"#utility.yul\":631:666   */\n  eq\n    /* \"#utility.yul\":621:684   */\n  tag_30\n  jumpi\n    /* \"#utility.yul\":680:681   */\n  0x00\n    /* \"#utility.yul\":677:678   */\n  dup1\n    /* \"#utility.yul\":670:682   */\n  revert\n    /* \"#utility.yul\":621:684   */\ntag_30:\n    /* \"#utility.yul\":568:690   */\n  pop\n  jump\t// out\n    /* \"#utility.yul\":696:839   */\ntag_20:\n    /* \"#utility.yul\":753:758   */\n  0x00\n    /* \"#utility.yul\":784:790   */\n  dup2\n    /* \"#utility.yul\":778:791   */\n  mload\n    /* \"#utility.yul\":769:791   */\n  swap1\n  pop\n    /* \"#utility.yul\":800:833   */\n  tag_32\n    /* \"#utility.yul\":827:832   */\n  dup2\n    /* \"#utility.yul\":800:833   */\n  tag_19\n  jump\t// in\ntag_32:\n    /* \"#utility.yul\":696:839   */\n  swap3\n  swap2\n  pop\n  pop\n  jump\t// out\n    /* \"#utility.yul\":845:1352   */\ntag_2:\n    /* \"#utility.yul\":924:930   */\n  0x00\n    /* \"#utility.yul\":932:938   */\n  dup1\n    /* \"#utility.yul\":981:983   */\n  0x40\n    /* \"#utility.yul\":969:978   */\n  dup4\n    /* \"#utility.yul\":960:967   */\n  dup6\n    /* \"#utility.yul\":956:979   */\n  sub\n    /* \"#utility.yul\":952:984   */\n  slt\n    /* \"#utility.yul\":949:1068   */\n  iszero\n  tag_34\n  jumpi\n    /* \"#utility.yul\":987:1066   */\n  tag_35\n  tag_15\n  jump\t// in\ntag_35:\n    /* \"#utility.yul\":949:1068   */\ntag_34:\n    /* \"#utility.yul\":1107:1108   */\n  0x00\n    /* \"#utility.yul\":1132:1196   */\n  tag_36\n    /* \"#utility.yul\":1188:1195   */\n  dup6\n    /* \"#utility.yul\":1179:1185   */\n  dup3\n    /* \"#utility.yul\":1168:1177   */\n  dup7\n    /* \"#utility.yul\":1164:1186   */\n  add\n    /* \"#utility.yul\":1132:1196   */\n  tag_20\n  jump\t// in\ntag_36:\n    /* \"#utility.yul\":1122:1196   */\n  swap3\n  pop\n    /* \"#utility.yul\":1078:1206   */\n  pop\n    /* \"#utility.yul\":1245:1247   */\n  0x20\n    /* \"#utility.yul\":1271:1335   */\n  tag_37\n    /* \"#utility.yul\":1327:1334   */\n  dup6\n    /* \"#utility.yul\":1318:1324   */\n  dup3\n    /* \"#utility.yul\":1307:1316   */\n  dup7\n    /* \"#utility.yul\":1303:1325   */\n  add\n    /* \"#utility.yul\":1271:1335   */\n  tag_20\n  jump\t// in\ntag_37:\n    /* \"#utility.yul\":1261:1335   */\n  swap2\n  pop\n    /* \"#utility.yul\":1216:1345   */\n  pop\n    /* \"#utility.yul\":845:1352   */\n  swap3\n  pop\n  swap3\n  swap1\n  pop\n  jump\t// out\n    /* \"hardhat-tutorial/contracts/CryptoDevsDAO.sol\":1028:6281  contract CryptoDevsDAO is Ownable {... */\ntag_11:\n  dataSize(sub_0)\n  dup1\n  dataOffset(sub_0)\n  0x00\n  codecopy\n  0x00\n  return\nstop\n\nsub_0: assembly {\n        /* \"hardhat-tutorial/contracts/CryptoDevsDAO.sol\":1028:6281  contract CryptoDevsDAO is Ownable {... */\n      mstore(0x40, 0x80)\n      jumpi(tag_1, lt(calldatasize, 0x04))\n      shr(0xe0, calldataload(0x00))\n      dup1\n      0x715018a6\n      gt\n      tag_12\n      jumpi\n      dup1\n      0x715018a6\n      eq\n      tag_7\n      jumpi\n      dup1\n      0x7362377b\n      eq\n      tag_8\n      jumpi\n      dup1\n      0x8da5cb5b\n      eq\n      tag_9\n      jumpi\n      dup1\n      0xefafb22e\n      eq\n      tag_10\n      jumpi\n      dup1\n      0xf2fde38b\n      eq\n      tag_11\n      jumpi\n      jump(tag_2)\n    tag_12:\n      dup1\n      0x013cf08b\n      eq\n      tag_3\n      jumpi\n      dup1\n      0x0d61b519\n      eq\n      tag_4\n      jumpi\n      dup1\n      0x400e3949\n      eq\n      tag_5\n      jumpi\n      dup1\n      0x5a43dc00\n      eq\n      tag_6\n      jumpi\n      jump(tag_2)\n    tag_1:\n      jumpi(tag_2, calldatasize)\n      stop\n    tag_2:\n      stop\n        /* \"hardhat-tutorial/contracts/CryptoDevsDAO.sol\":2026:2071  mapping(uint256 => Proposal) public proposals */\n    tag_3:\n      callvalue\n      dup1\n      iszero\n      tag_17\n      jumpi\n      0x00\n      dup1\n      revert\n    tag_17:\n      pop\n      tag_18\n      0x04\n      dup1\n      calldatasize\n      sub\n      dup2\n      add\n      swap1\n      tag_19\n      swap2\n      swap1\n      tag_20\n      jump\t// in\n    tag_19:\n      tag_21\n      jump\t// in\n    tag_18:\n      mload(0x40)\n      tag_22\n      swap6\n      swap5\n      swap4\n      swap3\n      swap2\n      swap1\n      tag_23\n      jump\t// in\n    tag_22:\n      mload(0x40)\n      dup1\n      swap2\n      sub\n      swap1\n      return\n        /* \"hardhat-tutorial/contracts/CryptoDevsDAO.sol\":5307:5880  function executeProposal(uint256 proposalIndex) external nftHolderOnly inactiveProposalOnly(proposalIndex) {... */\n    tag_4:\n      callvalue\n      dup1\n      iszero\n      tag_24\n      jumpi\n      0x00\n      dup1\n      revert\n    tag_24:\n      pop\n      tag_25\n      0x04\n      dup1\n      calldatasize\n      sub\n      dup2\n      add\n      swap1\n      tag_26\n      swap2\n      swap1\n      tag_20\n      jump\t// in\n    tag_26:\n      tag_27\n      jump\t// in\n    tag_25:\n      stop\n        /* \"hardhat-tutorial/contracts/CryptoDevsDAO.sol\":2127:2154  uint256 public numProposals */\n    tag_5:\n      callvalue\n      dup1\n      iszero\n      tag_28\n      jumpi\n      0x00\n      dup1\n      revert\n    tag_28:\n      pop\n      tag_29\n      tag_30\n      jump\t// in\n    tag_29:\n      mload(0x40)\n      tag_31\n      swap2\n      swap1\n      tag_32\n      jump\t// in\n    tag_31:\n      mload(0x40)\n      dup1\n      swap2\n      sub\n      swap1\n      return\n        /* \"hardhat-tutorial/contracts/CryptoDevsDAO.sol\":3138:3602  function createProposal(uint256 _nftTokenId) external nftHolderOnly returns (uint256) {... */\n    tag_6:\n      callvalue\n      dup1\n      iszero\n      tag_33\n      jumpi\n      0x00\n      dup1\n      revert\n    tag_33:\n      pop\n      tag_34\n      0x04\n      dup1\n      calldatasize\n      sub\n      dup2\n      add\n      swap1\n      tag_35\n      swap2\n      swap1\n      tag_20\n      jump\t// in\n    tag_35:\n      tag_36\n      jump\t// in\n    tag_34:\n      mload(0x40)\n      tag_37\n      swap2\n      swap1\n      tag_32\n      jump\t// in\n    tag_37:\n      mload(0x40)\n      dup1\n      swap2\n      sub\n      swap1\n      return\n        /* \"@openzeppelin/contracts/access/Ownable.sol\":1831:1932  function renounceOwnership() public virtual onlyOwner {... */\n    tag_7:\n      callvalue\n      dup1\n      iszero\n      tag_38\n      jumpi\n      0x00\n      dup1\n      revert\n    tag_38:\n      pop\n      tag_39\n      tag_40\n      jump\t// in\n    tag_39:\n      stop\n        /* \"hardhat-tutorial/contracts/CryptoDevsDAO.sol\":5968:6078  function withdrawEther () external onlyOwner {... */\n    tag_8:\n      callvalue\n      dup1\n      iszero\n      tag_41\n      jumpi\n      0x00\n      dup1\n      revert\n    tag_41:\n      pop\n      tag_42\n      tag_43\n      jump\t// in\n    tag_42:\n      stop\n        /* \"@openzeppelin/contracts/access/Ownable.sol\":1201:1286  function owner() public view virtual returns (address) {... */\n    tag_9:\n      callvalue\n      dup1\n      iszero\n      tag_44\n      jumpi\n      0x00\n      dup1\n      revert\n    tag_44:\n      pop\n      tag_45\n      tag_46\n      jump\t// in\n    tag_45:\n      mload(0x40)\n      tag_47\n      swap2\n      swap1\n      tag_48\n      jump\t// in\n    tag_47:\n      mload(0x40)\n      dup1\n      swap2\n      sub\n      swap1\n      return\n        /* \"hardhat-tutorial/contracts/CryptoDevsDAO.sol\":3974:4862  function voteOnProposal(uint256 proposalIndex, Vote vote) external nftHolderOnly activeProposalOnly(proposalIndex) {... */\n    tag_10:\n      callvalue\n      dup1\n      iszero\n      tag_49\n      jumpi\n      0x00\n      dup1\n      revert\n    tag_49:\n      pop\n      tag_50\n      0x04\n      dup1\n      calldatasize\n      sub\n      dup2\n      add\n      swap1\n      tag_51\n      swap2\n      swap1\n      tag_52\n      jump\t// in\n    tag_51:\n      tag_53\n      jump\t// in\n    tag_50:\n      stop\n        /* \"@openzeppelin/contracts/access/Ownable.sol\":2081:2279  function transferOwnership(address newOwner) public virtual onlyOwner {... */\n    tag_11:\n      callvalue\n      dup1\n      iszero\n      tag_54\n      jumpi\n      0x00\n      dup1\n      revert\n    tag_54:\n      pop\n      tag_55\n      0x04\n      dup1\n      calldatasize\n      sub\n      dup2\n      add\n      swap1\n      tag_56\n      swap2\n      swap1\n      tag_57\n      jump\t// in\n    tag_56:\n      tag_58\n      jump\t// in\n    tag_55:\n      stop\n        /* \"hardhat-tutorial/contracts/CryptoDevsDAO.sol\":2026:2071  mapping(uint256 => Proposal) public proposals */\n    tag_21:\n      mstore(0x20, 0x01)\n      dup1\n      0x00\n      mstore\n      keccak256(0x00, 0x40)\n      0x00\n      swap2\n      pop\n      swap1\n      pop\n      dup1\n      0x00\n      add\n      sload\n      swap1\n      dup1\n      0x01\n      add\n      sload\n      swap1\n      dup1\n      0x02\n      add\n      sload\n      swap1\n      dup1\n      0x03\n      add\n      sload\n      swap1\n      dup1\n      0x04\n      add\n      0x00\n      swap1\n      sload\n      swap1\n      0x0100\n      exp\n      swap1\n      div\n      0xff\n      and\n      swap1\n      pop\n      dup6\n      jump\t// out\n        /* \"hardhat-tutorial/contracts/CryptoDevsDAO.sol\":5307:5880  function executeProposal(uint256 proposalIndex) external nftHolderOnly inactiveProposalOnly(proposalIndex) {... */\n    tag_27:\n        /* \"hardhat-tutorial/contracts/CryptoDevsDAO.sol\":2808:2809  0 */\n      0x00\n        /* \"hardhat-tutorial/contracts/CryptoDevsDAO.sol\":2770:2783  cryptoDevsNFT */\n      0x04\n      0x00\n      swap1\n      sload\n      swap1\n      0x0100\n      exp\n      swap1\n      div\n      0xffffffffffffffffffffffffffffffffffffffff\n      and\n        /* \"hardhat-tutorial/contracts/CryptoDevsDAO.sol\":2770:2793  cryptoDevsNFT.balanceOf */\n      0xffffffffffffffffffffffffffffffffffffffff\n      and\n      0x70a08231\n        /* \"hardhat-tutorial/contracts/CryptoDevsDAO.sol\":2794:2804  msg.sender */\n      caller\n        /* \"hardhat-tutorial/contracts/CryptoDevsDAO.sol\":2770:2805  cryptoDevsNFT.balanceOf(msg.sender) */\n      mload(0x40)\n      dup3\n      0xffffffff\n      and\n      0xe0\n      shl\n      dup2\n      mstore\n      0x04\n      add\n      tag_60\n      swap2\n      swap1\n      tag_48\n      jump\t// in\n    tag_60:\n      0x20\n      mload(0x40)\n      dup1\n      dup4\n      sub\n      dup2\n      dup7\n      dup1\n      extcodesize\n      iszero\n      dup1\n      iszero\n      tag_61\n      jumpi\n      0x00\n      dup1\n      revert\n    tag_61:\n      pop\n      gas\n      staticcall\n      iszero\n      dup1\n      iszero\n      tag_63\n      jumpi\n      returndatasize\n      0x00\n      dup1\n      returndatacopy\n      revert(0x00, returndatasize)\n    tag_63:\n      pop\n      pop\n      pop\n      pop\n      mload(0x40)\n      returndatasize\n      not(0x1f)\n      0x1f\n      dup3\n      add\n      and\n      dup3\n      add\n      dup1\n      0x40\n      mstore\n      pop\n      dup2\n      add\n      swap1\n      tag_64\n      swap2\n      swap1\n      tag_65\n      jump\t// in\n    tag_64:\n        /* \"hardhat-tutorial/contracts/CryptoDevsDAO.sol\":2770:2809  cryptoDevsNFT.balanceOf(msg.sender) > 0 */\n      gt\n        /* \"hardhat-tutorial/contracts/CryptoDevsDAO.sol\":2762:2830  require(cryptoDevsNFT.balanceOf(msg.sender) > 0, \"Not a DAO Member\") */\n      tag_66\n      jumpi\n      mload(0x40)\n      0x08c379a000000000000000000000000000000000000000000000000000000000\n      dup2\n      mstore\n      0x04\n      add\n      tag_67\n      swap1\n      tag_68\n      jump\t// in\n    tag_67:\n      mload(0x40)\n      dup1\n      swap2\n      sub\n      swap1\n      revert\n    tag_66:\n        /* \"hardhat-tutorial/contracts/CryptoDevsDAO.sol\":5399:5412  proposalIndex */\n      dup1\n        /* \"hardhat-tutorial/contracts/CryptoDevsDAO.sol\":5151:5166  block.timestamp */\n      timestamp\n        /* \"hardhat-tutorial/contracts/CryptoDevsDAO.sol\":5114:5123  proposals */\n      0x01\n        /* \"hardhat-tutorial/contracts/CryptoDevsDAO.sol\":5114:5138  proposals[proposalIndex] */\n      0x00\n        /* \"hardhat-tutorial/contracts/CryptoDevsDAO.sol\":5124:5137  proposalIndex */\n      dup4\n        /* \"hardhat-tutorial/contracts/CryptoDevsDAO.sol\":5114:5138  proposals[proposalIndex] */\n      dup2\n      mstore\n      0x20\n      add\n      swap1\n      dup2\n      mstore\n      0x20\n      add\n      0x00\n      keccak256\n        /* \"hardhat-tutorial/contracts/CryptoDevsDAO.sol\":5114:5147  proposals[proposalIndex].deadline */\n      0x01\n      add\n      sload\n        /* \"hardhat-tutorial/contracts/CryptoDevsDAO.sol\":5114:5166  proposals[proposalIndex].deadline <= block.timestamp */\n      gt\n      iszero\n        /* \"hardhat-tutorial/contracts/CryptoDevsDAO.sol\":5106:5192  require(proposals[proposalIndex].deadline <= block.timestamp, \"Deadline not exceeded\") */\n      tag_70\n      jumpi\n      mload(0x40)\n      0x08c379a000000000000000000000000000000000000000000000000000000000\n      dup2\n      mstore\n      0x04\n      add\n      tag_71\n      swap1\n      tag_72\n      jump\t// in\n    tag_71:\n      mload(0x40)\n      dup1\n      swap2\n      sub\n      swap1\n      revert\n    tag_70:\n        /* \"hardhat-tutorial/contracts/CryptoDevsDAO.sol\":5247:5252  false */\n      0x00\n        /* \"hardhat-tutorial/contracts/CryptoDevsDAO.sol\":5210:5252  proposals[proposalIndex].executed == false */\n      iszero\n      iszero\n        /* \"hardhat-tutorial/contracts/CryptoDevsDAO.sol\":5210:5219  proposals */\n      0x01\n        /* \"hardhat-tutorial/contracts/CryptoDevsDAO.sol\":5210:5234  proposals[proposalIndex] */\n      0x00\n        /* \"hardhat-tutorial/contracts/CryptoDevsDAO.sol\":5220:5233  proposalIndex */\n      dup4\n        /* \"hardhat-tutorial/contracts/CryptoDevsDAO.sol\":5210:5234  proposals[proposalIndex] */\n      dup2\n      mstore\n      0x20\n      add\n      swap1\n      dup2\n      mstore\n      0x20\n      add\n      0x00\n      keccak256\n        /* \"hardhat-tutorial/contracts/CryptoDevsDAO.sol\":5210:5243  proposals[proposalIndex].executed */\n      0x04\n      add\n      0x00\n      swap1\n      sload\n      swap1\n      0x0100\n      exp\n      swap1\n      div\n      0xff\n      and\n        /* \"hardhat-tutorial/contracts/CryptoDevsDAO.sol\":5210:5252  proposals[proposalIndex].executed == false */\n      iszero\n      iszero\n      eq\n        /* \"hardhat-tutorial/contracts/CryptoDevsDAO.sol\":5202:5282  require(proposals[proposalIndex].executed == false, \"Proposal already executed\") */\n      tag_73\n      jumpi\n      mload(0x40)\n      0x08c379a000000000000000000000000000000000000000000000000000000000\n      dup2\n      mstore\n      0x04\n      add\n      tag_74\n      swap1\n      tag_75\n      jump\t// in\n    tag_74:\n      mload(0x40)\n      dup1\n      swap2\n      sub\n      swap1\n      revert\n    tag_73:\n        /* \"hardhat-tutorial/contracts/CryptoDevsDAO.sol\":5424:5449  Proposal storage proposal */\n      0x00\n        /* \"hardhat-tutorial/contracts/CryptoDevsDAO.sol\":5452:5461  proposals */\n      0x01\n        /* \"hardhat-tutorial/contracts/CryptoDevsDAO.sol\":5452:5476  proposals[proposalIndex] */\n      0x00\n        /* \"hardhat-tutorial/contracts/CryptoDevsDAO.sol\":5462:5475  proposalIndex */\n      dup5\n        /* \"hardhat-tutorial/contracts/CryptoDevsDAO.sol\":5452:5476  proposals[proposalIndex] */\n      dup2\n      mstore\n      0x20\n      add\n      swap1\n      dup2\n      mstore\n      0x20\n      add\n      0x00\n      keccak256\n        /* \"hardhat-tutorial/contracts/CryptoDevsDAO.sol\":5424:5476  Proposal storage proposal = proposals[proposalIndex] */\n      swap1\n      pop\n        /* \"hardhat-tutorial/contracts/CryptoDevsDAO.sol\":5602:5610  proposal */\n      dup1\n        /* \"hardhat-tutorial/contracts/CryptoDevsDAO.sol\":5602:5618  proposal.noVotes */\n      0x03\n      add\n      sload\n        /* \"hardhat-tutorial/contracts/CryptoDevsDAO.sol\":5582:5590  proposal */\n      dup2\n        /* \"hardhat-tutorial/contracts/CryptoDevsDAO.sol\":5582:5599  proposal.yesVotes */\n      0x02\n      add\n      sload\n        /* \"hardhat-tutorial/contracts/CryptoDevsDAO.sol\":5582:5618  proposal.yesVotes > proposal.noVotes */\n      gt\n        /* \"hardhat-tutorial/contracts/CryptoDevsDAO.sol\":5578:5840  if (proposal.yesVotes > proposal.noVotes) {... */\n      iszero\n      tag_77\n      jumpi\n        /* \"hardhat-tutorial/contracts/CryptoDevsDAO.sol\":5634:5650  uint256 nftPrice */\n      0x00\n        /* \"hardhat-tutorial/contracts/CryptoDevsDAO.sol\":5653:5667  nftMarketPlace */\n      0x03\n      0x00\n      swap1\n      sload\n      swap1\n      0x0100\n      exp\n      swap1\n      div\n      0xffffffffffffffffffffffffffffffffffffffff\n      and\n        /* \"hardhat-tutorial/contracts/CryptoDevsDAO.sol\":5653:5676  nftMarketPlace.getPrice */\n      0xffffffffffffffffffffffffffffffffffffffff\n      and\n      0x98d5fdca\n        /* \"hardhat-tutorial/contracts/CryptoDevsDAO.sol\":5653:5678  nftMarketPlace.getPrice() */\n      mload(0x40)\n      dup2\n      0xffffffff\n      and\n      0xe0\n      shl\n      dup2\n      mstore\n      0x04\n      add\n      0x20\n      mload(0x40)\n      dup1\n      dup4\n      sub\n      dup2\n      dup7\n      dup1\n      extcodesize\n      iszero\n      dup1\n      iszero\n      tag_78\n      jumpi\n      0x00\n      dup1\n      revert\n    tag_78:\n      pop\n      gas\n      staticcall\n      iszero\n      dup1\n      iszero\n      tag_80\n      jumpi\n      returndatasize\n      0x00\n      dup1\n      returndatacopy\n      revert(0x00, returndatasize)\n    tag_80:\n      pop\n      pop\n      pop\n      pop\n      mload(0x40)\n      returndatasize\n      not(0x1f)\n      0x1f\n      dup3\n      add\n      and\n      dup3\n      add\n      dup1\n      0x40\n      mstore\n      pop\n      dup2\n      add\n      swap1\n      tag_81\n      swap2\n      swap1\n      tag_65\n      jump\t// in\n    tag_81:\n        /* \"hardhat-tutorial/contracts/CryptoDevsDAO.sol\":5634:5678  uint256 nftPrice = nftMarketPlace.getPrice() */\n      swap1\n      pop\n        /* \"hardhat-tutorial/contracts/CryptoDevsDAO.sol\":5725:5733  nftPrice */\n      dup1\n        /* \"hardhat-tutorial/contracts/CryptoDevsDAO.sol\":5700:5721  address(this).balance */\n      selfbalance\n        /* \"hardhat-tutorial/contracts/CryptoDevsDAO.sol\":5700:5733  address(this).balance >= nftPrice */\n      lt\n      iszero\n        /* \"hardhat-tutorial/contracts/CryptoDevsDAO.sol\":5692:5754  require(address(this).balance >= nftPrice, \"Not enough Funds\") */\n      tag_82\n      jumpi\n      mload(0x40)\n      0x08c379a000000000000000000000000000000000000000000000000000000000\n      dup2\n      mstore\n      0x04\n      add\n      tag_83\n      swap1\n      tag_84\n      jump\t// in\n    tag_83:\n      mload(0x40)\n      dup1\n      swap2\n      sub\n      swap1\n      revert\n    tag_82:\n        /* \"hardhat-tutorial/contracts/CryptoDevsDAO.sol\":5768:5782  nftMarketPlace */\n      0x03\n      0x00\n      swap1\n      sload\n      swap1\n      0x0100\n      exp\n      swap1\n      div\n      0xffffffffffffffffffffffffffffffffffffffff\n      and\n        /* \"hardhat-tutorial/contracts/CryptoDevsDAO.sol\":5768:5791  nftMarketPlace.purchase */\n      0xffffffffffffffffffffffffffffffffffffffff\n      and\n      0xefef39a1\n        /* \"hardhat-tutorial/contracts/CryptoDevsDAO.sol\":5799:5807  nftPrice */\n      dup3\n        /* \"hardhat-tutorial/contracts/CryptoDevsDAO.sol\":5809:5817  proposal */\n      dup5\n        /* \"hardhat-tutorial/contracts/CryptoDevsDAO.sol\":5809:5828  proposal.nftTokenId */\n      0x00\n      add\n      sload\n        /* \"hardhat-tutorial/contracts/CryptoDevsDAO.sol\":5768:5829  nftMarketPlace.purchase{value: nftPrice}(proposal.nftTokenId) */\n      mload(0x40)\n      dup4\n      0xffffffff\n      and\n      0xe0\n      shl\n      dup2\n      mstore\n      0x04\n      add\n      tag_85\n      swap2\n      swap1\n      tag_32\n      jump\t// in\n    tag_85:\n      0x00\n      mload(0x40)\n      dup1\n      dup4\n      sub\n      dup2\n      dup6\n      dup9\n      dup1\n      extcodesize\n      iszero\n      dup1\n      iszero\n      tag_86\n      jumpi\n      0x00\n      dup1\n      revert\n    tag_86:\n      pop\n      gas\n      call\n      iszero\n      dup1\n      iszero\n      tag_88\n      jumpi\n      returndatasize\n      0x00\n      dup1\n      returndatacopy\n      revert(0x00, returndatasize)\n    tag_88:\n      pop\n      pop\n      pop\n      pop\n      pop\n        /* \"hardhat-tutorial/contracts/CryptoDevsDAO.sol\":5620:5840  {... */\n      pop\n        /* \"hardhat-tutorial/contracts/CryptoDevsDAO.sol\":5578:5840  if (proposal.yesVotes > proposal.noVotes) {... */\n    tag_77:\n        /* \"hardhat-tutorial/contracts/CryptoDevsDAO.sol\":5869:5873  true */\n      0x01\n        /* \"hardhat-tutorial/contracts/CryptoDevsDAO.sol\":5849:5857  proposal */\n      dup2\n        /* \"hardhat-tutorial/contracts/CryptoDevsDAO.sol\":5849:5866  proposal.executed */\n      0x04\n      add\n      0x00\n        /* \"hardhat-tutorial/contracts/CryptoDevsDAO.sol\":5849:5873  proposal.executed = true */\n      0x0100\n      exp\n      dup2\n      sload\n      dup2\n      0xff\n      mul\n      not\n      and\n      swap1\n      dup4\n      iszero\n      iszero\n      mul\n      or\n      swap1\n      sstore\n      pop\n        /* \"hardhat-tutorial/contracts/CryptoDevsDAO.sol\":5414:5880  {... */\n      pop\n        /* \"hardhat-tutorial/contracts/CryptoDevsDAO.sol\":2840:2841  _ */\n      pop\n        /* \"hardhat-tutorial/contracts/CryptoDevsDAO.sol\":5307:5880  function executeProposal(uint256 proposalIndex) external nftHolderOnly inactiveProposalOnly(proposalIndex) {... */\n      pop\n      jump\t// out\n        /* \"hardhat-tutorial/contracts/CryptoDevsDAO.sol\":2127:2154  uint256 public numProposals */\n    tag_30:\n      sload(0x02)\n      dup2\n      jump\t// out\n        /* \"hardhat-tutorial/contracts/CryptoDevsDAO.sol\":3138:3602  function createProposal(uint256 _nftTokenId) external nftHolderOnly returns (uint256) {... */\n    tag_36:\n        /* \"hardhat-tutorial/contracts/CryptoDevsDAO.sol\":3215:3222  uint256 */\n      0x00\n        /* \"hardhat-tutorial/contracts/CryptoDevsDAO.sol\":2808:2809  0 */\n      dup1\n        /* \"hardhat-tutorial/contracts/CryptoDevsDAO.sol\":2770:2783  cryptoDevsNFT */\n      0x04\n      0x00\n      swap1\n      sload\n      swap1\n      0x0100\n      exp\n      swap1\n      div\n      0xffffffffffffffffffffffffffffffffffffffff\n      and\n        /* \"hardhat-tutorial/contracts/CryptoDevsDAO.sol\":2770:2793  cryptoDevsNFT.balanceOf */\n      0xffffffffffffffffffffffffffffffffffffffff\n      and\n      0x70a08231\n        /* \"hardhat-tutorial/contracts/CryptoDevsDAO.sol\":2794:2804  msg.sender */\n      caller\n        /* \"hardhat-tutorial/contracts/CryptoDevsDAO.sol\":2770:2805  cryptoDevsNFT.balanceOf(msg.sender) */\n      mload(0x40)\n      dup3\n      0xffffffff\n      and\n      0xe0\n      shl\n      dup2\n      mstore\n      0x04\n      add\n      tag_90\n      swap2\n      swap1\n      tag_48\n      jump\t// in\n    tag_90:\n      0x20\n      mload(0x40)\n      dup1\n      dup4\n      sub\n      dup2\n      dup7\n      dup1\n      extcodesize\n      iszero\n      dup1\n      iszero\n      tag_91\n      jumpi\n      0x00\n      dup1\n      revert\n    tag_91:\n      pop\n      gas\n      staticcall\n      iszero\n      dup1\n      iszero\n      tag_93\n      jumpi\n      returndatasize\n      0x00\n      dup1\n      returndatacopy\n      revert(0x00, returndatasize)\n    tag_93:\n      pop\n      pop\n      pop\n      pop\n      mload(0x40)\n      returndatasize\n      not(0x1f)\n      0x1f\n      dup3\n      add\n      and\n      dup3\n      add\n      dup1\n      0x40\n      mstore\n      pop\n      dup2\n      add\n      swap1\n      tag_94\n      swap2\n      swap1\n      tag_65\n      jump\t// in\n    tag_94:\n        /* \"hardhat-tutorial/contracts/CryptoDevsDAO.sol\":2770:2809  cryptoDevsNFT.balanceOf(msg.sender) > 0 */\n      gt\n        /* \"hardhat-tutorial/contracts/CryptoDevsDAO.sol\":2762:2830  require(cryptoDevsNFT.balanceOf(msg.sender) > 0, \"Not a DAO Member\") */\n      tag_95\n      jumpi\n      mload(0x40)\n      0x08c379a000000000000000000000000000000000000000000000000000000000\n      dup2\n      mstore\n      0x04\n      add\n      tag_96\n      swap1\n      tag_68\n      jump\t// in\n    tag_96:\n      mload(0x40)\n      dup1\n      swap2\n      sub\n      swap1\n      revert\n    tag_95:\n        /* \"hardhat-tutorial/contracts/CryptoDevsDAO.sol\":3242:3256  nftMarketPlace */\n      0x03\n      0x00\n      swap1\n      sload\n      swap1\n      0x0100\n      exp\n      swap1\n      div\n      0xffffffffffffffffffffffffffffffffffffffff\n      and\n        /* \"hardhat-tutorial/contracts/CryptoDevsDAO.sol\":3242:3266  nftMarketPlace.available */\n      0xffffffffffffffffffffffffffffffffffffffff\n      and\n      0x96e494e8\n        /* \"hardhat-tutorial/contracts/CryptoDevsDAO.sol\":3267:3278  _nftTokenId */\n      dup4\n        /* \"hardhat-tutorial/contracts/CryptoDevsDAO.sol\":3242:3279  nftMarketPlace.available(_nftTokenId) */\n      mload(0x40)\n      dup3\n      0xffffffff\n      and\n      0xe0\n      shl\n      dup2\n      mstore\n      0x04\n      add\n      tag_98\n      swap2\n      swap1\n      tag_32\n      jump\t// in\n    tag_98:\n      0x20\n      mload(0x40)\n      dup1\n      dup4\n      sub\n      dup2\n      dup7\n      dup1\n      extcodesize\n      iszero\n      dup1\n      iszero\n      tag_99\n      jumpi\n      0x00\n      dup1\n      revert\n    tag_99:\n      pop\n      gas\n      staticcall\n      iszero\n      dup1\n      iszero\n      tag_101\n      jumpi\n      returndatasize\n      0x00\n      dup1\n      returndatacopy\n      revert(0x00, returndatasize)\n    tag_101:\n      pop\n      pop\n      pop\n      pop\n      mload(0x40)\n      returndatasize\n      not(0x1f)\n      0x1f\n      dup3\n      add\n      and\n      dup3\n      add\n      dup1\n      0x40\n      mstore\n      pop\n      dup2\n      add\n      swap1\n      tag_102\n      swap2\n      swap1\n      tag_103\n      jump\t// in\n    tag_102:\n        /* \"hardhat-tutorial/contracts/CryptoDevsDAO.sol\":3234:3300  require(nftMarketPlace.available(_nftTokenId), \"NFT not for sale\") */\n      tag_104\n      jumpi\n      mload(0x40)\n      0x08c379a000000000000000000000000000000000000000000000000000000000\n      dup2\n      mstore\n      0x04\n      add\n      tag_105\n      swap1\n      tag_106\n      jump\t// in\n    tag_105:\n      mload(0x40)\n      dup1\n      swap2\n      sub\n      swap1\n      revert\n    tag_104:\n        /* \"hardhat-tutorial/contracts/CryptoDevsDAO.sol\":3310:3335  Proposal storage proposal */\n      0x00\n        /* \"hardhat-tutorial/contracts/CryptoDevsDAO.sol\":3338:3347  proposals */\n      0x01\n        /* \"hardhat-tutorial/contracts/CryptoDevsDAO.sol\":3338:3361  proposals[numProposals] */\n      0x00\n        /* \"hardhat-tutorial/contracts/CryptoDevsDAO.sol\":3348:3360  numProposals */\n      sload(0x02)\n        /* \"hardhat-tutorial/contracts/CryptoDevsDAO.sol\":3338:3361  proposals[numProposals] */\n      dup2\n      mstore\n      0x20\n      add\n      swap1\n      dup2\n      mstore\n      0x20\n      add\n      0x00\n      keccak256\n        /* \"hardhat-tutorial/contracts/CryptoDevsDAO.sol\":3310:3361  Proposal storage proposal = proposals[numProposals] */\n      swap1\n      pop\n        /* \"hardhat-tutorial/contracts/CryptoDevsDAO.sol\":3393:3404  _nftTokenId */\n      dup3\n        /* \"hardhat-tutorial/contracts/CryptoDevsDAO.sol\":3371:3379  proposal */\n      dup2\n        /* \"hardhat-tutorial/contracts/CryptoDevsDAO.sol\":3371:3390  proposal.nftTokenId */\n      0x00\n      add\n        /* \"hardhat-tutorial/contracts/CryptoDevsDAO.sol\":3371:3404  proposal.nftTokenId = _nftTokenId */\n      dup2\n      swap1\n      sstore\n      pop\n        /* \"hardhat-tutorial/contracts/CryptoDevsDAO.sol\":3527:3536  5 minutes */\n      0x012c\n        /* \"hardhat-tutorial/contracts/CryptoDevsDAO.sol\":3509:3524  block.timestamp */\n      timestamp\n        /* \"hardhat-tutorial/contracts/CryptoDevsDAO.sol\":3509:3536  block.timestamp + 5 minutes */\n      tag_107\n      swap2\n      swap1\n      tag_108\n      jump\t// in\n    tag_107:\n        /* \"hardhat-tutorial/contracts/CryptoDevsDAO.sol\":3489:3497  proposal */\n      dup2\n        /* \"hardhat-tutorial/contracts/CryptoDevsDAO.sol\":3489:3506  proposal.deadline */\n      0x01\n      add\n        /* \"hardhat-tutorial/contracts/CryptoDevsDAO.sol\":3489:3536  proposal.deadline = block.timestamp + 5 minutes */\n      dup2\n      swap1\n      sstore\n      pop\n        /* \"hardhat-tutorial/contracts/CryptoDevsDAO.sol\":3547:3559  numProposals */\n      0x02\n      0x00\n        /* \"hardhat-tutorial/contracts/CryptoDevsDAO.sol\":3547:3561  numProposals++ */\n      dup2\n      sload\n      dup1\n      swap3\n      swap2\n      swap1\n      tag_109\n      swap1\n      tag_110\n      jump\t// in\n    tag_109:\n      swap2\n      swap1\n      pop\n      sstore\n      pop\n        /* \"hardhat-tutorial/contracts/CryptoDevsDAO.sol\":3593:3594  1 */\n      0x01\n        /* \"hardhat-tutorial/contracts/CryptoDevsDAO.sol\":3578:3590  numProposals */\n      sload(0x02)\n        /* \"hardhat-tutorial/contracts/CryptoDevsDAO.sol\":3578:3594  numProposals - 1 */\n      tag_111\n      swap2\n      swap1\n      tag_112\n      jump\t// in\n    tag_111:\n        /* \"hardhat-tutorial/contracts/CryptoDevsDAO.sol\":3571:3594  return numProposals - 1 */\n      swap2\n      pop\n      pop\n        /* \"hardhat-tutorial/contracts/CryptoDevsDAO.sol\":3138:3602  function createProposal(uint256 _nftTokenId) external nftHolderOnly returns (uint256) {... */\n      swap2\n      swap1\n      pop\n      jump\t// out\n        /* \"@openzeppelin/contracts/access/Ownable.sol\":1831:1932  function renounceOwnership() public virtual onlyOwner {... */\n    tag_40:\n        /* \"@openzeppelin/contracts/access/Ownable.sol\":1094:1107  _checkOwner() */\n      tag_114\n        /* \"@openzeppelin/contracts/access/Ownable.sol\":1094:1105  _checkOwner */\n      tag_115\n        /* \"@openzeppelin/contracts/access/Ownable.sol\":1094:1107  _checkOwner() */\n      jump\t// in\n    tag_114:\n        /* \"@openzeppelin/contracts/access/Ownable.sol\":1895:1925  _transferOwnership(address(0)) */\n      tag_117\n        /* \"@openzeppelin/contracts/access/Ownable.sol\":1922:1923  0 */\n      0x00\n        /* \"@openzeppelin/contracts/access/Ownable.sol\":1895:1913  _transferOwnership */\n      tag_118\n        /* \"@openzeppelin/contracts/access/Ownable.sol\":1895:1925  _transferOwnership(address(0)) */\n      jump\t// in\n    tag_117:\n        /* \"@openzeppelin/contracts/access/Ownable.sol\":1831:1932  function renounceOwnership() public virtual onlyOwner {... */\n      jump\t// out\n        /* \"hardhat-tutorial/contracts/CryptoDevsDAO.sol\":5968:6078  function withdrawEther () external onlyOwner {... */\n    tag_43:\n        /* \"@openzeppelin/contracts/access/Ownable.sol\":1094:1107  _checkOwner() */\n      tag_120\n        /* \"@openzeppelin/contracts/access/Ownable.sol\":1094:1105  _checkOwner */\n      tag_115\n        /* \"@openzeppelin/contracts/access/Ownable.sol\":1094:1107  _checkOwner() */\n      jump\t// in\n    tag_120:\n        /* \"hardhat-tutorial/contracts/CryptoDevsDAO.sol\":6031:6038  owner() */\n      tag_122\n        /* \"hardhat-tutorial/contracts/CryptoDevsDAO.sol\":6031:6036  owner */\n      tag_46\n        /* \"hardhat-tutorial/contracts/CryptoDevsDAO.sol\":6031:6038  owner() */\n      jump\t// in\n    tag_122:\n        /* \"hardhat-tutorial/contracts/CryptoDevsDAO.sol\":6023:6048  payable(owner()).transfer */\n      0xffffffffffffffffffffffffffffffffffffffff\n      and\n        /* \"hardhat-tutorial/contracts/CryptoDevsDAO.sol\":6023:6071  payable(owner()).transfer(address(this).balance) */\n      0x08fc\n        /* \"hardhat-tutorial/contracts/CryptoDevsDAO.sol\":6049:6070  address(this).balance */\n      selfbalance\n        /* \"hardhat-tutorial/contracts/CryptoDevsDAO.sol\":6023:6071  payable(owner()).transfer(address(this).balance) */\n      swap1\n      dup2\n      iszero\n      mul\n      swap1\n      mload(0x40)\n      0x00\n      mload(0x40)\n      dup1\n      dup4\n      sub\n      dup2\n      dup6\n      dup9\n      dup9\n      call\n      swap4\n      pop\n      pop\n      pop\n      pop\n      iszero\n      dup1\n      iszero\n      tag_124\n      jumpi\n      returndatasize\n      0x00\n      dup1\n      returndatacopy\n      revert(0x00, returndatasize)\n    tag_124:\n      pop\n        /* \"hardhat-tutorial/contracts/CryptoDevsDAO.sol\":5968:6078  function withdrawEther () external onlyOwner {... */\n      jump\t// out\n        /* \"@openzeppelin/contracts/access/Ownable.sol\":1201:1286  function owner() public view virtual returns (address) {... */\n    tag_46:\n        /* \"@openzeppelin/contracts/access/Ownable.sol\":1247:1254  address */\n      0x00\n        /* \"@openzeppelin/contracts/access/Ownable.sol\":1273:1279  _owner */\n      dup1\n      0x00\n      swap1\n      sload\n      swap1\n      0x0100\n      exp\n      swap1\n      div\n      0xffffffffffffffffffffffffffffffffffffffff\n      and\n        /* \"@openzeppelin/contracts/access/Ownable.sol\":1266:1279  return _owner */\n      swap1\n      pop\n        /* \"@openzeppelin/contracts/access/Ownable.sol\":1201:1286  function owner() public view virtual returns (address) {... */\n      swap1\n      jump\t// out\n        /* \"hardhat-tutorial/contracts/CryptoDevsDAO.sol\":3974:4862  function voteOnProposal(uint256 proposalIndex, Vote vote) external nftHolderOnly activeProposalOnly(proposalIndex) {... */\n    tag_53:\n        /* \"hardhat-tutorial/contracts/CryptoDevsDAO.sol\":2808:2809  0 */\n      0x00\n        /* \"hardhat-tutorial/contracts/CryptoDevsDAO.sol\":2770:2783  cryptoDevsNFT */\n      0x04\n      0x00\n      swap1\n      sload\n      swap1\n      0x0100\n      exp\n      swap1\n      div\n      0xffffffffffffffffffffffffffffffffffffffff\n      and\n        /* \"hardhat-tutorial/contracts/CryptoDevsDAO.sol\":2770:2793  cryptoDevsNFT.balanceOf */\n      0xffffffffffffffffffffffffffffffffffffffff\n      and\n      0x70a08231\n        /* \"hardhat-tutorial/contracts/CryptoDevsDAO.sol\":2794:2804  msg.sender */\n      caller\n        /* \"hardhat-tutorial/contracts/CryptoDevsDAO.sol\":2770:2805  cryptoDevsNFT.balanceOf(msg.sender) */\n      mload(0x40)\n      dup3\n      0xffffffff\n      and\n      0xe0\n      shl\n      dup2\n      mstore\n      0x04\n      add\n      tag_127\n      swap2\n      swap1\n      tag_48\n      jump\t// in\n    tag_127:\n      0x20\n      mload(0x40)\n      dup1\n      dup4\n      sub\n      dup2\n      dup7\n      dup1\n      extcodesize\n      iszero\n      dup1\n      iszero\n      tag_128\n      jumpi\n      0x00\n      dup1\n      revert\n    tag_128:\n      pop\n      gas\n      staticcall\n      iszero\n      dup1\n      iszero\n      tag_130\n      jumpi\n      returndatasize\n      0x00\n      dup1\n      returndatacopy\n      revert(0x00, returndatasize)\n    tag_130:\n      pop\n      pop\n      pop\n      pop\n      mload(0x40)\n      returndatasize\n      not(0x1f)\n      0x1f\n      dup3\n      add\n      and\n      dup3\n      add\n      dup1\n      0x40\n      mstore\n      pop\n      dup2\n      add\n      swap1\n      tag_131\n      swap2\n      swap1\n      tag_65\n      jump\t// in\n    tag_131:\n        /* \"hardhat-tutorial/contracts/CryptoDevsDAO.sol\":2770:2809  cryptoDevsNFT.balanceOf(msg.sender) > 0 */\n      gt\n        /* \"hardhat-tutorial/contracts/CryptoDevsDAO.sol\":2762:2830  require(cryptoDevsNFT.balanceOf(msg.sender) > 0, \"Not a DAO Member\") */\n      tag_132\n      jumpi\n      mload(0x40)\n      0x08c379a000000000000000000000000000000000000000000000000000000000\n      dup2\n      mstore\n      0x04\n      add\n      tag_133\n      swap1\n      tag_68\n      jump\t// in\n    tag_133:\n      mload(0x40)\n      dup1\n      swap2\n      sub\n      swap1\n      revert\n    tag_132:\n        /* \"hardhat-tutorial/contracts/CryptoDevsDAO.sol\":4074:4087  proposalIndex */\n      dup2\n        /* \"hardhat-tutorial/contracts/CryptoDevsDAO.sol\":3849:3864  block.timestamp */\n      timestamp\n        /* \"hardhat-tutorial/contracts/CryptoDevsDAO.sol\":3813:3822  proposals */\n      0x01\n        /* \"hardhat-tutorial/contracts/CryptoDevsDAO.sol\":3813:3837  proposals[proposalIndex] */\n      0x00\n        /* \"hardhat-tutorial/contracts/CryptoDevsDAO.sol\":3823:3836  proposalIndex */\n      dup4\n        /* \"hardhat-tutorial/contracts/CryptoDevsDAO.sol\":3813:3837  proposals[proposalIndex] */\n      dup2\n      mstore\n      0x20\n      add\n      swap1\n      dup2\n      mstore\n      0x20\n      add\n      0x00\n      keccak256\n        /* \"hardhat-tutorial/contracts/CryptoDevsDAO.sol\":3813:3846  proposals[proposalIndex].deadline */\n      0x01\n      add\n      sload\n        /* \"hardhat-tutorial/contracts/CryptoDevsDAO.sol\":3813:3864  proposals[proposalIndex].deadline > block.timestamp */\n      gt\n        /* \"hardhat-tutorial/contracts/CryptoDevsDAO.sol\":3805:3886  require(proposals[proposalIndex].deadline > block.timestamp, \"Deadline exceeded\") */\n      tag_135\n      jumpi\n      mload(0x40)\n      0x08c379a000000000000000000000000000000000000000000000000000000000\n      dup2\n      mstore\n      0x04\n      add\n      tag_136\n      swap1\n      tag_137\n      jump\t// in\n    tag_136:\n      mload(0x40)\n      dup1\n      swap2\n      sub\n      swap1\n      revert\n    tag_135:\n        /* \"hardhat-tutorial/contracts/CryptoDevsDAO.sol\":4099:4124  Proposal storage proposal */\n      0x00\n        /* \"hardhat-tutorial/contracts/CryptoDevsDAO.sol\":4127:4136  proposals */\n      0x01\n        /* \"hardhat-tutorial/contracts/CryptoDevsDAO.sol\":4127:4151  proposals[proposalIndex] */\n      0x00\n        /* \"hardhat-tutorial/contracts/CryptoDevsDAO.sol\":4137:4150  proposalIndex */\n      dup6\n        /* \"hardhat-tutorial/contracts/CryptoDevsDAO.sol\":4127:4151  proposals[proposalIndex] */\n      dup2\n      mstore\n      0x20\n      add\n      swap1\n      dup2\n      mstore\n      0x20\n      add\n      0x00\n      keccak256\n        /* \"hardhat-tutorial/contracts/CryptoDevsDAO.sol\":4099:4151  Proposal storage proposal = proposals[proposalIndex] */\n      swap1\n      pop\n        /* \"hardhat-tutorial/contracts/CryptoDevsDAO.sol\":4161:4184  uint256 voterNFTBalance */\n      0x00\n        /* \"hardhat-tutorial/contracts/CryptoDevsDAO.sol\":4187:4200  cryptoDevsNFT */\n      0x04\n      0x00\n      swap1\n      sload\n      swap1\n      0x0100\n      exp\n      swap1\n      div\n      0xffffffffffffffffffffffffffffffffffffffff\n      and\n        /* \"hardhat-tutorial/contracts/CryptoDevsDAO.sol\":4187:4210  cryptoDevsNFT.balanceOf */\n      0xffffffffffffffffffffffffffffffffffffffff\n      and\n      0x70a08231\n        /* \"hardhat-tutorial/contracts/CryptoDevsDAO.sol\":4211:4221  msg.sender */\n      caller\n        /* \"hardhat-tutorial/contracts/CryptoDevsDAO.sol\":4187:4222  cryptoDevsNFT.balanceOf(msg.sender) */\n      mload(0x40)\n      dup3\n      0xffffffff\n      and\n      0xe0\n      shl\n      dup2\n      mstore\n      0x04\n      add\n      tag_139\n      swap2\n      swap1\n      tag_48\n      jump\t// in\n    tag_139:\n      0x20\n      mload(0x40)\n      dup1\n      dup4\n      sub\n      dup2\n      dup7\n      dup1\n      extcodesize\n      iszero\n      dup1\n      iszero\n      tag_140\n      jumpi\n      0x00\n      dup1\n      revert\n    tag_140:\n      pop\n      gas\n      staticcall\n      iszero\n      dup1\n      iszero\n      tag_142\n      jumpi\n      returndatasize\n      0x00\n      dup1\n      returndatacopy\n      revert(0x00, returndatasize)\n    tag_142:\n      pop\n      pop\n      pop\n      pop\n      mload(0x40)\n      returndatasize\n      not(0x1f)\n      0x1f\n      dup3\n      add\n      and\n      dup3\n      add\n      dup1\n      0x40\n      mstore\n      pop\n      dup2\n      add\n      swap1\n      tag_143\n      swap2\n      swap1\n      tag_65\n      jump\t// in\n    tag_143:\n        /* \"hardhat-tutorial/contracts/CryptoDevsDAO.sol\":4161:4222  uint256 voterNFTBalance = cryptoDevsNFT.balanceOf(msg.sender) */\n      swap1\n      pop\n        /* \"hardhat-tutorial/contracts/CryptoDevsDAO.sol\":4232:4248  uint256 numVotes */\n      0x00\n        /* \"hardhat-tutorial/contracts/CryptoDevsDAO.sol\":4385:4394  uint256 i */\n      dup1\n        /* \"hardhat-tutorial/contracts/CryptoDevsDAO.sol\":4380:4661  for (uint256 i = 0; i < voterNFTBalance; i++) {... */\n    tag_144:\n        /* \"hardhat-tutorial/contracts/CryptoDevsDAO.sol\":4404:4419  voterNFTBalance */\n      dup3\n        /* \"hardhat-tutorial/contracts/CryptoDevsDAO.sol\":4400:4401  i */\n      dup2\n        /* \"hardhat-tutorial/contracts/CryptoDevsDAO.sol\":4400:4419  i < voterNFTBalance */\n      lt\n        /* \"hardhat-tutorial/contracts/CryptoDevsDAO.sol\":4380:4661  for (uint256 i = 0; i < voterNFTBalance; i++) {... */\n      iszero\n      tag_145\n      jumpi\n        /* \"hardhat-tutorial/contracts/CryptoDevsDAO.sol\":4440:4455  uint256 tokenId */\n      0x00\n        /* \"hardhat-tutorial/contracts/CryptoDevsDAO.sol\":4458:4471  cryptoDevsNFT */\n      0x04\n      0x00\n      swap1\n      sload\n      swap1\n      0x0100\n      exp\n      swap1\n      div\n      0xffffffffffffffffffffffffffffffffffffffff\n      and\n        /* \"hardhat-tutorial/contracts/CryptoDevsDAO.sol\":4458:4491  cryptoDevsNFT.tokenOfOwnerByIndex */\n      0xffffffffffffffffffffffffffffffffffffffff\n      and\n      0x2f745c59\n        /* \"hardhat-tutorial/contracts/CryptoDevsDAO.sol\":4492:4502  msg.sender */\n      caller\n        /* \"hardhat-tutorial/contracts/CryptoDevsDAO.sol\":4504:4505  i */\n      dup5\n        /* \"hardhat-tutorial/contracts/CryptoDevsDAO.sol\":4458:4506  cryptoDevsNFT.tokenOfOwnerByIndex(msg.sender, i) */\n      mload(0x40)\n      dup4\n      0xffffffff\n      and\n      0xe0\n      shl\n      dup2\n      mstore\n      0x04\n      add\n      tag_147\n      swap3\n      swap2\n      swap1\n      tag_148\n      jump\t// in\n    tag_147:\n      0x20\n      mload(0x40)\n      dup1\n      dup4\n      sub\n      dup2\n      dup7\n      dup1\n      extcodesize\n      iszero\n      dup1\n      iszero\n      tag_149\n      jumpi\n      0x00\n      dup1\n      revert\n    tag_149:\n      pop\n      gas\n      staticcall\n      iszero\n      dup1\n      iszero\n      tag_151\n      jumpi\n      returndatasize\n      0x00\n      dup1\n      returndatacopy\n      revert(0x00, returndatasize)\n    tag_151:\n      pop\n      pop\n      pop\n      pop\n      mload(0x40)\n      returndatasize\n      not(0x1f)\n      0x1f\n      dup3\n      add\n      and\n      dup3\n      add\n      dup1\n      0x40\n      mstore\n      pop\n      dup2\n      add\n      swap1\n      tag_152\n      swap2\n      swap1\n      tag_65\n      jump\t// in\n    tag_152:\n        /* \"hardhat-tutorial/contracts/CryptoDevsDAO.sol\":4440:4506  uint256 tokenId = cryptoDevsNFT.tokenOfOwnerByIndex(msg.sender, i) */\n      swap1\n      pop\n        /* \"hardhat-tutorial/contracts/CryptoDevsDAO.sol\":4552:4557  false */\n      0x00\n        /* \"hardhat-tutorial/contracts/CryptoDevsDAO.sol\":4524:4557  proposal.voters[tokenId] == false */\n      iszero\n      iszero\n        /* \"hardhat-tutorial/contracts/CryptoDevsDAO.sol\":4524:4532  proposal */\n      dup6\n        /* \"hardhat-tutorial/contracts/CryptoDevsDAO.sol\":4524:4539  proposal.voters */\n      0x05\n      add\n        /* \"hardhat-tutorial/contracts/CryptoDevsDAO.sol\":4524:4548  proposal.voters[tokenId] */\n      0x00\n        /* \"hardhat-tutorial/contracts/CryptoDevsDAO.sol\":4540:4547  tokenId */\n      dup4\n        /* \"hardhat-tutorial/contracts/CryptoDevsDAO.sol\":4524:4548  proposal.voters[tokenId] */\n      dup2\n      mstore\n      0x20\n      add\n      swap1\n      dup2\n      mstore\n      0x20\n      add\n      0x00\n      keccak256\n      0x00\n      swap1\n      sload\n      swap1\n      0x0100\n      exp\n      swap1\n      div\n      0xff\n      and\n        /* \"hardhat-tutorial/contracts/CryptoDevsDAO.sol\":4524:4557  proposal.voters[tokenId] == false */\n      iszero\n      iszero\n      eq\n        /* \"hardhat-tutorial/contracts/CryptoDevsDAO.sol\":4520:4651  if (proposal.voters[tokenId] == false) {... */\n      iszero\n      tag_153\n      jumpi\n        /* \"hardhat-tutorial/contracts/CryptoDevsDAO.sol\":4577:4587  numVotes++ */\n      dup3\n      dup1\n      tag_154\n      swap1\n      tag_110\n      jump\t// in\n    tag_154:\n      swap4\n      pop\n      pop\n        /* \"hardhat-tutorial/contracts/CryptoDevsDAO.sol\":4632:4636  true */\n      0x01\n        /* \"hardhat-tutorial/contracts/CryptoDevsDAO.sol\":4605:4613  proposal */\n      dup6\n        /* \"hardhat-tutorial/contracts/CryptoDevsDAO.sol\":4605:4620  proposal.voters */\n      0x05\n      add\n        /* \"hardhat-tutorial/contracts/CryptoDevsDAO.sol\":4605:4629  proposal.voters[tokenId] */\n      0x00\n        /* \"hardhat-tutorial/contracts/CryptoDevsDAO.sol\":4621:4628  tokenId */\n      dup4\n        /* \"hardhat-tutorial/contracts/CryptoDevsDAO.sol\":4605:4629  proposal.voters[tokenId] */\n      dup2\n      mstore\n      0x20\n      add\n      swap1\n      dup2\n      mstore\n      0x20\n      add\n      0x00\n      keccak256\n      0x00\n        /* \"hardhat-tutorial/contracts/CryptoDevsDAO.sol\":4605:4636  proposal.voters[tokenId] = true */\n      0x0100\n      exp\n      dup2\n      sload\n      dup2\n      0xff\n      mul\n      not\n      and\n      swap1\n      dup4\n      iszero\n      iszero\n      mul\n      or\n      swap1\n      sstore\n      pop\n        /* \"hardhat-tutorial/contracts/CryptoDevsDAO.sol\":4520:4651  if (proposal.voters[tokenId] == false) {... */\n    tag_153:\n        /* \"hardhat-tutorial/contracts/CryptoDevsDAO.sol\":4426:4661  {... */\n      pop\n        /* \"hardhat-tutorial/contracts/CryptoDevsDAO.sol\":4421:4424  i++ */\n      dup1\n      dup1\n      tag_155\n      swap1\n      tag_110\n      jump\t// in\n    tag_155:\n      swap2\n      pop\n      pop\n        /* \"hardhat-tutorial/contracts/CryptoDevsDAO.sol\":4380:4661  for (uint256 i = 0; i < voterNFTBalance; i++) {... */\n      jump(tag_144)\n    tag_145:\n      pop\n        /* \"hardhat-tutorial/contracts/CryptoDevsDAO.sol\":4690:4691  0 */\n      0x00\n        /* \"hardhat-tutorial/contracts/CryptoDevsDAO.sol\":4679:4687  numVotes */\n      dup2\n        /* \"hardhat-tutorial/contracts/CryptoDevsDAO.sol\":4679:4691  numVotes > 0 */\n      gt\n        /* \"hardhat-tutorial/contracts/CryptoDevsDAO.sol\":4671:4709  require(numVotes > 0, \"Already voted\") */\n      tag_156\n      jumpi\n      mload(0x40)\n      0x08c379a000000000000000000000000000000000000000000000000000000000\n      dup2\n      mstore\n      0x04\n      add\n      tag_157\n      swap1\n      tag_158\n      jump\t// in\n    tag_157:\n      mload(0x40)\n      dup1\n      swap2\n      sub\n      swap1\n      revert\n    tag_156:\n        /* \"hardhat-tutorial/contracts/CryptoDevsDAO.sol\":4731:4739  Vote.YES */\n      0x00\n        /* \"hardhat-tutorial/contracts/CryptoDevsDAO.sol\":4723:4739  vote == Vote.YES */\n      0x01\n      dup2\n      gt\n      iszero\n      tag_159\n      jumpi\n      tag_160\n      tag_161\n      jump\t// in\n    tag_160:\n    tag_159:\n        /* \"hardhat-tutorial/contracts/CryptoDevsDAO.sol\":4723:4727  vote */\n      dup6\n        /* \"hardhat-tutorial/contracts/CryptoDevsDAO.sol\":4723:4739  vote == Vote.YES */\n      0x01\n      dup2\n      gt\n      iszero\n      tag_162\n      jumpi\n      tag_163\n      tag_161\n      jump\t// in\n    tag_163:\n    tag_162:\n      eq\n        /* \"hardhat-tutorial/contracts/CryptoDevsDAO.sol\":4719:4855  if (vote == Vote.YES) {... */\n      iszero\n      tag_164\n      jumpi\n        /* \"hardhat-tutorial/contracts/CryptoDevsDAO.sol\":4776:4784  numVotes */\n      dup1\n        /* \"hardhat-tutorial/contracts/CryptoDevsDAO.sol\":4755:4763  proposal */\n      dup4\n        /* \"hardhat-tutorial/contracts/CryptoDevsDAO.sol\":4755:4772  proposal.yesVotes */\n      0x02\n      add\n      0x00\n        /* \"hardhat-tutorial/contracts/CryptoDevsDAO.sol\":4755:4784  proposal.yesVotes += numVotes */\n      dup3\n      dup3\n      sload\n      tag_165\n      swap2\n      swap1\n      tag_108\n      jump\t// in\n    tag_165:\n      swap3\n      pop\n      pop\n      dup2\n      swap1\n      sstore\n      pop\n        /* \"hardhat-tutorial/contracts/CryptoDevsDAO.sol\":4719:4855  if (vote == Vote.YES) {... */\n      jump(tag_166)\n    tag_164:\n        /* \"hardhat-tutorial/contracts/CryptoDevsDAO.sol\":4835:4843  numVotes */\n      dup1\n        /* \"hardhat-tutorial/contracts/CryptoDevsDAO.sol\":4815:4823  proposal */\n      dup4\n        /* \"hardhat-tutorial/contracts/CryptoDevsDAO.sol\":4815:4831  proposal.noVotes */\n      0x03\n      add\n      0x00\n        /* \"hardhat-tutorial/contracts/CryptoDevsDAO.sol\":4815:4843  proposal.noVotes += numVotes */\n      dup3\n      dup3\n      sload\n      tag_167\n      swap2\n      swap1\n      tag_108\n      jump\t// in\n    tag_167:\n      swap3\n      pop\n      pop\n      dup2\n      swap1\n      sstore\n      pop\n        /* \"hardhat-tutorial/contracts/CryptoDevsDAO.sol\":4719:4855  if (vote == Vote.YES) {... */\n    tag_166:\n        /* \"hardhat-tutorial/contracts/CryptoDevsDAO.sol\":4089:4862  {... */\n      pop\n      pop\n      pop\n        /* \"hardhat-tutorial/contracts/CryptoDevsDAO.sol\":2840:2841  _ */\n      pop\n        /* \"hardhat-tutorial/contracts/CryptoDevsDAO.sol\":3974:4862  function voteOnProposal(uint256 proposalIndex, Vote vote) external nftHolderOnly activeProposalOnly(proposalIndex) {... */\n      pop\n      pop\n      jump\t// out\n        /* \"@openzeppelin/contracts/access/Ownable.sol\":2081:2279  function transferOwnership(address newOwner) public virtual onlyOwner {... */\n    tag_58:\n        /* \"@openzeppelin/contracts/access/Ownable.sol\":1094:1107  _checkOwner() */\n      tag_169\n        /* \"@openzeppelin/contracts/access/Ownable.sol\":1094:1105  _checkOwner */\n      tag_115\n        /* \"@openzeppelin/contracts/access/Ownable.sol\":1094:1107  _checkOwner() */\n      jump\t// in\n    tag_169:\n        /* \"@openzeppelin/contracts/access/Ownable.sol\":2189:2190  0 */\n      0x00\n        /* \"@openzeppelin/contracts/access/Ownable.sol\":2169:2191  newOwner != address(0) */\n      0xffffffffffffffffffffffffffffffffffffffff\n      and\n        /* \"@openzeppelin/contracts/access/Ownable.sol\":2169:2177  newOwner */\n      dup2\n        /* \"@openzeppelin/contracts/access/Ownable.sol\":2169:2191  newOwner != address(0) */\n      0xffffffffffffffffffffffffffffffffffffffff\n      and\n      eq\n      iszero\n        /* \"@openzeppelin/contracts/access/Ownable.sol\":2161:2234  require(newOwner != address(0), \"Ownable: new owner is the zero address\") */\n      tag_171\n      jumpi\n      mload(0x40)\n      0x08c379a000000000000000000000000000000000000000000000000000000000\n      dup2\n      mstore\n      0x04\n      add\n      tag_172\n      swap1\n      tag_173\n      jump\t// in\n    tag_172:\n      mload(0x40)\n      dup1\n      swap2\n      sub\n      swap1\n      revert\n    tag_171:\n        /* \"@openzeppelin/contracts/access/Ownable.sol\":2244:2272  _transferOwnership(newOwner) */\n      tag_174\n        /* \"@openzeppelin/contracts/access/Ownable.sol\":2263:2271  newOwner */\n      dup2\n        /* \"@openzeppelin/contracts/access/Ownable.sol\":2244:2262  _transferOwnership */\n      tag_118\n        /* \"@openzeppelin/contracts/access/Ownable.sol\":2244:2272  _transferOwnership(newOwner) */\n      jump\t// in\n    tag_174:\n        /* \"@openzeppelin/contracts/access/Ownable.sol\":2081:2279  function transferOwnership(address newOwner) public virtual onlyOwner {... */\n      pop\n      jump\t// out\n        /* \"@openzeppelin/contracts/access/Ownable.sol\":1359:1489  function _checkOwner() internal view virtual {... */\n    tag_115:\n        /* \"@openzeppelin/contracts/access/Ownable.sol\":1433:1445  _msgSender() */\n      tag_176\n        /* \"@openzeppelin/contracts/access/Ownable.sol\":1433:1443  _msgSender */\n      tag_177\n        /* \"@openzeppelin/contracts/access/Ownable.sol\":1433:1445  _msgSender() */\n      jump\t// in\n    tag_176:\n        /* \"@openzeppelin/contracts/access/Ownable.sol\":1422:1445  owner() == _msgSender() */\n      0xffffffffffffffffffffffffffffffffffffffff\n      and\n        /* \"@openzeppelin/contracts/access/Ownable.sol\":1422:1429  owner() */\n      tag_178\n        /* \"@openzeppelin/contracts/access/Ownable.sol\":1422:1427  owner */\n      tag_46\n        /* \"@openzeppelin/contracts/access/Ownable.sol\":1422:1429  owner() */\n      jump\t// in\n    tag_178:\n        /* \"@openzeppelin/contracts/access/Ownable.sol\":1422:1445  owner() == _msgSender() */\n      0xffffffffffffffffffffffffffffffffffffffff\n      and\n      eq\n        /* \"@openzeppelin/contracts/access/Ownable.sol\":1414:1482  require(owner() == _msgSender(), \"Ownable: caller is not the owner\") */\n      tag_179\n      jumpi\n      mload(0x40)\n      0x08c379a000000000000000000000000000000000000000000000000000000000\n      dup2\n      mstore\n      0x04\n      add\n      tag_180\n      swap1\n      tag_181\n      jump\t// in\n    tag_180:\n      mload(0x40)\n      dup1\n      swap2\n      sub\n      swap1\n      revert\n    tag_179:\n        /* \"@openzeppelin/contracts/access/Ownable.sol\":1359:1489  function _checkOwner() internal view virtual {... */\n      jump\t// out\n        /* \"@openzeppelin/contracts/access/Ownable.sol\":2433:2620  function _transferOwnership(address newOwner) internal virtual {... */\n    tag_118:\n        /* \"@openzeppelin/contracts/access/Ownable.sol\":2506:2522  address oldOwner */\n      0x00\n        /* \"@openzeppelin/contracts/access/Ownable.sol\":2525:2531  _owner */\n      dup1\n      0x00\n      swap1\n      sload\n      swap1\n      0x0100\n      exp\n      swap1\n      div\n      0xffffffffffffffffffffffffffffffffffffffff\n      and\n        /* \"@openzeppelin/contracts/access/Ownable.sol\":2506:2531  address oldOwner = _owner */\n      swap1\n      pop\n        /* \"@openzeppelin/contracts/access/Ownable.sol\":2550:2558  newOwner */\n      dup2\n        /* \"@openzeppelin/contracts/access/Ownable.sol\":2541:2547  _owner */\n      0x00\n      dup1\n        /* \"@openzeppelin/contracts/access/Ownable.sol\":2541:2558  _owner = newOwner */\n      0x0100\n      exp\n      dup2\n      sload\n      dup2\n      0xffffffffffffffffffffffffffffffffffffffff\n      mul\n      not\n      and\n      swap1\n      dup4\n      0xffffffffffffffffffffffffffffffffffffffff\n      and\n      mul\n      or\n      swap1\n      sstore\n      pop\n        /* \"@openzeppelin/contracts/access/Ownable.sol\":2604:2612  newOwner */\n      dup2\n        /* \"@openzeppelin/contracts/access/Ownable.sol\":2573:2613  OwnershipTransferred(oldOwner, newOwner) */\n      0xffffffffffffffffffffffffffffffffffffffff\n      and\n        /* \"@openzeppelin/contracts/access/Ownable.sol\":2594:2602  oldOwner */\n      dup2\n        /* \"@openzeppelin/contracts/access/Ownable.sol\":2573:2613  OwnershipTransferred(oldOwner, newOwner) */\n      0xffffffffffffffffffffffffffffffffffffffff\n      and\n      0x8be0079c531659141344cd1fd0a4f28419497f9722a3daafe3b4186f6b6457e0\n      mload(0x40)\n      mload(0x40)\n      dup1\n      swap2\n      sub\n      swap1\n      log3\n        /* \"@openzeppelin/contracts/access/Ownable.sol\":2496:2620  {... */\n      pop\n        /* \"@openzeppelin/contracts/access/Ownable.sol\":2433:2620  function _transferOwnership(address newOwner) internal virtual {... */\n      pop\n      jump\t// out\n        /* \"@openzeppelin/contracts/utils/Context.sol\":640:736  function _msgSender() internal view virtual returns (address) {... */\n    tag_177:\n        /* \"@openzeppelin/contracts/utils/Context.sol\":693:700  address */\n      0x00\n        /* \"@openzeppelin/contracts/utils/Context.sol\":719:729  msg.sender */\n      caller\n        /* \"@openzeppelin/contracts/utils/Context.sol\":712:729  return msg.sender */\n      swap1\n      pop\n        /* \"@openzeppelin/contracts/utils/Context.sol\":640:736  function _msgSender() internal view virtual returns (address) {... */\n      swap1\n      jump\t// out\n        /* \"#utility.yul\":88:205   */\n    tag_185:\n        /* \"#utility.yul\":197:198   */\n      0x00\n        /* \"#utility.yul\":194:195   */\n      dup1\n        /* \"#utility.yul\":187:199   */\n      revert\n        /* \"#utility.yul\":334:411   */\n    tag_187:\n        /* \"#utility.yul\":371:378   */\n      0x00\n        /* \"#utility.yul\":400:405   */\n      dup2\n        /* \"#utility.yul\":389:405   */\n      swap1\n      pop\n        /* \"#utility.yul\":334:411   */\n      swap2\n      swap1\n      pop\n      jump\t// out\n        /* \"#utility.yul\":417:539   */\n    tag_188:\n        /* \"#utility.yul\":490:514   */\n      tag_229\n        /* \"#utility.yul\":508:513   */\n      dup2\n        /* \"#utility.yul\":490:514   */\n      tag_187\n      jump\t// in\n    tag_229:\n        /* \"#utility.yul\":483:488   */\n      dup2\n        /* \"#utility.yul\":480:515   */\n      eq\n        /* \"#utility.yul\":470:533   */\n      tag_230\n      jumpi\n        /* \"#utility.yul\":529:530   */\n      0x00\n        /* \"#utility.yul\":526:527   */\n      dup1\n        /* \"#utility.yul\":519:531   */\n      revert\n        /* \"#utility.yul\":470:533   */\n    tag_230:\n        /* \"#utility.yul\":417:539   */\n      pop\n      jump\t// out\n        /* \"#utility.yul\":545:684   */\n    tag_189:\n        /* \"#utility.yul\":591:596   */\n      0x00\n        /* \"#utility.yul\":629:635   */\n      dup2\n        /* \"#utility.yul\":616:636   */\n      calldataload\n        /* \"#utility.yul\":607:636   */\n      swap1\n      pop\n        /* \"#utility.yul\":645:678   */\n      tag_232\n        /* \"#utility.yul\":672:677   */\n      dup2\n        /* \"#utility.yul\":645:678   */\n      tag_188\n      jump\t// in\n    tag_232:\n        /* \"#utility.yul\":545:684   */\n      swap3\n      swap2\n      pop\n      pop\n      jump\t// out\n        /* \"#utility.yul\":690:1019   */\n    tag_20:\n        /* \"#utility.yul\":749:755   */\n      0x00\n        /* \"#utility.yul\":798:800   */\n      0x20\n        /* \"#utility.yul\":786:795   */\n      dup3\n        /* \"#utility.yul\":777:784   */\n      dup5\n        /* \"#utility.yul\":773:796   */\n      sub\n        /* \"#utility.yul\":769:801   */\n      slt\n        /* \"#utility.yul\":766:885   */\n      iszero\n      tag_234\n      jumpi\n        /* \"#utility.yul\":804:883   */\n      tag_235\n      tag_185\n      jump\t// in\n    tag_235:\n        /* \"#utility.yul\":766:885   */\n    tag_234:\n        /* \"#utility.yul\":924:925   */\n      0x00\n        /* \"#utility.yul\":949:1002   */\n      tag_236\n        /* \"#utility.yul\":994:1001   */\n      dup5\n        /* \"#utility.yul\":985:991   */\n      dup3\n        /* \"#utility.yul\":974:983   */\n      dup6\n        /* \"#utility.yul\":970:992   */\n      add\n        /* \"#utility.yul\":949:1002   */\n      tag_189\n      jump\t// in\n    tag_236:\n        /* \"#utility.yul\":939:1002   */\n      swap2\n      pop\n        /* \"#utility.yul\":895:1012   */\n      pop\n        /* \"#utility.yul\":690:1019   */\n      swap3\n      swap2\n      pop\n      pop\n      jump\t// out\n        /* \"#utility.yul\":1025:1143   */\n    tag_190:\n        /* \"#utility.yul\":1112:1136   */\n      tag_238\n        /* \"#utility.yul\":1130:1135   */\n      dup2\n        /* \"#utility.yul\":1112:1136   */\n      tag_187\n      jump\t// in\n    tag_238:\n        /* \"#utility.yul\":1107:1110   */\n      dup3\n        /* \"#utility.yul\":1100:1137   */\n      mstore\n        /* \"#utility.yul\":1025:1143   */\n      pop\n      pop\n      jump\t// out\n        /* \"#utility.yul\":1149:1239   */\n    tag_191:\n        /* \"#utility.yul\":1183:1190   */\n      0x00\n        /* \"#utility.yul\":1226:1231   */\n      dup2\n        /* \"#utility.yul\":1219:1232   */\n      iszero\n        /* \"#utility.yul\":1212:1233   */\n      iszero\n        /* \"#utility.yul\":1201:1233   */\n      swap1\n      pop\n        /* \"#utility.yul\":1149:1239   */\n      swap2\n      swap1\n      pop\n      jump\t// out\n        /* \"#utility.yul\":1245:1354   */\n    tag_192:\n        /* \"#utility.yul\":1326:1347   */\n      tag_241\n        /* \"#utility.yul\":1341:1346   */\n      dup2\n        /* \"#utility.yul\":1326:1347   */\n      tag_191\n      jump\t// in\n    tag_241:\n        /* \"#utility.yul\":1321:1324   */\n      dup3\n        /* \"#utility.yul\":1314:1348   */\n      mstore\n        /* \"#utility.yul\":1245:1354   */\n      pop\n      pop\n      jump\t// out\n        /* \"#utility.yul\":1360:2012   */\n    tag_23:\n        /* \"#utility.yul\":1559:1563   */\n      0x00\n        /* \"#utility.yul\":1597:1600   */\n      0xa0\n        /* \"#utility.yul\":1586:1595   */\n      dup3\n        /* \"#utility.yul\":1582:1601   */\n      add\n        /* \"#utility.yul\":1574:1601   */\n      swap1\n      pop\n        /* \"#utility.yul\":1611:1682   */\n      tag_243\n        /* \"#utility.yul\":1679:1680   */\n      0x00\n        /* \"#utility.yul\":1668:1677   */\n      dup4\n        /* \"#utility.yul\":1664:1681   */\n      add\n        /* \"#utility.yul\":1655:1661   */\n      dup9\n        /* \"#utility.yul\":1611:1682   */\n      tag_190\n      jump\t// in\n    tag_243:\n        /* \"#utility.yul\":1692:1764   */\n      tag_244\n        /* \"#utility.yul\":1760:1762   */\n      0x20\n        /* \"#utility.yul\":1749:1758   */\n      dup4\n        /* \"#utility.yul\":1745:1763   */\n      add\n        /* \"#utility.yul\":1736:1742   */\n      dup8\n        /* \"#utility.yul\":1692:1764   */\n      tag_190\n      jump\t// in\n    tag_244:\n        /* \"#utility.yul\":1774:1846   */\n      tag_245\n        /* \"#utility.yul\":1842:1844   */\n      0x40\n        /* \"#utility.yul\":1831:1840   */\n      dup4\n        /* \"#utility.yul\":1827:1845   */\n      add\n        /* \"#utility.yul\":1818:1824   */\n      dup7\n        /* \"#utility.yul\":1774:1846   */\n      tag_190\n      jump\t// in\n    tag_245:\n        /* \"#utility.yul\":1856:1928   */\n      tag_246\n        /* \"#utility.yul\":1924:1926   */\n      0x60\n        /* \"#utility.yul\":1913:1922   */\n      dup4\n        /* \"#utility.yul\":1909:1927   */\n      add\n        /* \"#utility.yul\":1900:1906   */\n      dup6\n        /* \"#utility.yul\":1856:1928   */\n      tag_190\n      jump\t// in\n    tag_246:\n        /* \"#utility.yul\":1938:2005   */\n      tag_247\n        /* \"#utility.yul\":2000:2003   */\n      0x80\n        /* \"#utility.yul\":1989:1998   */\n      dup4\n        /* \"#utility.yul\":1985:2004   */\n      add\n        /* \"#utility.yul\":1976:1982   */\n      dup5\n        /* \"#utility.yul\":1938:2005   */\n      tag_192\n      jump\t// in\n    tag_247:\n        /* \"#utility.yul\":1360:2012   */\n      swap7\n      swap6\n      pop\n      pop\n      pop\n      pop\n      pop\n      pop\n      jump\t// out\n        /* \"#utility.yul\":2018:2240   */\n    tag_32:\n        /* \"#utility.yul\":2111:2115   */\n      0x00\n        /* \"#utility.yul\":2149:2151   */\n      0x20\n        /* \"#utility.yul\":2138:2147   */\n      dup3\n        /* \"#utility.yul\":2134:2152   */\n      add\n        /* \"#utility.yul\":2126:2152   */\n      swap1\n      pop\n        /* \"#utility.yul\":2162:2233   */\n      tag_249\n        /* \"#utility.yul\":2230:2231   */\n      0x00\n        /* \"#utility.yul\":2219:2228   */\n      dup4\n        /* \"#utility.yul\":2215:2232   */\n      add\n        /* \"#utility.yul\":2206:2212   */\n      dup5\n        /* \"#utility.yul\":2162:2233   */\n      tag_190\n      jump\t// in\n    tag_249:\n        /* \"#utility.yul\":2018:2240   */\n      swap3\n      swap2\n      pop\n      pop\n      jump\t// out\n        /* \"#utility.yul\":2246:2372   */\n    tag_193:\n        /* \"#utility.yul\":2283:2290   */\n      0x00\n        /* \"#utility.yul\":2323:2365   */\n      0xffffffffffffffffffffffffffffffffffffffff\n        /* \"#utility.yul\":2316:2321   */\n      dup3\n        /* \"#utility.yul\":2312:2366   */\n      and\n        /* \"#utility.yul\":2301:2366   */\n      swap1\n      pop\n        /* \"#utility.yul\":2246:2372   */\n      swap2\n      swap1\n      pop\n      jump\t// out\n        /* \"#utility.yul\":2378:2474   */\n    tag_194:\n        /* \"#utility.yul\":2415:2422   */\n      0x00\n        /* \"#utility.yul\":2444:2468   */\n      tag_252\n        /* \"#utility.yul\":2462:2467   */\n      dup3\n        /* \"#utility.yul\":2444:2468   */\n      tag_193\n      jump\t// in\n    tag_252:\n        /* \"#utility.yul\":2433:2468   */\n      swap1\n      pop\n        /* \"#utility.yul\":2378:2474   */\n      swap2\n      swap1\n      pop\n      jump\t// out\n        /* \"#utility.yul\":2480:2598   */\n    tag_195:\n        /* \"#utility.yul\":2567:2591   */\n      tag_254\n        /* \"#utility.yul\":2585:2590   */\n      dup2\n        /* \"#utility.yul\":2567:2591   */\n      tag_194\n      jump\t// in\n    tag_254:\n        /* \"#utility.yul\":2562:2565   */\n      dup3\n        /* \"#utility.yul\":2555:2592   */\n      mstore\n        /* \"#utility.yul\":2480:2598   */\n      pop\n      pop\n      jump\t// out\n        /* \"#utility.yul\":2604:2826   */\n    tag_48:\n        /* \"#utility.yul\":2697:2701   */\n      0x00\n        /* \"#utility.yul\":2735:2737   */\n      0x20\n        /* \"#utility.yul\":2724:2733   */\n      dup3\n        /* \"#utility.yul\":2720:2738   */\n      add\n        /* \"#utility.yul\":2712:2738   */\n      swap1\n      pop\n        /* \"#utility.yul\":2748:2819   */\n      tag_256\n        /* \"#utility.yul\":2816:2817   */\n      0x00\n        /* \"#utility.yul\":2805:2814   */\n      dup4\n        /* \"#utility.yul\":2801:2818   */\n      add\n        /* \"#utility.yul\":2792:2798   */\n      dup5\n        /* \"#utility.yul\":2748:2819   */\n      tag_195\n      jump\t// in\n    tag_256:\n        /* \"#utility.yul\":2604:2826   */\n      swap3\n      swap2\n      pop\n      pop\n      jump\t// out\n        /* \"#utility.yul\":2832:2939   */\n    tag_196:\n        /* \"#utility.yul\":2913:2914   */\n      0x02\n        /* \"#utility.yul\":2906:2911   */\n      dup2\n        /* \"#utility.yul\":2903:2915   */\n      lt\n        /* \"#utility.yul\":2893:2933   */\n      tag_258\n      jumpi\n        /* \"#utility.yul\":2929:2930   */\n      0x00\n        /* \"#utility.yul\":2926:2927   */\n      dup1\n        /* \"#utility.yul\":2919:2931   */\n      revert\n        /* \"#utility.yul\":2893:2933   */\n    tag_258:\n        /* \"#utility.yul\":2832:2939   */\n      pop\n      jump\t// out\n        /* \"#utility.yul\":2945:3100   */\n    tag_197:\n        /* \"#utility.yul\":2999:3004   */\n      0x00\n        /* \"#utility.yul\":3037:3043   */\n      dup2\n        /* \"#utility.yul\":3024:3044   */\n      calldataload\n        /* \"#utility.yul\":3015:3044   */\n      swap1\n      pop\n        /* \"#utility.yul\":3053:3094   */\n      tag_260\n        /* \"#utility.yul\":3088:3093   */\n      dup2\n        /* \"#utility.yul\":3053:3094   */\n      tag_196\n      jump\t// in\n    tag_260:\n        /* \"#utility.yul\":2945:3100   */\n      swap3\n      swap2\n      pop\n      pop\n      jump\t// out\n        /* \"#utility.yul\":3106:3596   */\n    tag_52:\n        /* \"#utility.yul\":3182:3188   */\n      0x00\n        /* \"#utility.yul\":3190:3196   */\n      dup1\n        /* \"#utility.yul\":3239:3241   */\n      0x40\n        /* \"#utility.yul\":3227:3236   */\n      dup4\n        /* \"#utility.yul\":3218:3225   */\n      dup6\n        /* \"#utility.yul\":3214:3237   */\n      sub\n        /* \"#utility.yul\":3210:3242   */\n      slt\n        /* \"#utility.yul\":3207:3326   */\n      iszero\n      tag_262\n      jumpi\n        /* \"#utility.yul\":3245:3324   */\n      tag_263\n      tag_185\n      jump\t// in\n    tag_263:\n        /* \"#utility.yul\":3207:3326   */\n    tag_262:\n        /* \"#utility.yul\":3365:3366   */\n      0x00\n        /* \"#utility.yul\":3390:3443   */\n      tag_264\n        /* \"#utility.yul\":3435:3442   */\n      dup6\n        /* \"#utility.yul\":3426:3432   */\n      dup3\n        /* \"#utility.yul\":3415:3424   */\n      dup7\n        /* \"#utility.yul\":3411:3433   */\n      add\n        /* \"#utility.yul\":3390:3443   */\n      tag_189\n      jump\t// in\n    tag_264:\n        /* \"#utility.yul\":3380:3443   */\n      swap3\n      pop\n        /* \"#utility.yul\":3336:3453   */\n      pop\n        /* \"#utility.yul\":3492:3494   */\n      0x20\n        /* \"#utility.yul\":3518:3579   */\n      tag_265\n        /* \"#utility.yul\":3571:3578   */\n      dup6\n        /* \"#utility.yul\":3562:3568   */\n      dup3\n        /* \"#utility.yul\":3551:3560   */\n      dup7\n        /* \"#utility.yul\":3547:3569   */\n      add\n        /* \"#utility.yul\":3518:3579   */\n      tag_197\n      jump\t// in\n    tag_265:\n        /* \"#utility.yul\":3508:3579   */\n      swap2\n      pop\n        /* \"#utility.yul\":3463:3589   */\n      pop\n        /* \"#utility.yul\":3106:3596   */\n      swap3\n      pop\n      swap3\n      swap1\n      pop\n      jump\t// out\n        /* \"#utility.yul\":3602:3724   */\n    tag_198:\n        /* \"#utility.yul\":3675:3699   */\n      tag_267\n        /* \"#utility.yul\":3693:3698   */\n      dup2\n        /* \"#utility.yul\":3675:3699   */\n      tag_194\n      jump\t// in\n    tag_267:\n        /* \"#utility.yul\":3668:3673   */\n      dup2\n        /* \"#utility.yul\":3665:3700   */\n      eq\n        /* \"#utility.yul\":3655:3718   */\n      tag_268\n      jumpi\n        /* \"#utility.yul\":3714:3715   */\n      0x00\n        /* \"#utility.yul\":3711:3712   */\n      dup1\n        /* \"#utility.yul\":3704:3716   */\n      revert\n        /* \"#utility.yul\":3655:3718   */\n    tag_268:\n        /* \"#utility.yul\":3602:3724   */\n      pop\n      jump\t// out\n        /* \"#utility.yul\":3730:3869   */\n    tag_199:\n        /* \"#utility.yul\":3776:3781   */\n      0x00\n        /* \"#utility.yul\":3814:3820   */\n      dup2\n        /* \"#utility.yul\":3801:3821   */\n      calldataload\n        /* \"#utility.yul\":3792:3821   */\n      swap1\n      pop\n        /* \"#utility.yul\":3830:3863   */\n      tag_270\n        /* \"#utility.yul\":3857:3862   */\n      dup2\n        /* \"#utility.yul\":3830:3863   */\n      tag_198\n      jump\t// in\n    tag_270:\n        /* \"#utility.yul\":3730:3869   */\n      swap3\n      swap2\n      pop\n      pop\n      jump\t// out\n        /* \"#utility.yul\":3875:4204   */\n    tag_57:\n        /* \"#utility.yul\":3934:3940   */\n      0x00\n        /* \"#utility.yul\":3983:3985   */\n      0x20\n        /* \"#utility.yul\":3971:3980   */\n      dup3\n        /* \"#utility.yul\":3962:3969   */\n      dup5\n        /* \"#utility.yul\":3958:3981   */\n      sub\n        /* \"#utility.yul\":3954:3986   */\n      slt\n        /* \"#utility.yul\":3951:4070   */\n      iszero\n      tag_272\n      jumpi\n        /* \"#utility.yul\":3989:4068   */\n      tag_273\n      tag_185\n      jump\t// in\n    tag_273:\n        /* \"#utility.yul\":3951:4070   */\n    tag_272:\n        /* \"#utility.yul\":4109:4110   */\n      0x00\n        /* \"#utility.yul\":4134:4187   */\n      tag_274\n        /* \"#utility.yul\":4179:4186   */\n      dup5\n        /* \"#utility.yul\":4170:4176   */\n      dup3\n        /* \"#utility.yul\":4159:4168   */\n      dup6\n        /* \"#utility.yul\":4155:4177   */\n      add\n        /* \"#utility.yul\":4134:4187   */\n      tag_199\n      jump\t// in\n    tag_274:\n        /* \"#utility.yul\":4124:4187   */\n      swap2\n      pop\n        /* \"#utility.yul\":4080:4197   */\n      pop\n        /* \"#utility.yul\":3875:4204   */\n      swap3\n      swap2\n      pop\n      pop\n      jump\t// out\n        /* \"#utility.yul\":4210:4353   */\n    tag_200:\n        /* \"#utility.yul\":4267:4272   */\n      0x00\n        /* \"#utility.yul\":4298:4304   */\n      dup2\n        /* \"#utility.yul\":4292:4305   */\n      mload\n        /* \"#utility.yul\":4283:4305   */\n      swap1\n      pop\n        /* \"#utility.yul\":4314:4347   */\n      tag_276\n        /* \"#utility.yul\":4341:4346   */\n      dup2\n        /* \"#utility.yul\":4314:4347   */\n      tag_188\n      jump\t// in\n    tag_276:\n        /* \"#utility.yul\":4210:4353   */\n      swap3\n      swap2\n      pop\n      pop\n      jump\t// out\n        /* \"#utility.yul\":4359:4710   */\n    tag_65:\n        /* \"#utility.yul\":4429:4435   */\n      0x00\n        /* \"#utility.yul\":4478:4480   */\n      0x20\n        /* \"#utility.yul\":4466:4475   */\n      dup3\n        /* \"#utility.yul\":4457:4464   */\n      dup5\n        /* \"#utility.yul\":4453:4476   */\n      sub\n        /* \"#utility.yul\":4449:4481   */\n      slt\n        /* \"#utility.yul\":4446:4565   */\n      iszero\n      tag_278\n      jumpi\n        /* \"#utility.yul\":4484:4563   */\n      tag_279\n      tag_185\n      jump\t// in\n    tag_279:\n        /* \"#utility.yul\":4446:4565   */\n    tag_278:\n        /* \"#utility.yul\":4604:4605   */\n      0x00\n        /* \"#utility.yul\":4629:4693   */\n      tag_280\n        /* \"#utility.yul\":4685:4692   */\n      dup5\n        /* \"#utility.yul\":4676:4682   */\n      dup3\n        /* \"#utility.yul\":4665:4674   */\n      dup6\n        /* \"#utility.yul\":4661:4683   */\n      add\n        /* \"#utility.yul\":4629:4693   */\n      tag_200\n      jump\t// in\n    tag_280:\n        /* \"#utility.yul\":4619:4693   */\n      swap2\n      pop\n        /* \"#utility.yul\":4575:4703   */\n      pop\n        /* \"#utility.yul\":4359:4710   */\n      swap3\n      swap2\n      pop\n      pop\n      jump\t// out\n        /* \"#utility.yul\":4716:4885   */\n    tag_201:\n        /* \"#utility.yul\":4800:4811   */\n      0x00\n        /* \"#utility.yul\":4834:4840   */\n      dup3\n        /* \"#utility.yul\":4829:4832   */\n      dup3\n        /* \"#utility.yul\":4822:4841   */\n      mstore\n        /* \"#utility.yul\":4874:4878   */\n      0x20\n        /* \"#utility.yul\":4869:4872   */\n      dup3\n        /* \"#utility.yul\":4865:4879   */\n      add\n        /* \"#utility.yul\":4850:4879   */\n      swap1\n      pop\n        /* \"#utility.yul\":4716:4885   */\n      swap3\n      swap2\n      pop\n      pop\n      jump\t// out\n        /* \"#utility.yul\":4891:5057   */\n    tag_202:\n        /* \"#utility.yul\":5031:5049   */\n      0x4e6f7420612044414f204d656d62657200000000000000000000000000000000\n        /* \"#utility.yul\":5027:5028   */\n      0x00\n        /* \"#utility.yul\":5019:5025   */\n      dup3\n        /* \"#utility.yul\":5015:5029   */\n      add\n        /* \"#utility.yul\":5008:5050   */\n      mstore\n        /* \"#utility.yul\":4891:5057   */\n      pop\n      jump\t// out\n        /* \"#utility.yul\":5063:5429   */\n    tag_203:\n        /* \"#utility.yul\":5205:5208   */\n      0x00\n        /* \"#utility.yul\":5226:5293   */\n      tag_284\n        /* \"#utility.yul\":5290:5292   */\n      0x10\n        /* \"#utility.yul\":5285:5288   */\n      dup4\n        /* \"#utility.yul\":5226:5293   */\n      tag_201\n      jump\t// in\n    tag_284:\n        /* \"#utility.yul\":5219:5293   */\n      swap2\n      pop\n        /* \"#utility.yul\":5302:5395   */\n      tag_285\n        /* \"#utility.yul\":5391:5394   */\n      dup3\n        /* \"#utility.yul\":5302:5395   */\n      tag_202\n      jump\t// in\n    tag_285:\n        /* \"#utility.yul\":5420:5422   */\n      0x20\n        /* \"#utility.yul\":5415:5418   */\n      dup3\n        /* \"#utility.yul\":5411:5423   */\n      add\n        /* \"#utility.yul\":5404:5423   */\n      swap1\n      pop\n        /* \"#utility.yul\":5063:5429   */\n      swap2\n      swap1\n      pop\n      jump\t// out\n        /* \"#utility.yul\":5435:5854   */\n    tag_68:\n        /* \"#utility.yul\":5601:5605   */\n      0x00\n        /* \"#utility.yul\":5639:5641   */\n      0x20\n        /* \"#utility.yul\":5628:5637   */\n      dup3\n        /* \"#utility.yul\":5624:5642   */\n      add\n        /* \"#utility.yul\":5616:5642   */\n      swap1\n      pop\n        /* \"#utility.yul\":5688:5697   */\n      dup2\n        /* \"#utility.yul\":5682:5686   */\n      dup2\n        /* \"#utility.yul\":5678:5698   */\n      sub\n        /* \"#utility.yul\":5674:5675   */\n      0x00\n        /* \"#utility.yul\":5663:5672   */\n      dup4\n        /* \"#utility.yul\":5659:5676   */\n      add\n        /* \"#utility.yul\":5652:5699   */\n      mstore\n        /* \"#utility.yul\":5716:5847   */\n      tag_287\n        /* \"#utility.yul\":5842:5846   */\n      dup2\n        /* \"#utility.yul\":5716:5847   */\n      tag_203\n      jump\t// in\n    tag_287:\n        /* \"#utility.yul\":5708:5847   */\n      swap1\n      pop\n        /* \"#utility.yul\":5435:5854   */\n      swap2\n      swap1\n      pop\n      jump\t// out\n        /* \"#utility.yul\":5860:6031   */\n    tag_204:\n        /* \"#utility.yul\":6000:6023   */\n      0x446561646c696e65206e6f742065786365656465640000000000000000000000\n        /* \"#utility.yul\":5996:5997   */\n      0x00\n        /* \"#utility.yul\":5988:5994   */\n      dup3\n        /* \"#utility.yul\":5984:5998   */\n      add\n        /* \"#utility.yul\":5977:6024   */\n      mstore\n        /* \"#utility.yul\":5860:6031   */\n      pop\n      jump\t// out\n        /* \"#utility.yul\":6037:6403   */\n    tag_205:\n        /* \"#utility.yul\":6179:6182   */\n      0x00\n        /* \"#utility.yul\":6200:6267   */\n      tag_290\n        /* \"#utility.yul\":6264:6266   */\n      0x15\n        /* \"#utility.yul\":6259:6262   */\n      dup4\n        /* \"#utility.yul\":6200:6267   */\n      tag_201\n      jump\t// in\n    tag_290:\n        /* \"#utility.yul\":6193:6267   */\n      swap2\n      pop\n        /* \"#utility.yul\":6276:6369   */\n      tag_291\n        /* \"#utility.yul\":6365:6368   */\n      dup3\n        /* \"#utility.yul\":6276:6369   */\n      tag_204\n      jump\t// in\n    tag_291:\n        /* \"#utility.yul\":6394:6396   */\n      0x20\n        /* \"#utility.yul\":6389:6392   */\n      dup3\n        /* \"#utility.yul\":6385:6397   */\n      add\n        /* \"#utility.yul\":6378:6397   */\n      swap1\n      pop\n        /* \"#utility.yul\":6037:6403   */\n      swap2\n      swap1\n      pop\n      jump\t// out\n        /* \"#utility.yul\":6409:6828   */\n    tag_72:\n        /* \"#utility.yul\":6575:6579   */\n      0x00\n        /* \"#utility.yul\":6613:6615   */\n      0x20\n        /* \"#utility.yul\":6602:6611   */\n      dup3\n        /* \"#utility.yul\":6598:6616   */\n      add\n        /* \"#utility.yul\":6590:6616   */\n      swap1\n      pop\n        /* \"#utility.yul\":6662:6671   */\n      dup2\n        /* \"#utility.yul\":6656:6660   */\n      dup2\n        /* \"#utility.yul\":6652:6672   */\n      sub\n        /* \"#utility.yul\":6648:6649   */\n      0x00\n        /* \"#utility.yul\":6637:6646   */\n      dup4\n        /* \"#utility.yul\":6633:6650   */\n      add\n        /* \"#utility.yul\":6626:6673   */\n      mstore\n        /* \"#utility.yul\":6690:6821   */\n      tag_293\n        /* \"#utility.yul\":6816:6820   */\n      dup2\n        /* \"#utility.yul\":6690:6821   */\n      tag_205\n      jump\t// in\n    tag_293:\n        /* \"#utility.yul\":6682:6821   */\n      swap1\n      pop\n        /* \"#utility.yul\":6409:6828   */\n      swap2\n      swap1\n      pop\n      jump\t// out\n        /* \"#utility.yul\":6834:7009   */\n    tag_206:\n        /* \"#utility.yul\":6974:7001   */\n      0x50726f706f73616c20616c726561647920657865637574656400000000000000\n        /* \"#utility.yul\":6970:6971   */\n      0x00\n        /* \"#utility.yul\":6962:6968   */\n      dup3\n        /* \"#utility.yul\":6958:6972   */\n      add\n        /* \"#utility.yul\":6951:7002   */\n      mstore\n        /* \"#utility.yul\":6834:7009   */\n      pop\n      jump\t// out\n        /* \"#utility.yul\":7015:7381   */\n    tag_207:\n        /* \"#utility.yul\":7157:7160   */\n      0x00\n        /* \"#utility.yul\":7178:7245   */\n      tag_296\n        /* \"#utility.yul\":7242:7244   */\n      0x19\n        /* \"#utility.yul\":7237:7240   */\n      dup4\n        /* \"#utility.yul\":7178:7245   */\n      tag_201\n      jump\t// in\n    tag_296:\n        /* \"#utility.yul\":7171:7245   */\n      swap2\n      pop\n        /* \"#utility.yul\":7254:7347   */\n      tag_297\n        /* \"#utility.yul\":7343:7346   */\n      dup3\n        /* \"#utility.yul\":7254:7347   */\n      tag_206\n      jump\t// in\n    tag_297:\n        /* \"#utility.yul\":7372:7374   */\n      0x20\n        /* \"#utility.yul\":7367:7370   */\n      dup3\n        /* \"#utility.yul\":7363:7375   */\n      add\n        /* \"#utility.yul\":7356:7375   */\n      swap1\n      pop\n        /* \"#utility.yul\":7015:7381   */\n      swap2\n      swap1\n      pop\n      jump\t// out\n        /* \"#utility.yul\":7387:7806   */\n    tag_75:\n        /* \"#utility.yul\":7553:7557   */\n      0x00\n        /* \"#utility.yul\":7591:7593   */\n      0x20\n        /* \"#utility.yul\":7580:7589   */\n      dup3\n        /* \"#utility.yul\":7576:7594   */\n      add\n        /* \"#utility.yul\":7568:7594   */\n      swap1\n      pop\n        /* \"#utility.yul\":7640:7649   */\n      dup2\n        /* \"#utility.yul\":7634:7638   */\n      dup2\n        /* \"#utility.yul\":7630:7650   */\n      sub\n        /* \"#utility.yul\":7626:7627   */\n      0x00\n        /* \"#utility.yul\":7615:7624   */\n      dup4\n        /* \"#utility.yul\":7611:7628   */\n      add\n        /* \"#utility.yul\":7604:7651   */\n      mstore\n        /* \"#utility.yul\":7668:7799   */\n      tag_299\n        /* \"#utility.yul\":7794:7798   */\n      dup2\n        /* \"#utility.yul\":7668:7799   */\n      tag_207\n      jump\t// in\n    tag_299:\n        /* \"#utility.yul\":7660:7799   */\n      swap1\n      pop\n        /* \"#utility.yul\":7387:7806   */\n      swap2\n      swap1\n      pop\n      jump\t// out\n        /* \"#utility.yul\":7812:7978   */\n    tag_208:\n        /* \"#utility.yul\":7952:7970   */\n      0x4e6f7420656e6f7567682046756e647300000000000000000000000000000000\n        /* \"#utility.yul\":7948:7949   */\n      0x00\n        /* \"#utility.yul\":7940:7946   */\n      dup3\n        /* \"#utility.yul\":7936:7950   */\n      add\n        /* \"#utility.yul\":7929:7971   */\n      mstore\n        /* \"#utility.yul\":7812:7978   */\n      pop\n      jump\t// out\n        /* \"#utility.yul\":7984:8350   */\n    tag_209:\n        /* \"#utility.yul\":8126:8129   */\n      0x00\n        /* \"#utility.yul\":8147:8214   */\n      tag_302\n        /* \"#utility.yul\":8211:8213   */\n      0x10\n        /* \"#utility.yul\":8206:8209   */\n      dup4\n        /* \"#utility.yul\":8147:8214   */\n      tag_201\n      jump\t// in\n    tag_302:\n        /* \"#utility.yul\":8140:8214   */\n      swap2\n      pop\n        /* \"#utility.yul\":8223:8316   */\n      tag_303\n        /* \"#utility.yul\":8312:8315   */\n      dup3\n        /* \"#utility.yul\":8223:8316   */\n      tag_208\n      jump\t// in\n    tag_303:\n        /* \"#utility.yul\":8341:8343   */\n      0x20\n        /* \"#utility.yul\":8336:8339   */\n      dup3\n        /* \"#utility.yul\":8332:8344   */\n      add\n        /* \"#utility.yul\":8325:8344   */\n      swap1\n      pop\n        /* \"#utility.yul\":7984:8350   */\n      swap2\n      swap1\n      pop\n      jump\t// out\n        /* \"#utility.yul\":8356:8775   */\n    tag_84:\n        /* \"#utility.yul\":8522:8526   */\n      0x00\n        /* \"#utility.yul\":8560:8562   */\n      0x20\n        /* \"#utility.yul\":8549:8558   */\n      dup3\n        /* \"#utility.yul\":8545:8563   */\n      add\n        /* \"#utility.yul\":8537:8563   */\n      swap1\n      pop\n        /* \"#utility.yul\":8609:8618   */\n      dup2\n        /* \"#utility.yul\":8603:8607   */\n      dup2\n        /* \"#utility.yul\":8599:8619   */\n      sub\n        /* \"#utility.yul\":8595:8596   */\n      0x00\n        /* \"#utility.yul\":8584:8593   */\n      dup4\n        /* \"#utility.yul\":8580:8597   */\n      add\n        /* \"#utility.yul\":8573:8620   */\n      mstore\n        /* \"#utility.yul\":8637:8768   */\n      tag_305\n        /* \"#utility.yul\":8763:8767   */\n      dup2\n        /* \"#utility.yul\":8637:8768   */\n      tag_209\n      jump\t// in\n    tag_305:\n        /* \"#utility.yul\":8629:8768   */\n      swap1\n      pop\n        /* \"#utility.yul\":8356:8775   */\n      swap2\n      swap1\n      pop\n      jump\t// out\n        /* \"#utility.yul\":8781:8897   */\n    tag_210:\n        /* \"#utility.yul\":8851:8872   */\n      tag_307\n        /* \"#utility.yul\":8866:8871   */\n      dup2\n        /* \"#utility.yul\":8851:8872   */\n      tag_191\n      jump\t// in\n    tag_307:\n        /* \"#utility.yul\":8844:8849   */\n      dup2\n        /* \"#utility.yul\":8841:8873   */\n      eq\n        /* \"#utility.yul\":8831:8891   */\n      tag_308\n      jumpi\n        /* \"#utility.yul\":8887:8888   */\n      0x00\n        /* \"#utility.yul\":8884:8885   */\n      dup1\n        /* \"#utility.yul\":8877:8889   */\n      revert\n        /* \"#utility.yul\":8831:8891   */\n    tag_308:\n        /* \"#utility.yul\":8781:8897   */\n      pop\n      jump\t// out\n        /* \"#utility.yul\":8903:9040   */\n    tag_211:\n        /* \"#utility.yul\":8957:8962   */\n      0x00\n        /* \"#utility.yul\":8988:8994   */\n      dup2\n        /* \"#utility.yul\":8982:8995   */\n      mload\n        /* \"#utility.yul\":8973:8995   */\n      swap1\n      pop\n        /* \"#utility.yul\":9004:9034   */\n      tag_310\n        /* \"#utility.yul\":9028:9033   */\n      dup2\n        /* \"#utility.yul\":9004:9034   */\n      tag_210\n      jump\t// in\n    tag_310:\n        /* \"#utility.yul\":8903:9040   */\n      swap3\n      swap2\n      pop\n      pop\n      jump\t// out\n        /* \"#utility.yul\":9046:9391   */\n    tag_103:\n        /* \"#utility.yul\":9113:9119   */\n      0x00\n        /* \"#utility.yul\":9162:9164   */\n      0x20\n        /* \"#utility.yul\":9150:9159   */\n      dup3\n        /* \"#utility.yul\":9141:9148   */\n      dup5\n        /* \"#utility.yul\":9137:9160   */\n      sub\n        /* \"#utility.yul\":9133:9165   */\n      slt\n        /* \"#utility.yul\":9130:9249   */\n      iszero\n      tag_312\n      jumpi\n        /* \"#utility.yul\":9168:9247   */\n      tag_313\n      tag_185\n      jump\t// in\n    tag_313:\n        /* \"#utility.yul\":9130:9249   */\n    tag_312:\n        /* \"#utility.yul\":9288:9289   */\n      0x00\n        /* \"#utility.yul\":9313:9374   */\n      tag_314\n        /* \"#utility.yul\":9366:9373   */\n      dup5\n        /* \"#utility.yul\":9357:9363   */\n      dup3\n        /* \"#utility.yul\":9346:9355   */\n      dup6\n        /* \"#utility.yul\":9342:9364   */\n      add\n        /* \"#utility.yul\":9313:9374   */\n      tag_211\n      jump\t// in\n    tag_314:\n        /* \"#utility.yul\":9303:9374   */\n      swap2\n      pop\n        /* \"#utility.yul\":9259:9384   */\n      pop\n        /* \"#utility.yul\":9046:9391   */\n      swap3\n      swap2\n      pop\n      pop\n      jump\t// out\n        /* \"#utility.yul\":9397:9563   */\n    tag_212:\n        /* \"#utility.yul\":9537:9555   */\n      0x4e4654206e6f7420666f722073616c6500000000000000000000000000000000\n        /* \"#utility.yul\":9533:9534   */\n      0x00\n        /* \"#utility.yul\":9525:9531   */\n      dup3\n        /* \"#utility.yul\":9521:9535   */\n      add\n        /* \"#utility.yul\":9514:9556   */\n      mstore\n        /* \"#utility.yul\":9397:9563   */\n      pop\n      jump\t// out\n        /* \"#utility.yul\":9569:9935   */\n    tag_213:\n        /* \"#utility.yul\":9711:9714   */\n      0x00\n        /* \"#utility.yul\":9732:9799   */\n      tag_317\n        /* \"#utility.yul\":9796:9798   */\n      0x10\n        /* \"#utility.yul\":9791:9794   */\n      dup4\n        /* \"#utility.yul\":9732:9799   */\n      tag_201\n      jump\t// in\n    tag_317:\n        /* \"#utility.yul\":9725:9799   */\n      swap2\n      pop\n        /* \"#utility.yul\":9808:9901   */\n      tag_318\n        /* \"#utility.yul\":9897:9900   */\n      dup3\n        /* \"#utility.yul\":9808:9901   */\n      tag_212\n      jump\t// in\n    tag_318:\n        /* \"#utility.yul\":9926:9928   */\n      0x20\n        /* \"#utility.yul\":9921:9924   */\n      dup3\n        /* \"#utility.yul\":9917:9929   */\n      add\n        /* \"#utility.yul\":9910:9929   */\n      swap1\n      pop\n        /* \"#utility.yul\":9569:9935   */\n      swap2\n      swap1\n      pop\n      jump\t// out\n        /* \"#utility.yul\":9941:10360   */\n    tag_106:\n        /* \"#utility.yul\":10107:10111   */\n      0x00\n        /* \"#utility.yul\":10145:10147   */\n      0x20\n        /* \"#utility.yul\":10134:10143   */\n      dup3\n        /* \"#utility.yul\":10130:10148   */\n      add\n        /* \"#utility.yul\":10122:10148   */\n      swap1\n      pop\n        /* \"#utility.yul\":10194:10203   */\n      dup2\n        /* \"#utility.yul\":10188:10192   */\n      dup2\n        /* \"#utility.yul\":10184:10204   */\n      sub\n        /* \"#utility.yul\":10180:10181   */\n      0x00\n        /* \"#utility.yul\":10169:10178   */\n      dup4\n        /* \"#utility.yul\":10165:10182   */\n      add\n        /* \"#utility.yul\":10158:10205   */\n      mstore\n        /* \"#utility.yul\":10222:10353   */\n      tag_320\n        /* \"#utility.yul\":10348:10352   */\n      dup2\n        /* \"#utility.yul\":10222:10353   */\n      tag_213\n      jump\t// in\n    tag_320:\n        /* \"#utility.yul\":10214:10353   */\n      swap1\n      pop\n        /* \"#utility.yul\":9941:10360   */\n      swap2\n      swap1\n      pop\n      jump\t// out\n        /* \"#utility.yul\":10366:10546   */\n    tag_214:\n        /* \"#utility.yul\":10414:10491   */\n      0x4e487b7100000000000000000000000000000000000000000000000000000000\n        /* \"#utility.yul\":10411:10412   */\n      0x00\n        /* \"#utility.yul\":10404:10492   */\n      mstore\n        /* \"#utility.yul\":10511:10515   */\n      0x11\n        /* \"#utility.yul\":10508:10509   */\n      0x04\n        /* \"#utility.yul\":10501:10516   */\n      mstore\n        /* \"#utility.yul\":10535:10539   */\n      0x24\n        /* \"#utility.yul\":10532:10533   */\n      0x00\n        /* \"#utility.yul\":10525:10540   */\n      revert\n        /* \"#utility.yul\":10552:10857   */\n    tag_108:\n        /* \"#utility.yul\":10592:10595   */\n      0x00\n        /* \"#utility.yul\":10611:10631   */\n      tag_323\n        /* \"#utility.yul\":10629:10630   */\n      dup3\n        /* \"#utility.yul\":10611:10631   */\n      tag_187\n      jump\t// in\n    tag_323:\n        /* \"#utility.yul\":10606:10631   */\n      swap2\n      pop\n        /* \"#utility.yul\":10645:10665   */\n      tag_324\n        /* \"#utility.yul\":10663:10664   */\n      dup4\n        /* \"#utility.yul\":10645:10665   */\n      tag_187\n      jump\t// in\n    tag_324:\n        /* \"#utility.yul\":10640:10665   */\n      swap3\n      pop\n        /* \"#utility.yul\":10799:10800   */\n      dup3\n        /* \"#utility.yul\":10731:10797   */\n      0xffffffffffffffffffffffffffffffffffffffffffffffffffffffffffffffff\n        /* \"#utility.yul\":10727:10801   */\n      sub\n        /* \"#utility.yul\":10724:10725   */\n      dup3\n        /* \"#utility.yul\":10721:10802   */\n      gt\n        /* \"#utility.yul\":10718:10825   */\n      iszero\n      tag_325\n      jumpi\n        /* \"#utility.yul\":10805:10823   */\n      tag_326\n      tag_214\n      jump\t// in\n    tag_326:\n        /* \"#utility.yul\":10718:10825   */\n    tag_325:\n        /* \"#utility.yul\":10849:10850   */\n      dup3\n        /* \"#utility.yul\":10846:10847   */\n      dup3\n        /* \"#utility.yul\":10842:10851   */\n      add\n        /* \"#utility.yul\":10835:10851   */\n      swap1\n      pop\n        /* \"#utility.yul\":10552:10857   */\n      swap3\n      swap2\n      pop\n      pop\n      jump\t// out\n        /* \"#utility.yul\":10863:11096   */\n    tag_110:\n        /* \"#utility.yul\":10902:10905   */\n      0x00\n        /* \"#utility.yul\":10925:10949   */\n      tag_328\n        /* \"#utility.yul\":10943:10948   */\n      dup3\n        /* \"#utility.yul\":10925:10949   */\n      tag_187\n      jump\t// in\n    tag_328:\n        /* \"#utility.yul\":10916:10949   */\n      swap2\n      pop\n        /* \"#utility.yul\":10971:11037   */\n      0xffffffffffffffffffffffffffffffffffffffffffffffffffffffffffffffff\n        /* \"#utility.yul\":10964:10969   */\n      dup3\n        /* \"#utility.yul\":10961:11038   */\n      eq\n        /* \"#utility.yul\":10958:11061   */\n      iszero\n      tag_329\n      jumpi\n        /* \"#utility.yul\":11041:11059   */\n      tag_330\n      tag_214\n      jump\t// in\n    tag_330:\n        /* \"#utility.yul\":10958:11061   */\n    tag_329:\n        /* \"#utility.yul\":11088:11089   */\n      0x01\n        /* \"#utility.yul\":11081:11086   */\n      dup3\n        /* \"#utility.yul\":11077:11090   */\n      add\n        /* \"#utility.yul\":11070:11090   */\n      swap1\n      pop\n        /* \"#utility.yul\":10863:11096   */\n      swap2\n      swap1\n      pop\n      jump\t// out\n        /* \"#utility.yul\":11102:11293   */\n    tag_112:\n        /* \"#utility.yul\":11142:11146   */\n      0x00\n        /* \"#utility.yul\":11162:11182   */\n      tag_332\n        /* \"#utility.yul\":11180:11181   */\n      dup3\n        /* \"#utility.yul\":11162:11182   */\n      tag_187\n      jump\t// in\n    tag_332:\n        /* \"#utility.yul\":11157:11182   */\n      swap2\n      pop\n        /* \"#utility.yul\":11196:11216   */\n      tag_333\n        /* \"#utility.yul\":11214:11215   */\n      dup4\n        /* \"#utility.yul\":11196:11216   */\n      tag_187\n      jump\t// in\n    tag_333:\n        /* \"#utility.yul\":11191:11216   */\n      swap3\n      pop\n        /* \"#utility.yul\":11235:11236   */\n      dup3\n        /* \"#utility.yul\":11232:11233   */\n      dup3\n        /* \"#utility.yul\":11229:11237   */\n      lt\n        /* \"#utility.yul\":11226:11260   */\n      iszero\n      tag_334\n      jumpi\n        /* \"#utility.yul\":11240:11258   */\n      tag_335\n      tag_214\n      jump\t// in\n    tag_335:\n        /* \"#utility.yul\":11226:11260   */\n    tag_334:\n        /* \"#utility.yul\":11285:11286   */\n      dup3\n        /* \"#utility.yul\":11282:11283   */\n      dup3\n        /* \"#utility.yul\":11278:11287   */\n      sub\n        /* \"#utility.yul\":11270:11287   */\n      swap1\n      pop\n        /* \"#utility.yul\":11102:11293   */\n      swap3\n      swap2\n      pop\n      pop\n      jump\t// out\n        /* \"#utility.yul\":11299:11466   */\n    tag_215:\n        /* \"#utility.yul\":11439:11458   */\n      0x446561646c696e65206578636565646564000000000000000000000000000000\n        /* \"#utility.yul\":11435:11436   */\n      0x00\n        /* \"#utility.yul\":11427:11433   */\n      dup3\n        /* \"#utility.yul\":11423:11437   */\n      add\n        /* \"#utility.yul\":11416:11459   */\n      mstore\n        /* \"#utility.yul\":11299:11466   */\n      pop\n      jump\t// out\n        /* \"#utility.yul\":11472:11838   */\n    tag_216:\n        /* \"#utility.yul\":11614:11617   */\n      0x00\n        /* \"#utility.yul\":11635:11702   */\n      tag_338\n        /* \"#utility.yul\":11699:11701   */\n      0x11\n        /* \"#utility.yul\":11694:11697   */\n      dup4\n        /* \"#utility.yul\":11635:11702   */\n      tag_201\n      jump\t// in\n    tag_338:\n        /* \"#utility.yul\":11628:11702   */\n      swap2\n      pop\n        /* \"#utility.yul\":11711:11804   */\n      tag_339\n        /* \"#utility.yul\":11800:11803   */\n      dup3\n        /* \"#utility.yul\":11711:11804   */\n      tag_215\n      jump\t// in\n    tag_339:\n        /* \"#utility.yul\":11829:11831   */\n      0x20\n        /* \"#utility.yul\":11824:11827   */\n      dup3\n        /* \"#utility.yul\":11820:11832   */\n      add\n        /* \"#utility.yul\":11813:11832   */\n      swap1\n      pop\n        /* \"#utility.yul\":11472:11838   */\n      swap2\n      swap1\n      pop\n      jump\t// out\n        /* \"#utility.yul\":11844:12263   */\n    tag_137:\n        /* \"#utility.yul\":12010:12014   */\n      0x00\n        /* \"#utility.yul\":12048:12050   */\n      0x20\n        /* \"#utility.yul\":12037:12046   */\n      dup3\n        /* \"#utility.yul\":12033:12051   */\n      add\n        /* \"#utility.yul\":12025:12051   */\n      swap1\n      pop\n        /* \"#utility.yul\":12097:12106   */\n      dup2\n        /* \"#utility.yul\":12091:12095   */\n      dup2\n        /* \"#utility.yul\":12087:12107   */\n      sub\n        /* \"#utility.yul\":12083:12084   */\n      0x00\n        /* \"#utility.yul\":12072:12081   */\n      dup4\n        /* \"#utility.yul\":12068:12085   */\n      add\n        /* \"#utility.yul\":12061:12108   */\n      mstore\n        /* \"#utility.yul\":12125:12256   */\n      tag_341\n        /* \"#utility.yul\":12251:12255   */\n      dup2\n        /* \"#utility.yul\":12125:12256   */\n      tag_216\n      jump\t// in\n    tag_341:\n        /* \"#utility.yul\":12117:12256   */\n      swap1\n      pop\n        /* \"#utility.yul\":11844:12263   */\n      swap2\n      swap1\n      pop\n      jump\t// out\n        /* \"#utility.yul\":12269:12601   */\n    tag_148:\n        /* \"#utility.yul\":12390:12394   */\n      0x00\n        /* \"#utility.yul\":12428:12430   */\n      0x40\n        /* \"#utility.yul\":12417:12426   */\n      dup3\n        /* \"#utility.yul\":12413:12431   */\n      add\n        /* \"#utility.yul\":12405:12431   */\n      swap1\n      pop\n        /* \"#utility.yul\":12441:12512   */\n      tag_343\n        /* \"#utility.yul\":12509:12510   */\n      0x00\n        /* \"#utility.yul\":12498:12507   */\n      dup4\n        /* \"#utility.yul\":12494:12511   */\n      add\n        /* \"#utility.yul\":12485:12491   */\n      dup6\n        /* \"#utility.yul\":12441:12512   */\n      tag_195\n      jump\t// in\n    tag_343:\n        /* \"#utility.yul\":12522:12594   */\n      tag_344\n        /* \"#utility.yul\":12590:12592   */\n      0x20\n        /* \"#utility.yul\":12579:12588   */\n      dup4\n        /* \"#utility.yul\":12575:12593   */\n      add\n        /* \"#utility.yul\":12566:12572   */\n      dup5\n        /* \"#utility.yul\":12522:12594   */\n      tag_190\n      jump\t// in\n    tag_344:\n        /* \"#utility.yul\":12269:12601   */\n      swap4\n      swap3\n      pop\n      pop\n      pop\n      jump\t// out\n        /* \"#utility.yul\":12607:12770   */\n    tag_217:\n        /* \"#utility.yul\":12747:12762   */\n      0x416c726561647920766f74656400000000000000000000000000000000000000\n        /* \"#utility.yul\":12743:12744   */\n      0x00\n        /* \"#utility.yul\":12735:12741   */\n      dup3\n        /* \"#utility.yul\":12731:12745   */\n      add\n        /* \"#utility.yul\":12724:12763   */\n      mstore\n        /* \"#utility.yul\":12607:12770   */\n      pop\n      jump\t// out\n        /* \"#utility.yul\":12776:13142   */\n    tag_218:\n        /* \"#utility.yul\":12918:12921   */\n      0x00\n        /* \"#utility.yul\":12939:13006   */\n      tag_347\n        /* \"#utility.yul\":13003:13005   */\n      0x0d\n        /* \"#utility.yul\":12998:13001   */\n      dup4\n        /* \"#utility.yul\":12939:13006   */\n      tag_201\n      jump\t// in\n    tag_347:\n        /* \"#utility.yul\":12932:13006   */\n      swap2\n      pop\n        /* \"#utility.yul\":13015:13108   */\n      tag_348\n        /* \"#utility.yul\":13104:13107   */\n      dup3\n        /* \"#utility.yul\":13015:13108   */\n      tag_217\n      jump\t// in\n    tag_348:\n        /* \"#utility.yul\":13133:13135   */\n      0x20\n        /* \"#utility.yul\":13128:13131   */\n      dup3\n        /* \"#utility.yul\":13124:13136   */\n      add\n        /* \"#utility.yul\":13117:13136   */\n      swap1\n      pop\n        /* \"#utility.yul\":12776:13142   */\n      swap2\n      swap1\n      pop\n      jump\t// out\n        /* \"#utility.yul\":13148:13567   */\n    tag_158:\n        /* \"#utility.yul\":13314:13318   */\n      0x00\n        /* \"#utility.yul\":13352:13354   */\n      0x20\n        /* \"#utility.yul\":13341:13350   */\n      dup3\n        /* \"#utility.yul\":13337:13355   */\n      add\n        /* \"#utility.yul\":13329:13355   */\n      swap1\n      pop\n        /* \"#utility.yul\":13401:13410   */\n      dup2\n        /* \"#utility.yul\":13395:13399   */\n      dup2\n        /* \"#utility.yul\":13391:13411   */\n      sub\n        /* \"#utility.yul\":13387:13388   */\n      0x00\n        /* \"#utility.yul\":13376:13385   */\n      dup4\n        /* \"#utility.yul\":13372:13389   */\n      add\n        /* \"#utility.yul\":13365:13412   */\n      mstore\n        /* \"#utility.yul\":13429:13560   */\n      tag_350\n        /* \"#utility.yul\":13555:13559   */\n      dup2\n        /* \"#utility.yul\":13429:13560   */\n      tag_218\n      jump\t// in\n    tag_350:\n        /* \"#utility.yul\":13421:13560   */\n      swap1\n      pop\n        /* \"#utility.yul\":13148:13567   */\n      swap2\n      swap1\n      pop\n      jump\t// out\n        /* \"#utility.yul\":13573:13753   */\n    tag_161:\n        /* \"#utility.yul\":13621:13698   */\n      0x4e487b7100000000000000000000000000000000000000000000000000000000\n        /* \"#utility.yul\":13618:13619   */\n      0x00\n        /* \"#utility.yul\":13611:13699   */\n      mstore\n        /* \"#utility.yul\":13718:13722   */\n      0x21\n        /* \"#utility.yul\":13715:13716   */\n      0x04\n        /* \"#utility.yul\":13708:13723   */\n      mstore\n        /* \"#utility.yul\":13742:13746   */\n      0x24\n        /* \"#utility.yul\":13739:13740   */\n      0x00\n        /* \"#utility.yul\":13732:13747   */\n      revert\n        /* \"#utility.yul\":13759:13984   */\n    tag_219:\n        /* \"#utility.yul\":13899:13933   */\n      0x4f776e61626c653a206e6577206f776e657220697320746865207a65726f2061\n        /* \"#utility.yul\":13895:13896   */\n      0x00\n        /* \"#utility.yul\":13887:13893   */\n      dup3\n        /* \"#utility.yul\":13883:13897   */\n      add\n        /* \"#utility.yul\":13876:13934   */\n      mstore\n        /* \"#utility.yul\":13968:13976   */\n      0x6464726573730000000000000000000000000000000000000000000000000000\n        /* \"#utility.yul\":13963:13965   */\n      0x20\n        /* \"#utility.yul\":13955:13961   */\n      dup3\n        /* \"#utility.yul\":13951:13966   */\n      add\n        /* \"#utility.yul\":13944:13977   */\n      mstore\n        /* \"#utility.yul\":13759:13984   */\n      pop\n      jump\t// out\n        /* \"#utility.yul\":13990:14356   */\n    tag_220:\n        /* \"#utility.yul\":14132:14135   */\n      0x00\n        /* \"#utility.yul\":14153:14220   */\n      tag_354\n        /* \"#utility.yul\":14217:14219   */\n      0x26\n        /* \"#utility.yul\":14212:14215   */\n      dup4\n        /* \"#utility.yul\":14153:14220   */\n      tag_201\n      jump\t// in\n    tag_354:\n        /* \"#utility.yul\":14146:14220   */\n      swap2\n      pop\n        /* \"#utility.yul\":14229:14322   */\n      tag_355\n        /* \"#utility.yul\":14318:14321   */\n      dup3\n        /* \"#utility.yul\":14229:14322   */\n      tag_219\n      jump\t// in\n    tag_355:\n        /* \"#utility.yul\":14347:14349   */\n      0x40\n        /* \"#utility.yul\":14342:14345   */\n      dup3\n        /* \"#utility.yul\":14338:14350   */\n      add\n        /* \"#utility.yul\":14331:14350   */\n      swap1\n      pop\n        /* \"#utility.yul\":13990:14356   */\n      swap2\n      swap1\n      pop\n      jump\t// out\n        /* \"#utility.yul\":14362:14781   */\n    tag_173:\n        /* \"#utility.yul\":14528:14532   */\n      0x00\n        /* \"#utility.yul\":14566:14568   */\n      0x20\n        /* \"#utility.yul\":14555:14564   */\n      dup3\n        /* \"#utility.yul\":14551:14569   */\n      add\n        /* \"#utility.yul\":14543:14569   */\n      swap1\n      pop\n        /* \"#utility.yul\":14615:14624   */\n      dup2\n        /* \"#utility.yul\":14609:14613   */\n      dup2\n        /* \"#utility.yul\":14605:14625   */\n      sub\n        /* \"#utility.yul\":14601:14602   */\n      0x00\n        /* \"#utility.yul\":14590:14599   */\n      dup4\n        /* \"#utility.yul\":14586:14603   */\n      add\n        /* \"#utility.yul\":14579:14626   */\n      mstore\n        /* \"#utility.yul\":14643:14774   */\n      tag_357\n        /* \"#utility.yul\":14769:14773   */\n      dup2\n        /* \"#utility.yul\":14643:14774   */\n      tag_220\n      jump\t// in\n    tag_357:\n        /* \"#utility.yul\":14635:14774   */\n      swap1\n      pop\n        /* \"#utility.yul\":14362:14781   */\n      swap2\n      swap1\n      pop\n      jump\t// out\n        /* \"#utility.yul\":14787:14969   */\n    tag_221:\n        /* \"#utility.yul\":14927:14961   */\n      0x4f776e61626c653a2063616c6c6572206973206e6f7420746865206f776e6572\n        /* \"#utility.yul\":14923:14924   */\n      0x00\n        /* \"#utility.yul\":14915:14921   */\n      dup3\n        /* \"#utility.yul\":14911:14925   */\n      add\n        /* \"#utility.yul\":14904:14962   */\n      mstore\n        /* \"#utility.yul\":14787:14969   */\n      pop\n      jump\t// out\n        /* \"#utility.yul\":14975:15341   */\n    tag_222:\n        /* \"#utility.yul\":15117:15120   */\n      0x00\n        /* \"#utility.yul\":15138:15205   */\n      tag_360\n        /* \"#utility.yul\":15202:15204   */\n      0x20\n        /* \"#utility.yul\":15197:15200   */\n      dup4\n        /* \"#utility.yul\":15138:15205   */\n      tag_201\n      jump\t// in\n    tag_360:\n        /* \"#utility.yul\":15131:15205   */\n      swap2\n      pop\n        /* \"#utility.yul\":15214:15307   */\n      tag_361\n        /* \"#utility.yul\":15303:15306   */\n      dup3\n        /* \"#utility.yul\":15214:15307   */\n      tag_221\n      jump\t// in\n    tag_361:\n        /* \"#utility.yul\":15332:15334   */\n      0x20\n        /* \"#utility.yul\":15327:15330   */\n      dup3\n        /* \"#utility.yul\":15323:15335   */\n      add\n        /* \"#utility.yul\":15316:15335   */\n      swap1\n      pop\n        /* \"#utility.yul\":14975:15341   */\n      swap2\n      swap1\n      pop\n      jump\t// out\n        /* \"#utility.yul\":15347:15766   */\n    tag_181:\n        /* \"#utility.yul\":15513:15517   */\n      0x00\n        /* \"#utility.yul\":15551:15553   */\n      0x20\n        /* \"#utility.yul\":15540:15549   */\n      dup3\n        /* \"#utility.yul\":15536:15554   */\n      add\n        /* \"#utility.yul\":15528:15554   */\n      swap1\n      pop\n        /* \"#utility.yul\":15600:15609   */\n      dup2\n        /* \"#utility.yul\":15594:15598   */\n      dup2\n        /* \"#utility.yul\":15590:15610   */\n      sub\n        /* \"#utility.yul\":15586:15587   */\n      0x00\n        /* \"#utility.yul\":15575:15584   */\n      dup4\n        /* \"#utility.yul\":15571:15588   */\n      add\n        /* \"#utility.yul\":15564:15611   */\n      mstore\n        /* \"#utility.yul\":15628:15759   */\n      tag_363\n        /* \"#utility.yul\":15754:15758   */\n      dup2\n        /* \"#utility.yul\":15628:15759   */\n      tag_222\n      jump\t// in\n    tag_363:\n        /* \"#utility.yul\":15620:15759   */\n      swap1\n      pop\n        /* \"#utility.yul\":15347:15766   */\n      swap2\n      swap1\n      pop\n      jump\t// out\n\n    auxdata: 0xa2646970667358221220ba52b036e37a163e272b9c05bb2c73ca66b006030bc8804b35af4ab1e69056dc64736f6c63430008090033\n}\n",
				"bytecode": {
					"linkReferences": {},
					"object": "60806040526040516200191638038062001916833981810160405281019062000029919062000209565b620000496200003d620000d360201b60201c565b620000db60201b60201c565b81600360006101000a81548173ffffffffffffffffffffffffffffffffffffffff021916908373ffffffffffffffffffffffffffffffffffffffff16021790555080600460006101000a81548173ffffffffffffffffffffffffffffffffffffffff021916908373ffffffffffffffffffffffffffffffffffffffff160217905550505062000250565b600033905090565b60008060009054906101000a900473ffffffffffffffffffffffffffffffffffffffff169050816000806101000a81548173ffffffffffffffffffffffffffffffffffffffff021916908373ffffffffffffffffffffffffffffffffffffffff1602179055508173ffffffffffffffffffffffffffffffffffffffff168173ffffffffffffffffffffffffffffffffffffffff167f8be0079c531659141344cd1fd0a4f28419497f9722a3daafe3b4186f6b6457e060405160405180910390a35050565b600080fd5b600073ffffffffffffffffffffffffffffffffffffffff82169050919050565b6000620001d182620001a4565b9050919050565b620001e381620001c4565b8114620001ef57600080fd5b50565b6000815190506200020381620001d8565b92915050565b600080604083850312156200022357620002226200019f565b5b60006200023385828601620001f2565b92505060206200024685828601620001f2565b9150509250929050565b6116b680620002606000396000f3fe60806040526004361061008a5760003560e01c8063715018a611610059578063715018a6146101655780637362377b1461017c5780638da5cb5b14610193578063efafb22e146101be578063f2fde38b146101e757610091565b8063013cf08b146100935780630d61b519146100d4578063400e3949146100fd5780635a43dc001461012857610091565b3661009157005b005b34801561009f57600080fd5b506100ba60048036038101906100b59190610ea9565b610210565b6040516100cb959493929190610f00565b60405180910390f35b3480156100e057600080fd5b506100fb60048036038101906100f69190610ea9565b610253565b005b34801561010957600080fd5b506101126105c8565b60405161011f9190610f53565b60405180910390f35b34801561013457600080fd5b5061014f600480360381019061014a9190610ea9565b6105ce565b60405161015c9190610f53565b60405180910390f35b34801561017157600080fd5b5061017a61080d565b005b34801561018857600080fd5b50610191610821565b005b34801561019f57600080fd5b506101a8610879565b6040516101b59190610faf565b60405180910390f35b3480156101ca57600080fd5b506101e560048036038101906101e09190610fef565b6108a2565b005b3480156101f357600080fd5b5061020e6004803603810190610209919061105b565b610ca0565b005b60016020528060005260406000206000915090508060000154908060010154908060020154908060030154908060040160009054906101000a900460ff16905085565b6000600460009054906101000a900473ffffffffffffffffffffffffffffffffffffffff1673ffffffffffffffffffffffffffffffffffffffff166370a08231336040518263ffffffff1660e01b81526004016102b09190610faf565b60206040518083038186803b1580156102c857600080fd5b505afa1580156102dc573d6000803e3d6000fd5b505050506040513d601f19601f82011682018060405250810190610300919061109d565b11610340576040517f08c379a000000000000000000000000000000000000000000000000000000000815260040161033790611127565b60405180910390fd5b80426001600083815260200190815260200160002060010154111561039a576040517f08c379a000000000000000000000000000000000000000000000000000000000815260040161039190611193565b60405180910390fd5b600015156001600083815260200190815260200160002060040160009054906101000a900460ff16151514610404576040517f08c379a00000000000000000000000000000000000000000000000000000000081526004016103fb906111ff565b60405180910390fd5b60006001600084815260200190815260200160002090508060030154816002015411156105a6576000600360009054906101000a900473ffffffffffffffffffffffffffffffffffffffff1673ffffffffffffffffffffffffffffffffffffffff166398d5fdca6040518163ffffffff1660e01b815260040160206040518083038186803b15801561049557600080fd5b505afa1580156104a9573d6000803e3d6000fd5b505050506040513d601f19601f820116820180604052508101906104cd919061109d565b905080471015610512576040517f08c379a00000000000000000000000000000000000000000000000000000000081526004016105099061126b565b60405180910390fd5b600360009054906101000a900473ffffffffffffffffffffffffffffffffffffffff1673ffffffffffffffffffffffffffffffffffffffff1663efef39a18284600001546040518363ffffffff1660e01b81526004016105729190610f53565b6000604051808303818588803b15801561058b57600080fd5b505af115801561059f573d6000803e3d6000fd5b5050505050505b60018160040160006101000a81548160ff021916908315150217905550505050565b60025481565b600080600460009054906101000a900473ffffffffffffffffffffffffffffffffffffffff1673ffffffffffffffffffffffffffffffffffffffff166370a08231336040518263ffffffff1660e01b815260040161062c9190610faf565b60206040518083038186803b15801561064457600080fd5b505afa158015610658573d6000803e3d6000fd5b505050506040513d601f19601f8201168201806040525081019061067c919061109d565b116106bc576040517f08c379a00000000000000000000000000000000000000000000000000000000081526004016106b390611127565b60405180910390fd5b600360009054906101000a900473ffffffffffffffffffffffffffffffffffffffff1673ffffffffffffffffffffffffffffffffffffffff166396e494e8836040518263ffffffff1660e01b81526004016107179190610f53565b60206040518083038186803b15801561072f57600080fd5b505afa158015610743573d6000803e3d6000fd5b505050506040513d601f19601f8201168201806040525081019061076791906112b7565b6107a6576040517f08c379a000000000000000000000000000000000000000000000000000000000815260040161079d90611330565b60405180910390fd5b6000600160006002548152602001908152602001600020905082816000018190555061012c426107d6919061137f565b8160010181905550600260008154809291906107f1906113d5565b91905055506001600254610805919061141e565b915050919050565b610815610d24565b61081f6000610da2565b565b610829610d24565b610831610879565b73ffffffffffffffffffffffffffffffffffffffff166108fc479081150290604051600060405180830381858888f19350505050158015610876573d6000803e3d6000fd5b50565b60008060009054906101000a900473ffffffffffffffffffffffffffffffffffffffff16905090565b6000600460009054906101000a900473ffffffffffffffffffffffffffffffffffffffff1673ffffffffffffffffffffffffffffffffffffffff166370a08231336040518263ffffffff1660e01b81526004016108ff9190610faf565b60206040518083038186803b15801561091757600080fd5b505afa15801561092b573d6000803e3d6000fd5b505050506040513d601f19601f8201168201806040525081019061094f919061109d565b1161098f576040517f08c379a000000000000000000000000000000000000000000000000000000000815260040161098690611127565b60405180910390fd5b81426001600083815260200190815260200160002060010154116109e8576040517f08c379a00000000000000000000000000000000000000000000000000000000081526004016109df9061149e565b60405180910390fd5b60006001600085815260200190815260200160002090506000600460009054906101000a900473ffffffffffffffffffffffffffffffffffffffff1673ffffffffffffffffffffffffffffffffffffffff166370a08231336040518263ffffffff1660e01b8152600401610a5c9190610faf565b60206040518083038186803b158015610a7457600080fd5b505afa158015610a88573d6000803e3d6000fd5b505050506040513d601f19601f82011682018060405250810190610aac919061109d565b90506000805b82811015610beb576000600460009054906101000a900473ffffffffffffffffffffffffffffffffffffffff1673ffffffffffffffffffffffffffffffffffffffff16632f745c5933846040518363ffffffff1660e01b8152600401610b199291906114be565b60206040518083038186803b158015610b3157600080fd5b505afa158015610b45573d6000803e3d6000fd5b505050506040513d601f19601f82011682018060405250810190610b69919061109d565b90506000151585600501600083815260200190815260200160002060009054906101000a900460ff1615151415610bd7578280610ba5906113d5565b935050600185600501600083815260200190815260200160002060006101000a81548160ff0219169083151502179055505b508080610be3906113d5565b915050610ab2565b5060008111610c2f576040517f08c379a0000000000000000000000000000000000000000000000000000000008152600401610c2690611533565b60405180910390fd5b60006001811115610c4357610c42611553565b5b856001811115610c5657610c55611553565b5b1415610c7c5780836002016000828254610c70919061137f565b92505081905550610c98565b80836003016000828254610c90919061137f565b925050819055505b505050505050565b610ca8610d24565b600073ffffffffffffffffffffffffffffffffffffffff168173ffffffffffffffffffffffffffffffffffffffff161415610d18576040517f08c379a0000000000000000000000000000000000000000000000000000000008152600401610d0f906115f4565b60405180910390fd5b610d2181610da2565b50565b610d2c610e66565b73ffffffffffffffffffffffffffffffffffffffff16610d4a610879565b73ffffffffffffffffffffffffffffffffffffffff1614610da0576040517f08c379a0000000000000000000000000000000000000000000000000000000008152600401610d9790611660565b60405180910390fd5b565b60008060009054906101000a900473ffffffffffffffffffffffffffffffffffffffff169050816000806101000a81548173ffffffffffffffffffffffffffffffffffffffff021916908373ffffffffffffffffffffffffffffffffffffffff1602179055508173ffffffffffffffffffffffffffffffffffffffff168173ffffffffffffffffffffffffffffffffffffffff167f8be0079c531659141344cd1fd0a4f28419497f9722a3daafe3b4186f6b6457e060405160405180910390a35050565b600033905090565b600080fd5b6000819050919050565b610e8681610e73565b8114610e9157600080fd5b50565b600081359050610ea381610e7d565b92915050565b600060208284031215610ebf57610ebe610e6e565b5b6000610ecd84828501610e94565b91505092915050565b610edf81610e73565b82525050565b60008115159050919050565b610efa81610ee5565b82525050565b600060a082019050610f156000830188610ed6565b610f226020830187610ed6565b610f2f6040830186610ed6565b610f3c6060830185610ed6565b610f496080830184610ef1565b9695505050505050565b6000602082019050610f686000830184610ed6565b92915050565b600073ffffffffffffffffffffffffffffffffffffffff82169050919050565b6000610f9982610f6e565b9050919050565b610fa981610f8e565b82525050565b6000602082019050610fc46000830184610fa0565b92915050565b60028110610fd757600080fd5b50565b600081359050610fe981610fca565b92915050565b6000806040838503121561100657611005610e6e565b5b600061101485828601610e94565b925050602061102585828601610fda565b9150509250929050565b61103881610f8e565b811461104357600080fd5b50565b6000813590506110558161102f565b92915050565b60006020828403121561107157611070610e6e565b5b600061107f84828501611046565b91505092915050565b60008151905061109781610e7d565b92915050565b6000602082840312156110b3576110b2610e6e565b5b60006110c184828501611088565b91505092915050565b600082825260208201905092915050565b7f4e6f7420612044414f204d656d62657200000000000000000000000000000000600082015250565b60006111116010836110ca565b915061111c826110db565b602082019050919050565b6000602082019050818103600083015261114081611104565b9050919050565b7f446561646c696e65206e6f742065786365656465640000000000000000000000600082015250565b600061117d6015836110ca565b915061118882611147565b602082019050919050565b600060208201905081810360008301526111ac81611170565b9050919050565b7f50726f706f73616c20616c726561647920657865637574656400000000000000600082015250565b60006111e96019836110ca565b91506111f4826111b3565b602082019050919050565b60006020820190508181036000830152611218816111dc565b9050919050565b7f4e6f7420656e6f7567682046756e647300000000000000000000000000000000600082015250565b60006112556010836110ca565b91506112608261121f565b602082019050919050565b6000602082019050818103600083015261128481611248565b9050919050565b61129481610ee5565b811461129f57600080fd5b50565b6000815190506112b18161128b565b92915050565b6000602082840312156112cd576112cc610e6e565b5b60006112db848285016112a2565b91505092915050565b7f4e4654206e6f7420666f722073616c6500000000000000000000000000000000600082015250565b600061131a6010836110ca565b9150611325826112e4565b602082019050919050565b600060208201905081810360008301526113498161130d565b9050919050565b7f4e487b7100000000000000000000000000000000000000000000000000000000600052601160045260246000fd5b600061138a82610e73565b915061139583610e73565b9250827fffffffffffffffffffffffffffffffffffffffffffffffffffffffffffffffff038211156113ca576113c9611350565b5b828201905092915050565b60006113e082610e73565b91507fffffffffffffffffffffffffffffffffffffffffffffffffffffffffffffffff82141561141357611412611350565b5b600182019050919050565b600061142982610e73565b915061143483610e73565b92508282101561144757611446611350565b5b828203905092915050565b7f446561646c696e65206578636565646564000000000000000000000000000000600082015250565b60006114886011836110ca565b915061149382611452565b602082019050919050565b600060208201905081810360008301526114b78161147b565b9050919050565b60006040820190506114d36000830185610fa0565b6114e06020830184610ed6565b9392505050565b7f416c726561647920766f74656400000000000000000000000000000000000000600082015250565b600061151d600d836110ca565b9150611528826114e7565b602082019050919050565b6000602082019050818103600083015261154c81611510565b9050919050565b7f4e487b7100000000000000000000000000000000000000000000000000000000600052602160045260246000fd5b7f4f776e61626c653a206e6577206f776e657220697320746865207a65726f206160008201527f6464726573730000000000000000000000000000000000000000000000000000602082015250565b60006115de6026836110ca565b91506115e982611582565b604082019050919050565b6000602082019050818103600083015261160d816115d1565b9050919050565b7f4f776e61626c653a2063616c6c6572206973206e6f7420746865206f776e6572600082015250565b600061164a6020836110ca565b915061165582611614565b602082019050919050565b600060208201905081810360008301526116798161163d565b905091905056fea2646970667358221220ba52b036e37a163e272b9c05bb2c73ca66b006030bc8804b35af4ab1e69056dc64736f6c63430008090033",
					"opcodes": "PUSH1 0x80 PUSH1 0x40 MSTORE PUSH1 0x40 MLOAD PUSH3 0x1916 CODESIZE SUB DUP1 PUSH3 0x1916 DUP4 CODECOPY DUP2 DUP2 ADD PUSH1 0x40 MSTORE DUP2 ADD SWAP1 PUSH3 0x29 SWAP2 SWAP1 PUSH3 0x209 JUMP JUMPDEST PUSH3 0x49 PUSH3 0x3D PUSH3 0xD3 PUSH1 0x20 SHL PUSH1 0x20 SHR JUMP JUMPDEST PUSH3 0xDB PUSH1 0x20 SHL PUSH1 0x20 SHR JUMP JUMPDEST DUP2 PUSH1 0x3 PUSH1 0x0 PUSH2 0x100 EXP DUP2 SLOAD DUP2 PUSH20 0xFFFFFFFFFFFFFFFFFFFFFFFFFFFFFFFFFFFFFFFF MUL NOT AND SWAP1 DUP4 PUSH20 0xFFFFFFFFFFFFFFFFFFFFFFFFFFFFFFFFFFFFFFFF AND MUL OR SWAP1 SSTORE POP DUP1 PUSH1 0x4 PUSH1 0x0 PUSH2 0x100 EXP DUP2 SLOAD DUP2 PUSH20 0xFFFFFFFFFFFFFFFFFFFFFFFFFFFFFFFFFFFFFFFF MUL NOT AND SWAP1 DUP4 PUSH20 0xFFFFFFFFFFFFFFFFFFFFFFFFFFFFFFFFFFFFFFFF AND MUL OR SWAP1 SSTORE POP POP POP PUSH3 0x250 JUMP JUMPDEST PUSH1 0x0 CALLER SWAP1 POP SWAP1 JUMP JUMPDEST PUSH1 0x0 DUP1 PUSH1 0x0 SWAP1 SLOAD SWAP1 PUSH2 0x100 EXP SWAP1 DIV PUSH20 0xFFFFFFFFFFFFFFFFFFFFFFFFFFFFFFFFFFFFFFFF AND SWAP1 POP DUP2 PUSH1 0x0 DUP1 PUSH2 0x100 EXP DUP2 SLOAD DUP2 PUSH20 0xFFFFFFFFFFFFFFFFFFFFFFFFFFFFFFFFFFFFFFFF MUL NOT AND SWAP1 DUP4 PUSH20 0xFFFFFFFFFFFFFFFFFFFFFFFFFFFFFFFFFFFFFFFF AND MUL OR SWAP1 SSTORE POP DUP2 PUSH20 0xFFFFFFFFFFFFFFFFFFFFFFFFFFFFFFFFFFFFFFFF AND DUP2 PUSH20 0xFFFFFFFFFFFFFFFFFFFFFFFFFFFFFFFFFFFFFFFF AND PUSH32 0x8BE0079C531659141344CD1FD0A4F28419497F9722A3DAAFE3B4186F6B6457E0 PUSH1 0x40 MLOAD PUSH1 0x40 MLOAD DUP1 SWAP2 SUB SWAP1 LOG3 POP POP JUMP JUMPDEST PUSH1 0x0 DUP1 REVERT JUMPDEST PUSH1 0x0 PUSH20 0xFFFFFFFFFFFFFFFFFFFFFFFFFFFFFFFFFFFFFFFF DUP3 AND SWAP1 POP SWAP2 SWAP1 POP JUMP JUMPDEST PUSH1 0x0 PUSH3 0x1D1 DUP3 PUSH3 0x1A4 JUMP JUMPDEST SWAP1 POP SWAP2 SWAP1 POP JUMP JUMPDEST PUSH3 0x1E3 DUP2 PUSH3 0x1C4 JUMP JUMPDEST DUP2 EQ PUSH3 0x1EF JUMPI PUSH1 0x0 DUP1 REVERT JUMPDEST POP JUMP JUMPDEST PUSH1 0x0 DUP2 MLOAD SWAP1 POP PUSH3 0x203 DUP2 PUSH3 0x1D8 JUMP JUMPDEST SWAP3 SWAP2 POP POP JUMP JUMPDEST PUSH1 0x0 DUP1 PUSH1 0x40 DUP4 DUP6 SUB SLT ISZERO PUSH3 0x223 JUMPI PUSH3 0x222 PUSH3 0x19F JUMP JUMPDEST JUMPDEST PUSH1 0x0 PUSH3 0x233 DUP6 DUP3 DUP7 ADD PUSH3 0x1F2 JUMP JUMPDEST SWAP3 POP POP PUSH1 0x20 PUSH3 0x246 DUP6 DUP3 DUP7 ADD PUSH3 0x1F2 JUMP JUMPDEST SWAP2 POP POP SWAP3 POP SWAP3 SWAP1 POP JUMP JUMPDEST PUSH2 0x16B6 DUP1 PUSH3 0x260 PUSH1 0x0 CODECOPY PUSH1 0x0 RETURN INVALID PUSH1 0x80 PUSH1 0x40 MSTORE PUSH1 0x4 CALLDATASIZE LT PUSH2 0x8A JUMPI PUSH1 0x0 CALLDATALOAD PUSH1 0xE0 SHR DUP1 PUSH4 0x715018A6 GT PUSH2 0x59 JUMPI DUP1 PUSH4 0x715018A6 EQ PUSH2 0x165 JUMPI DUP1 PUSH4 0x7362377B EQ PUSH2 0x17C JUMPI DUP1 PUSH4 0x8DA5CB5B EQ PUSH2 0x193 JUMPI DUP1 PUSH4 0xEFAFB22E EQ PUSH2 0x1BE JUMPI DUP1 PUSH4 0xF2FDE38B EQ PUSH2 0x1E7 JUMPI PUSH2 0x91 JUMP JUMPDEST DUP1 PUSH4 0x13CF08B EQ PUSH2 0x93 JUMPI DUP1 PUSH4 0xD61B519 EQ PUSH2 0xD4 JUMPI DUP1 PUSH4 0x400E3949 EQ PUSH2 0xFD JUMPI DUP1 PUSH4 0x5A43DC00 EQ PUSH2 0x128 JUMPI PUSH2 0x91 JUMP JUMPDEST CALLDATASIZE PUSH2 0x91 JUMPI STOP JUMPDEST STOP JUMPDEST CALLVALUE DUP1 ISZERO PUSH2 0x9F JUMPI PUSH1 0x0 DUP1 REVERT JUMPDEST POP PUSH2 0xBA PUSH1 0x4 DUP1 CALLDATASIZE SUB DUP2 ADD SWAP1 PUSH2 0xB5 SWAP2 SWAP1 PUSH2 0xEA9 JUMP JUMPDEST PUSH2 0x210 JUMP JUMPDEST PUSH1 0x40 MLOAD PUSH2 0xCB SWAP6 SWAP5 SWAP4 SWAP3 SWAP2 SWAP1 PUSH2 0xF00 JUMP JUMPDEST PUSH1 0x40 MLOAD DUP1 SWAP2 SUB SWAP1 RETURN JUMPDEST CALLVALUE DUP1 ISZERO PUSH2 0xE0 JUMPI PUSH1 0x0 DUP1 REVERT JUMPDEST POP PUSH2 0xFB PUSH1 0x4 DUP1 CALLDATASIZE SUB DUP2 ADD SWAP1 PUSH2 0xF6 SWAP2 SWAP1 PUSH2 0xEA9 JUMP JUMPDEST PUSH2 0x253 JUMP JUMPDEST STOP JUMPDEST CALLVALUE DUP1 ISZERO PUSH2 0x109 JUMPI PUSH1 0x0 DUP1 REVERT JUMPDEST POP PUSH2 0x112 PUSH2 0x5C8 JUMP JUMPDEST PUSH1 0x40 MLOAD PUSH2 0x11F SWAP2 SWAP1 PUSH2 0xF53 JUMP JUMPDEST PUSH1 0x40 MLOAD DUP1 SWAP2 SUB SWAP1 RETURN JUMPDEST CALLVALUE DUP1 ISZERO PUSH2 0x134 JUMPI PUSH1 0x0 DUP1 REVERT JUMPDEST POP PUSH2 0x14F PUSH1 0x4 DUP1 CALLDATASIZE SUB DUP2 ADD SWAP1 PUSH2 0x14A SWAP2 SWAP1 PUSH2 0xEA9 JUMP JUMPDEST PUSH2 0x5CE JUMP JUMPDEST PUSH1 0x40 MLOAD PUSH2 0x15C SWAP2 SWAP1 PUSH2 0xF53 JUMP JUMPDEST PUSH1 0x40 MLOAD DUP1 SWAP2 SUB SWAP1 RETURN JUMPDEST CALLVALUE DUP1 ISZERO PUSH2 0x171 JUMPI PUSH1 0x0 DUP1 REVERT JUMPDEST POP PUSH2 0x17A PUSH2 0x80D JUMP JUMPDEST STOP JUMPDEST CALLVALUE DUP1 ISZERO PUSH2 0x188 JUMPI PUSH1 0x0 DUP1 REVERT JUMPDEST POP PUSH2 0x191 PUSH2 0x821 JUMP JUMPDEST STOP JUMPDEST CALLVALUE DUP1 ISZERO PUSH2 0x19F JUMPI PUSH1 0x0 DUP1 REVERT JUMPDEST POP PUSH2 0x1A8 PUSH2 0x879 JUMP JUMPDEST PUSH1 0x40 MLOAD PUSH2 0x1B5 SWAP2 SWAP1 PUSH2 0xFAF JUMP JUMPDEST PUSH1 0x40 MLOAD DUP1 SWAP2 SUB SWAP1 RETURN JUMPDEST CALLVALUE DUP1 ISZERO PUSH2 0x1CA JUMPI PUSH1 0x0 DUP1 REVERT JUMPDEST POP PUSH2 0x1E5 PUSH1 0x4 DUP1 CALLDATASIZE SUB DUP2 ADD SWAP1 PUSH2 0x1E0 SWAP2 SWAP1 PUSH2 0xFEF JUMP JUMPDEST PUSH2 0x8A2 JUMP JUMPDEST STOP JUMPDEST CALLVALUE DUP1 ISZERO PUSH2 0x1F3 JUMPI PUSH1 0x0 DUP1 REVERT JUMPDEST POP PUSH2 0x20E PUSH1 0x4 DUP1 CALLDATASIZE SUB DUP2 ADD SWAP1 PUSH2 0x209 SWAP2 SWAP1 PUSH2 0x105B JUMP JUMPDEST PUSH2 0xCA0 JUMP JUMPDEST STOP JUMPDEST PUSH1 0x1 PUSH1 0x20 MSTORE DUP1 PUSH1 0x0 MSTORE PUSH1 0x40 PUSH1 0x0 KECCAK256 PUSH1 0x0 SWAP2 POP SWAP1 POP DUP1 PUSH1 0x0 ADD SLOAD SWAP1 DUP1 PUSH1 0x1 ADD SLOAD SWAP1 DUP1 PUSH1 0x2 ADD SLOAD SWAP1 DUP1 PUSH1 0x3 ADD SLOAD SWAP1 DUP1 PUSH1 0x4 ADD PUSH1 0x0 SWAP1 SLOAD SWAP1 PUSH2 0x100 EXP SWAP1 DIV PUSH1 0xFF AND SWAP1 POP DUP6 JUMP JUMPDEST PUSH1 0x0 PUSH1 0x4 PUSH1 0x0 SWAP1 SLOAD SWAP1 PUSH2 0x100 EXP SWAP1 DIV PUSH20 0xFFFFFFFFFFFFFFFFFFFFFFFFFFFFFFFFFFFFFFFF AND PUSH20 0xFFFFFFFFFFFFFFFFFFFFFFFFFFFFFFFFFFFFFFFF AND PUSH4 0x70A08231 CALLER PUSH1 0x40 MLOAD DUP3 PUSH4 0xFFFFFFFF AND PUSH1 0xE0 SHL DUP2 MSTORE PUSH1 0x4 ADD PUSH2 0x2B0 SWAP2 SWAP1 PUSH2 0xFAF JUMP JUMPDEST PUSH1 0x20 PUSH1 0x40 MLOAD DUP1 DUP4 SUB DUP2 DUP7 DUP1 EXTCODESIZE ISZERO DUP1 ISZERO PUSH2 0x2C8 JUMPI PUSH1 0x0 DUP1 REVERT JUMPDEST POP GAS STATICCALL ISZERO DUP1 ISZERO PUSH2 0x2DC JUMPI RETURNDATASIZE PUSH1 0x0 DUP1 RETURNDATACOPY RETURNDATASIZE PUSH1 0x0 REVERT JUMPDEST POP POP POP POP PUSH1 0x40 MLOAD RETURNDATASIZE PUSH1 0x1F NOT PUSH1 0x1F DUP3 ADD AND DUP3 ADD DUP1 PUSH1 0x40 MSTORE POP DUP2 ADD SWAP1 PUSH2 0x300 SWAP2 SWAP1 PUSH2 0x109D JUMP JUMPDEST GT PUSH2 0x340 JUMPI PUSH1 0x40 MLOAD PUSH32 0x8C379A000000000000000000000000000000000000000000000000000000000 DUP2 MSTORE PUSH1 0x4 ADD PUSH2 0x337 SWAP1 PUSH2 0x1127 JUMP JUMPDEST PUSH1 0x40 MLOAD DUP1 SWAP2 SUB SWAP1 REVERT JUMPDEST DUP1 TIMESTAMP PUSH1 0x1 PUSH1 0x0 DUP4 DUP2 MSTORE PUSH1 0x20 ADD SWAP1 DUP2 MSTORE PUSH1 0x20 ADD PUSH1 0x0 KECCAK256 PUSH1 0x1 ADD SLOAD GT ISZERO PUSH2 0x39A JUMPI PUSH1 0x40 MLOAD PUSH32 0x8C379A000000000000000000000000000000000000000000000000000000000 DUP2 MSTORE PUSH1 0x4 ADD PUSH2 0x391 SWAP1 PUSH2 0x1193 JUMP JUMPDEST PUSH1 0x40 MLOAD DUP1 SWAP2 SUB SWAP1 REVERT JUMPDEST PUSH1 0x0 ISZERO ISZERO PUSH1 0x1 PUSH1 0x0 DUP4 DUP2 MSTORE PUSH1 0x20 ADD SWAP1 DUP2 MSTORE PUSH1 0x20 ADD PUSH1 0x0 KECCAK256 PUSH1 0x4 ADD PUSH1 0x0 SWAP1 SLOAD SWAP1 PUSH2 0x100 EXP SWAP1 DIV PUSH1 0xFF AND ISZERO ISZERO EQ PUSH2 0x404 JUMPI PUSH1 0x40 MLOAD PUSH32 0x8C379A000000000000000000000000000000000000000000000000000000000 DUP2 MSTORE PUSH1 0x4 ADD PUSH2 0x3FB SWAP1 PUSH2 0x11FF JUMP JUMPDEST PUSH1 0x40 MLOAD DUP1 SWAP2 SUB SWAP1 REVERT JUMPDEST PUSH1 0x0 PUSH1 0x1 PUSH1 0x0 DUP5 DUP2 MSTORE PUSH1 0x20 ADD SWAP1 DUP2 MSTORE PUSH1 0x20 ADD PUSH1 0x0 KECCAK256 SWAP1 POP DUP1 PUSH1 0x3 ADD SLOAD DUP2 PUSH1 0x2 ADD SLOAD GT ISZERO PUSH2 0x5A6 JUMPI PUSH1 0x0 PUSH1 0x3 PUSH1 0x0 SWAP1 SLOAD SWAP1 PUSH2 0x100 EXP SWAP1 DIV PUSH20 0xFFFFFFFFFFFFFFFFFFFFFFFFFFFFFFFFFFFFFFFF AND PUSH20 0xFFFFFFFFFFFFFFFFFFFFFFFFFFFFFFFFFFFFFFFF AND PUSH4 0x98D5FDCA PUSH1 0x40 MLOAD DUP2 PUSH4 0xFFFFFFFF AND PUSH1 0xE0 SHL DUP2 MSTORE PUSH1 0x4 ADD PUSH1 0x20 PUSH1 0x40 MLOAD DUP1 DUP4 SUB DUP2 DUP7 DUP1 EXTCODESIZE ISZERO DUP1 ISZERO PUSH2 0x495 JUMPI PUSH1 0x0 DUP1 REVERT JUMPDEST POP GAS STATICCALL ISZERO DUP1 ISZERO PUSH2 0x4A9 JUMPI RETURNDATASIZE PUSH1 0x0 DUP1 RETURNDATACOPY RETURNDATASIZE PUSH1 0x0 REVERT JUMPDEST POP POP POP POP PUSH1 0x40 MLOAD RETURNDATASIZE PUSH1 0x1F NOT PUSH1 0x1F DUP3 ADD AND DUP3 ADD DUP1 PUSH1 0x40 MSTORE POP DUP2 ADD SWAP1 PUSH2 0x4CD SWAP2 SWAP1 PUSH2 0x109D JUMP JUMPDEST SWAP1 POP DUP1 SELFBALANCE LT ISZERO PUSH2 0x512 JUMPI PUSH1 0x40 MLOAD PUSH32 0x8C379A000000000000000000000000000000000000000000000000000000000 DUP2 MSTORE PUSH1 0x4 ADD PUSH2 0x509 SWAP1 PUSH2 0x126B JUMP JUMPDEST PUSH1 0x40 MLOAD DUP1 SWAP2 SUB SWAP1 REVERT JUMPDEST PUSH1 0x3 PUSH1 0x0 SWAP1 SLOAD SWAP1 PUSH2 0x100 EXP SWAP1 DIV PUSH20 0xFFFFFFFFFFFFFFFFFFFFFFFFFFFFFFFFFFFFFFFF AND PUSH20 0xFFFFFFFFFFFFFFFFFFFFFFFFFFFFFFFFFFFFFFFF AND PUSH4 0xEFEF39A1 DUP3 DUP5 PUSH1 0x0 ADD SLOAD PUSH1 0x40 MLOAD DUP4 PUSH4 0xFFFFFFFF AND PUSH1 0xE0 SHL DUP2 MSTORE PUSH1 0x4 ADD PUSH2 0x572 SWAP2 SWAP1 PUSH2 0xF53 JUMP JUMPDEST PUSH1 0x0 PUSH1 0x40 MLOAD DUP1 DUP4 SUB DUP2 DUP6 DUP9 DUP1 EXTCODESIZE ISZERO DUP1 ISZERO PUSH2 0x58B JUMPI PUSH1 0x0 DUP1 REVERT JUMPDEST POP GAS CALL ISZERO DUP1 ISZERO PUSH2 0x59F JUMPI RETURNDATASIZE PUSH1 0x0 DUP1 RETURNDATACOPY RETURNDATASIZE PUSH1 0x0 REVERT JUMPDEST POP POP POP POP POP POP JUMPDEST PUSH1 0x1 DUP2 PUSH1 0x4 ADD PUSH1 0x0 PUSH2 0x100 EXP DUP2 SLOAD DUP2 PUSH1 0xFF MUL NOT AND SWAP1 DUP4 ISZERO ISZERO MUL OR SWAP1 SSTORE POP POP POP POP JUMP JUMPDEST PUSH1 0x2 SLOAD DUP2 JUMP JUMPDEST PUSH1 0x0 DUP1 PUSH1 0x4 PUSH1 0x0 SWAP1 SLOAD SWAP1 PUSH2 0x100 EXP SWAP1 DIV PUSH20 0xFFFFFFFFFFFFFFFFFFFFFFFFFFFFFFFFFFFFFFFF AND PUSH20 0xFFFFFFFFFFFFFFFFFFFFFFFFFFFFFFFFFFFFFFFF AND PUSH4 0x70A08231 CALLER PUSH1 0x40 MLOAD DUP3 PUSH4 0xFFFFFFFF AND PUSH1 0xE0 SHL DUP2 MSTORE PUSH1 0x4 ADD PUSH2 0x62C SWAP2 SWAP1 PUSH2 0xFAF JUMP JUMPDEST PUSH1 0x20 PUSH1 0x40 MLOAD DUP1 DUP4 SUB DUP2 DUP7 DUP1 EXTCODESIZE ISZERO DUP1 ISZERO PUSH2 0x644 JUMPI PUSH1 0x0 DUP1 REVERT JUMPDEST POP GAS STATICCALL ISZERO DUP1 ISZERO PUSH2 0x658 JUMPI RETURNDATASIZE PUSH1 0x0 DUP1 RETURNDATACOPY RETURNDATASIZE PUSH1 0x0 REVERT JUMPDEST POP POP POP POP PUSH1 0x40 MLOAD RETURNDATASIZE PUSH1 0x1F NOT PUSH1 0x1F DUP3 ADD AND DUP3 ADD DUP1 PUSH1 0x40 MSTORE POP DUP2 ADD SWAP1 PUSH2 0x67C SWAP2 SWAP1 PUSH2 0x109D JUMP JUMPDEST GT PUSH2 0x6BC JUMPI PUSH1 0x40 MLOAD PUSH32 0x8C379A000000000000000000000000000000000000000000000000000000000 DUP2 MSTORE PUSH1 0x4 ADD PUSH2 0x6B3 SWAP1 PUSH2 0x1127 JUMP JUMPDEST PUSH1 0x40 MLOAD DUP1 SWAP2 SUB SWAP1 REVERT JUMPDEST PUSH1 0x3 PUSH1 0x0 SWAP1 SLOAD SWAP1 PUSH2 0x100 EXP SWAP1 DIV PUSH20 0xFFFFFFFFFFFFFFFFFFFFFFFFFFFFFFFFFFFFFFFF AND PUSH20 0xFFFFFFFFFFFFFFFFFFFFFFFFFFFFFFFFFFFFFFFF AND PUSH4 0x96E494E8 DUP4 PUSH1 0x40 MLOAD DUP3 PUSH4 0xFFFFFFFF AND PUSH1 0xE0 SHL DUP2 MSTORE PUSH1 0x4 ADD PUSH2 0x717 SWAP2 SWAP1 PUSH2 0xF53 JUMP JUMPDEST PUSH1 0x20 PUSH1 0x40 MLOAD DUP1 DUP4 SUB DUP2 DUP7 DUP1 EXTCODESIZE ISZERO DUP1 ISZERO PUSH2 0x72F JUMPI PUSH1 0x0 DUP1 REVERT JUMPDEST POP GAS STATICCALL ISZERO DUP1 ISZERO PUSH2 0x743 JUMPI RETURNDATASIZE PUSH1 0x0 DUP1 RETURNDATACOPY RETURNDATASIZE PUSH1 0x0 REVERT JUMPDEST POP POP POP POP PUSH1 0x40 MLOAD RETURNDATASIZE PUSH1 0x1F NOT PUSH1 0x1F DUP3 ADD AND DUP3 ADD DUP1 PUSH1 0x40 MSTORE POP DUP2 ADD SWAP1 PUSH2 0x767 SWAP2 SWAP1 PUSH2 0x12B7 JUMP JUMPDEST PUSH2 0x7A6 JUMPI PUSH1 0x40 MLOAD PUSH32 0x8C379A000000000000000000000000000000000000000000000000000000000 DUP2 MSTORE PUSH1 0x4 ADD PUSH2 0x79D SWAP1 PUSH2 0x1330 JUMP JUMPDEST PUSH1 0x40 MLOAD DUP1 SWAP2 SUB SWAP1 REVERT JUMPDEST PUSH1 0x0 PUSH1 0x1 PUSH1 0x0 PUSH1 0x2 SLOAD DUP2 MSTORE PUSH1 0x20 ADD SWAP1 DUP2 MSTORE PUSH1 0x20 ADD PUSH1 0x0 KECCAK256 SWAP1 POP DUP3 DUP2 PUSH1 0x0 ADD DUP2 SWAP1 SSTORE POP PUSH2 0x12C TIMESTAMP PUSH2 0x7D6 SWAP2 SWAP1 PUSH2 0x137F JUMP JUMPDEST DUP2 PUSH1 0x1 ADD DUP2 SWAP1 SSTORE POP PUSH1 0x2 PUSH1 0x0 DUP2 SLOAD DUP1 SWAP3 SWAP2 SWAP1 PUSH2 0x7F1 SWAP1 PUSH2 0x13D5 JUMP JUMPDEST SWAP2 SWAP1 POP SSTORE POP PUSH1 0x1 PUSH1 0x2 SLOAD PUSH2 0x805 SWAP2 SWAP1 PUSH2 0x141E JUMP JUMPDEST SWAP2 POP POP SWAP2 SWAP1 POP JUMP JUMPDEST PUSH2 0x815 PUSH2 0xD24 JUMP JUMPDEST PUSH2 0x81F PUSH1 0x0 PUSH2 0xDA2 JUMP JUMPDEST JUMP JUMPDEST PUSH2 0x829 PUSH2 0xD24 JUMP JUMPDEST PUSH2 0x831 PUSH2 0x879 JUMP JUMPDEST PUSH20 0xFFFFFFFFFFFFFFFFFFFFFFFFFFFFFFFFFFFFFFFF AND PUSH2 0x8FC SELFBALANCE SWAP1 DUP2 ISZERO MUL SWAP1 PUSH1 0x40 MLOAD PUSH1 0x0 PUSH1 0x40 MLOAD DUP1 DUP4 SUB DUP2 DUP6 DUP9 DUP9 CALL SWAP4 POP POP POP POP ISZERO DUP1 ISZERO PUSH2 0x876 JUMPI RETURNDATASIZE PUSH1 0x0 DUP1 RETURNDATACOPY RETURNDATASIZE PUSH1 0x0 REVERT JUMPDEST POP JUMP JUMPDEST PUSH1 0x0 DUP1 PUSH1 0x0 SWAP1 SLOAD SWAP1 PUSH2 0x100 EXP SWAP1 DIV PUSH20 0xFFFFFFFFFFFFFFFFFFFFFFFFFFFFFFFFFFFFFFFF AND SWAP1 POP SWAP1 JUMP JUMPDEST PUSH1 0x0 PUSH1 0x4 PUSH1 0x0 SWAP1 SLOAD SWAP1 PUSH2 0x100 EXP SWAP1 DIV PUSH20 0xFFFFFFFFFFFFFFFFFFFFFFFFFFFFFFFFFFFFFFFF AND PUSH20 0xFFFFFFFFFFFFFFFFFFFFFFFFFFFFFFFFFFFFFFFF AND PUSH4 0x70A08231 CALLER PUSH1 0x40 MLOAD DUP3 PUSH4 0xFFFFFFFF AND PUSH1 0xE0 SHL DUP2 MSTORE PUSH1 0x4 ADD PUSH2 0x8FF SWAP2 SWAP1 PUSH2 0xFAF JUMP JUMPDEST PUSH1 0x20 PUSH1 0x40 MLOAD DUP1 DUP4 SUB DUP2 DUP7 DUP1 EXTCODESIZE ISZERO DUP1 ISZERO PUSH2 0x917 JUMPI PUSH1 0x0 DUP1 REVERT JUMPDEST POP GAS STATICCALL ISZERO DUP1 ISZERO PUSH2 0x92B JUMPI RETURNDATASIZE PUSH1 0x0 DUP1 RETURNDATACOPY RETURNDATASIZE PUSH1 0x0 REVERT JUMPDEST POP POP POP POP PUSH1 0x40 MLOAD RETURNDATASIZE PUSH1 0x1F NOT PUSH1 0x1F DUP3 ADD AND DUP3 ADD DUP1 PUSH1 0x40 MSTORE POP DUP2 ADD SWAP1 PUSH2 0x94F SWAP2 SWAP1 PUSH2 0x109D JUMP JUMPDEST GT PUSH2 0x98F JUMPI PUSH1 0x40 MLOAD PUSH32 0x8C379A000000000000000000000000000000000000000000000000000000000 DUP2 MSTORE PUSH1 0x4 ADD PUSH2 0x986 SWAP1 PUSH2 0x1127 JUMP JUMPDEST PUSH1 0x40 MLOAD DUP1 SWAP2 SUB SWAP1 REVERT JUMPDEST DUP2 TIMESTAMP PUSH1 0x1 PUSH1 0x0 DUP4 DUP2 MSTORE PUSH1 0x20 ADD SWAP1 DUP2 MSTORE PUSH1 0x20 ADD PUSH1 0x0 KECCAK256 PUSH1 0x1 ADD SLOAD GT PUSH2 0x9E8 JUMPI PUSH1 0x40 MLOAD PUSH32 0x8C379A000000000000000000000000000000000000000000000000000000000 DUP2 MSTORE PUSH1 0x4 ADD PUSH2 0x9DF SWAP1 PUSH2 0x149E JUMP JUMPDEST PUSH1 0x40 MLOAD DUP1 SWAP2 SUB SWAP1 REVERT JUMPDEST PUSH1 0x0 PUSH1 0x1 PUSH1 0x0 DUP6 DUP2 MSTORE PUSH1 0x20 ADD SWAP1 DUP2 MSTORE PUSH1 0x20 ADD PUSH1 0x0 KECCAK256 SWAP1 POP PUSH1 0x0 PUSH1 0x4 PUSH1 0x0 SWAP1 SLOAD SWAP1 PUSH2 0x100 EXP SWAP1 DIV PUSH20 0xFFFFFFFFFFFFFFFFFFFFFFFFFFFFFFFFFFFFFFFF AND PUSH20 0xFFFFFFFFFFFFFFFFFFFFFFFFFFFFFFFFFFFFFFFF AND PUSH4 0x70A08231 CALLER PUSH1 0x40 MLOAD DUP3 PUSH4 0xFFFFFFFF AND PUSH1 0xE0 SHL DUP2 MSTORE PUSH1 0x4 ADD PUSH2 0xA5C SWAP2 SWAP1 PUSH2 0xFAF JUMP JUMPDEST PUSH1 0x20 PUSH1 0x40 MLOAD DUP1 DUP4 SUB DUP2 DUP7 DUP1 EXTCODESIZE ISZERO DUP1 ISZERO PUSH2 0xA74 JUMPI PUSH1 0x0 DUP1 REVERT JUMPDEST POP GAS STATICCALL ISZERO DUP1 ISZERO PUSH2 0xA88 JUMPI RETURNDATASIZE PUSH1 0x0 DUP1 RETURNDATACOPY RETURNDATASIZE PUSH1 0x0 REVERT JUMPDEST POP POP POP POP PUSH1 0x40 MLOAD RETURNDATASIZE PUSH1 0x1F NOT PUSH1 0x1F DUP3 ADD AND DUP3 ADD DUP1 PUSH1 0x40 MSTORE POP DUP2 ADD SWAP1 PUSH2 0xAAC SWAP2 SWAP1 PUSH2 0x109D JUMP JUMPDEST SWAP1 POP PUSH1 0x0 DUP1 JUMPDEST DUP3 DUP2 LT ISZERO PUSH2 0xBEB JUMPI PUSH1 0x0 PUSH1 0x4 PUSH1 0x0 SWAP1 SLOAD SWAP1 PUSH2 0x100 EXP SWAP1 DIV PUSH20 0xFFFFFFFFFFFFFFFFFFFFFFFFFFFFFFFFFFFFFFFF AND PUSH20 0xFFFFFFFFFFFFFFFFFFFFFFFFFFFFFFFFFFFFFFFF AND PUSH4 0x2F745C59 CALLER DUP5 PUSH1 0x40 MLOAD DUP4 PUSH4 0xFFFFFFFF AND PUSH1 0xE0 SHL DUP2 MSTORE PUSH1 0x4 ADD PUSH2 0xB19 SWAP3 SWAP2 SWAP1 PUSH2 0x14BE JUMP JUMPDEST PUSH1 0x20 PUSH1 0x40 MLOAD DUP1 DUP4 SUB DUP2 DUP7 DUP1 EXTCODESIZE ISZERO DUP1 ISZERO PUSH2 0xB31 JUMPI PUSH1 0x0 DUP1 REVERT JUMPDEST POP GAS STATICCALL ISZERO DUP1 ISZERO PUSH2 0xB45 JUMPI RETURNDATASIZE PUSH1 0x0 DUP1 RETURNDATACOPY RETURNDATASIZE PUSH1 0x0 REVERT JUMPDEST POP POP POP POP PUSH1 0x40 MLOAD RETURNDATASIZE PUSH1 0x1F NOT PUSH1 0x1F DUP3 ADD AND DUP3 ADD DUP1 PUSH1 0x40 MSTORE POP DUP2 ADD SWAP1 PUSH2 0xB69 SWAP2 SWAP1 PUSH2 0x109D JUMP JUMPDEST SWAP1 POP PUSH1 0x0 ISZERO ISZERO DUP6 PUSH1 0x5 ADD PUSH1 0x0 DUP4 DUP2 MSTORE PUSH1 0x20 ADD SWAP1 DUP2 MSTORE PUSH1 0x20 ADD PUSH1 0x0 KECCAK256 PUSH1 0x0 SWAP1 SLOAD SWAP1 PUSH2 0x100 EXP SWAP1 DIV PUSH1 0xFF AND ISZERO ISZERO EQ ISZERO PUSH2 0xBD7 JUMPI DUP3 DUP1 PUSH2 0xBA5 SWAP1 PUSH2 0x13D5 JUMP JUMPDEST SWAP4 POP POP PUSH1 0x1 DUP6 PUSH1 0x5 ADD PUSH1 0x0 DUP4 DUP2 MSTORE PUSH1 0x20 ADD SWAP1 DUP2 MSTORE PUSH1 0x20 ADD PUSH1 0x0 KECCAK256 PUSH1 0x0 PUSH2 0x100 EXP DUP2 SLOAD DUP2 PUSH1 0xFF MUL NOT AND SWAP1 DUP4 ISZERO ISZERO MUL OR SWAP1 SSTORE POP JUMPDEST POP DUP1 DUP1 PUSH2 0xBE3 SWAP1 PUSH2 0x13D5 JUMP JUMPDEST SWAP2 POP POP PUSH2 0xAB2 JUMP JUMPDEST POP PUSH1 0x0 DUP2 GT PUSH2 0xC2F JUMPI PUSH1 0x40 MLOAD PUSH32 0x8C379A000000000000000000000000000000000000000000000000000000000 DUP2 MSTORE PUSH1 0x4 ADD PUSH2 0xC26 SWAP1 PUSH2 0x1533 JUMP JUMPDEST PUSH1 0x40 MLOAD DUP1 SWAP2 SUB SWAP1 REVERT JUMPDEST PUSH1 0x0 PUSH1 0x1 DUP2 GT ISZERO PUSH2 0xC43 JUMPI PUSH2 0xC42 PUSH2 0x1553 JUMP JUMPDEST JUMPDEST DUP6 PUSH1 0x1 DUP2 GT ISZERO PUSH2 0xC56 JUMPI PUSH2 0xC55 PUSH2 0x1553 JUMP JUMPDEST JUMPDEST EQ ISZERO PUSH2 0xC7C JUMPI DUP1 DUP4 PUSH1 0x2 ADD PUSH1 0x0 DUP3 DUP3 SLOAD PUSH2 0xC70 SWAP2 SWAP1 PUSH2 0x137F JUMP JUMPDEST SWAP3 POP POP DUP2 SWAP1 SSTORE POP PUSH2 0xC98 JUMP JUMPDEST DUP1 DUP4 PUSH1 0x3 ADD PUSH1 0x0 DUP3 DUP3 SLOAD PUSH2 0xC90 SWAP2 SWAP1 PUSH2 0x137F JUMP JUMPDEST SWAP3 POP POP DUP2 SWAP1 SSTORE POP JUMPDEST POP POP POP POP POP POP JUMP JUMPDEST PUSH2 0xCA8 PUSH2 0xD24 JUMP JUMPDEST PUSH1 0x0 PUSH20 0xFFFFFFFFFFFFFFFFFFFFFFFFFFFFFFFFFFFFFFFF AND DUP2 PUSH20 0xFFFFFFFFFFFFFFFFFFFFFFFFFFFFFFFFFFFFFFFF AND EQ ISZERO PUSH2 0xD18 JUMPI PUSH1 0x40 MLOAD PUSH32 0x8C379A000000000000000000000000000000000000000000000000000000000 DUP2 MSTORE PUSH1 0x4 ADD PUSH2 0xD0F SWAP1 PUSH2 0x15F4 JUMP JUMPDEST PUSH1 0x40 MLOAD DUP1 SWAP2 SUB SWAP1 REVERT JUMPDEST PUSH2 0xD21 DUP2 PUSH2 0xDA2 JUMP JUMPDEST POP JUMP JUMPDEST PUSH2 0xD2C PUSH2 0xE66 JUMP JUMPDEST PUSH20 0xFFFFFFFFFFFFFFFFFFFFFFFFFFFFFFFFFFFFFFFF AND PUSH2 0xD4A PUSH2 0x879 JUMP JUMPDEST PUSH20 0xFFFFFFFFFFFFFFFFFFFFFFFFFFFFFFFFFFFFFFFF AND EQ PUSH2 0xDA0 JUMPI PUSH1 0x40 MLOAD PUSH32 0x8C379A000000000000000000000000000000000000000000000000000000000 DUP2 MSTORE PUSH1 0x4 ADD PUSH2 0xD97 SWAP1 PUSH2 0x1660 JUMP JUMPDEST PUSH1 0x40 MLOAD DUP1 SWAP2 SUB SWAP1 REVERT JUMPDEST JUMP JUMPDEST PUSH1 0x0 DUP1 PUSH1 0x0 SWAP1 SLOAD SWAP1 PUSH2 0x100 EXP SWAP1 DIV PUSH20 0xFFFFFFFFFFFFFFFFFFFFFFFFFFFFFFFFFFFFFFFF AND SWAP1 POP DUP2 PUSH1 0x0 DUP1 PUSH2 0x100 EXP DUP2 SLOAD DUP2 PUSH20 0xFFFFFFFFFFFFFFFFFFFFFFFFFFFFFFFFFFFFFFFF MUL NOT AND SWAP1 DUP4 PUSH20 0xFFFFFFFFFFFFFFFFFFFFFFFFFFFFFFFFFFFFFFFF AND MUL OR SWAP1 SSTORE POP DUP2 PUSH20 0xFFFFFFFFFFFFFFFFFFFFFFFFFFFFFFFFFFFFFFFF AND DUP2 PUSH20 0xFFFFFFFFFFFFFFFFFFFFFFFFFFFFFFFFFFFFFFFF AND PUSH32 0x8BE0079C531659141344CD1FD0A4F28419497F9722A3DAAFE3B4186F6B6457E0 PUSH1 0x40 MLOAD PUSH1 0x40 MLOAD DUP1 SWAP2 SUB SWAP1 LOG3 POP POP JUMP JUMPDEST PUSH1 0x0 CALLER SWAP1 POP SWAP1 JUMP JUMPDEST PUSH1 0x0 DUP1 REVERT JUMPDEST PUSH1 0x0 DUP2 SWAP1 POP SWAP2 SWAP1 POP JUMP JUMPDEST PUSH2 0xE86 DUP2 PUSH2 0xE73 JUMP JUMPDEST DUP2 EQ PUSH2 0xE91 JUMPI PUSH1 0x0 DUP1 REVERT JUMPDEST POP JUMP JUMPDEST PUSH1 0x0 DUP2 CALLDATALOAD SWAP1 POP PUSH2 0xEA3 DUP2 PUSH2 0xE7D JUMP JUMPDEST SWAP3 SWAP2 POP POP JUMP JUMPDEST PUSH1 0x0 PUSH1 0x20 DUP3 DUP5 SUB SLT ISZERO PUSH2 0xEBF JUMPI PUSH2 0xEBE PUSH2 0xE6E JUMP JUMPDEST JUMPDEST PUSH1 0x0 PUSH2 0xECD DUP5 DUP3 DUP6 ADD PUSH2 0xE94 JUMP JUMPDEST SWAP2 POP POP SWAP3 SWAP2 POP POP JUMP JUMPDEST PUSH2 0xEDF DUP2 PUSH2 0xE73 JUMP JUMPDEST DUP3 MSTORE POP POP JUMP JUMPDEST PUSH1 0x0 DUP2 ISZERO ISZERO SWAP1 POP SWAP2 SWAP1 POP JUMP JUMPDEST PUSH2 0xEFA DUP2 PUSH2 0xEE5 JUMP JUMPDEST DUP3 MSTORE POP POP JUMP JUMPDEST PUSH1 0x0 PUSH1 0xA0 DUP3 ADD SWAP1 POP PUSH2 0xF15 PUSH1 0x0 DUP4 ADD DUP9 PUSH2 0xED6 JUMP JUMPDEST PUSH2 0xF22 PUSH1 0x20 DUP4 ADD DUP8 PUSH2 0xED6 JUMP JUMPDEST PUSH2 0xF2F PUSH1 0x40 DUP4 ADD DUP7 PUSH2 0xED6 JUMP JUMPDEST PUSH2 0xF3C PUSH1 0x60 DUP4 ADD DUP6 PUSH2 0xED6 JUMP JUMPDEST PUSH2 0xF49 PUSH1 0x80 DUP4 ADD DUP5 PUSH2 0xEF1 JUMP JUMPDEST SWAP7 SWAP6 POP POP POP POP POP POP JUMP JUMPDEST PUSH1 0x0 PUSH1 0x20 DUP3 ADD SWAP1 POP PUSH2 0xF68 PUSH1 0x0 DUP4 ADD DUP5 PUSH2 0xED6 JUMP JUMPDEST SWAP3 SWAP2 POP POP JUMP JUMPDEST PUSH1 0x0 PUSH20 0xFFFFFFFFFFFFFFFFFFFFFFFFFFFFFFFFFFFFFFFF DUP3 AND SWAP1 POP SWAP2 SWAP1 POP JUMP JUMPDEST PUSH1 0x0 PUSH2 0xF99 DUP3 PUSH2 0xF6E JUMP JUMPDEST SWAP1 POP SWAP2 SWAP1 POP JUMP JUMPDEST PUSH2 0xFA9 DUP2 PUSH2 0xF8E JUMP JUMPDEST DUP3 MSTORE POP POP JUMP JUMPDEST PUSH1 0x0 PUSH1 0x20 DUP3 ADD SWAP1 POP PUSH2 0xFC4 PUSH1 0x0 DUP4 ADD DUP5 PUSH2 0xFA0 JUMP JUMPDEST SWAP3 SWAP2 POP POP JUMP JUMPDEST PUSH1 0x2 DUP2 LT PUSH2 0xFD7 JUMPI PUSH1 0x0 DUP1 REVERT JUMPDEST POP JUMP JUMPDEST PUSH1 0x0 DUP2 CALLDATALOAD SWAP1 POP PUSH2 0xFE9 DUP2 PUSH2 0xFCA JUMP JUMPDEST SWAP3 SWAP2 POP POP JUMP JUMPDEST PUSH1 0x0 DUP1 PUSH1 0x40 DUP4 DUP6 SUB SLT ISZERO PUSH2 0x1006 JUMPI PUSH2 0x1005 PUSH2 0xE6E JUMP JUMPDEST JUMPDEST PUSH1 0x0 PUSH2 0x1014 DUP6 DUP3 DUP7 ADD PUSH2 0xE94 JUMP JUMPDEST SWAP3 POP POP PUSH1 0x20 PUSH2 0x1025 DUP6 DUP3 DUP7 ADD PUSH2 0xFDA JUMP JUMPDEST SWAP2 POP POP SWAP3 POP SWAP3 SWAP1 POP JUMP JUMPDEST PUSH2 0x1038 DUP2 PUSH2 0xF8E JUMP JUMPDEST DUP2 EQ PUSH2 0x1043 JUMPI PUSH1 0x0 DUP1 REVERT JUMPDEST POP JUMP JUMPDEST PUSH1 0x0 DUP2 CALLDATALOAD SWAP1 POP PUSH2 0x1055 DUP2 PUSH2 0x102F JUMP JUMPDEST SWAP3 SWAP2 POP POP JUMP JUMPDEST PUSH1 0x0 PUSH1 0x20 DUP3 DUP5 SUB SLT ISZERO PUSH2 0x1071 JUMPI PUSH2 0x1070 PUSH2 0xE6E JUMP JUMPDEST JUMPDEST PUSH1 0x0 PUSH2 0x107F DUP5 DUP3 DUP6 ADD PUSH2 0x1046 JUMP JUMPDEST SWAP2 POP POP SWAP3 SWAP2 POP POP JUMP JUMPDEST PUSH1 0x0 DUP2 MLOAD SWAP1 POP PUSH2 0x1097 DUP2 PUSH2 0xE7D JUMP JUMPDEST SWAP3 SWAP2 POP POP JUMP JUMPDEST PUSH1 0x0 PUSH1 0x20 DUP3 DUP5 SUB SLT ISZERO PUSH2 0x10B3 JUMPI PUSH2 0x10B2 PUSH2 0xE6E JUMP JUMPDEST JUMPDEST PUSH1 0x0 PUSH2 0x10C1 DUP5 DUP3 DUP6 ADD PUSH2 0x1088 JUMP JUMPDEST SWAP2 POP POP SWAP3 SWAP2 POP POP JUMP JUMPDEST PUSH1 0x0 DUP3 DUP3 MSTORE PUSH1 0x20 DUP3 ADD SWAP1 POP SWAP3 SWAP2 POP POP JUMP JUMPDEST PUSH32 0x4E6F7420612044414F204D656D62657200000000000000000000000000000000 PUSH1 0x0 DUP3 ADD MSTORE POP JUMP JUMPDEST PUSH1 0x0 PUSH2 0x1111 PUSH1 0x10 DUP4 PUSH2 0x10CA JUMP JUMPDEST SWAP2 POP PUSH2 0x111C DUP3 PUSH2 0x10DB JUMP JUMPDEST PUSH1 0x20 DUP3 ADD SWAP1 POP SWAP2 SWAP1 POP JUMP JUMPDEST PUSH1 0x0 PUSH1 0x20 DUP3 ADD SWAP1 POP DUP2 DUP2 SUB PUSH1 0x0 DUP4 ADD MSTORE PUSH2 0x1140 DUP2 PUSH2 0x1104 JUMP JUMPDEST SWAP1 POP SWAP2 SWAP1 POP JUMP JUMPDEST PUSH32 0x446561646C696E65206E6F742065786365656465640000000000000000000000 PUSH1 0x0 DUP3 ADD MSTORE POP JUMP JUMPDEST PUSH1 0x0 PUSH2 0x117D PUSH1 0x15 DUP4 PUSH2 0x10CA JUMP JUMPDEST SWAP2 POP PUSH2 0x1188 DUP3 PUSH2 0x1147 JUMP JUMPDEST PUSH1 0x20 DUP3 ADD SWAP1 POP SWAP2 SWAP1 POP JUMP JUMPDEST PUSH1 0x0 PUSH1 0x20 DUP3 ADD SWAP1 POP DUP2 DUP2 SUB PUSH1 0x0 DUP4 ADD MSTORE PUSH2 0x11AC DUP2 PUSH2 0x1170 JUMP JUMPDEST SWAP1 POP SWAP2 SWAP1 POP JUMP JUMPDEST PUSH32 0x50726F706F73616C20616C726561647920657865637574656400000000000000 PUSH1 0x0 DUP3 ADD MSTORE POP JUMP JUMPDEST PUSH1 0x0 PUSH2 0x11E9 PUSH1 0x19 DUP4 PUSH2 0x10CA JUMP JUMPDEST SWAP2 POP PUSH2 0x11F4 DUP3 PUSH2 0x11B3 JUMP JUMPDEST PUSH1 0x20 DUP3 ADD SWAP1 POP SWAP2 SWAP1 POP JUMP JUMPDEST PUSH1 0x0 PUSH1 0x20 DUP3 ADD SWAP1 POP DUP2 DUP2 SUB PUSH1 0x0 DUP4 ADD MSTORE PUSH2 0x1218 DUP2 PUSH2 0x11DC JUMP JUMPDEST SWAP1 POP SWAP2 SWAP1 POP JUMP JUMPDEST PUSH32 0x4E6F7420656E6F7567682046756E647300000000000000000000000000000000 PUSH1 0x0 DUP3 ADD MSTORE POP JUMP JUMPDEST PUSH1 0x0 PUSH2 0x1255 PUSH1 0x10 DUP4 PUSH2 0x10CA JUMP JUMPDEST SWAP2 POP PUSH2 0x1260 DUP3 PUSH2 0x121F JUMP JUMPDEST PUSH1 0x20 DUP3 ADD SWAP1 POP SWAP2 SWAP1 POP JUMP JUMPDEST PUSH1 0x0 PUSH1 0x20 DUP3 ADD SWAP1 POP DUP2 DUP2 SUB PUSH1 0x0 DUP4 ADD MSTORE PUSH2 0x1284 DUP2 PUSH2 0x1248 JUMP JUMPDEST SWAP1 POP SWAP2 SWAP1 POP JUMP JUMPDEST PUSH2 0x1294 DUP2 PUSH2 0xEE5 JUMP JUMPDEST DUP2 EQ PUSH2 0x129F JUMPI PUSH1 0x0 DUP1 REVERT JUMPDEST POP JUMP JUMPDEST PUSH1 0x0 DUP2 MLOAD SWAP1 POP PUSH2 0x12B1 DUP2 PUSH2 0x128B JUMP JUMPDEST SWAP3 SWAP2 POP POP JUMP JUMPDEST PUSH1 0x0 PUSH1 0x20 DUP3 DUP5 SUB SLT ISZERO PUSH2 0x12CD JUMPI PUSH2 0x12CC PUSH2 0xE6E JUMP JUMPDEST JUMPDEST PUSH1 0x0 PUSH2 0x12DB DUP5 DUP3 DUP6 ADD PUSH2 0x12A2 JUMP JUMPDEST SWAP2 POP POP SWAP3 SWAP2 POP POP JUMP JUMPDEST PUSH32 0x4E4654206E6F7420666F722073616C6500000000000000000000000000000000 PUSH1 0x0 DUP3 ADD MSTORE POP JUMP JUMPDEST PUSH1 0x0 PUSH2 0x131A PUSH1 0x10 DUP4 PUSH2 0x10CA JUMP JUMPDEST SWAP2 POP PUSH2 0x1325 DUP3 PUSH2 0x12E4 JUMP JUMPDEST PUSH1 0x20 DUP3 ADD SWAP1 POP SWAP2 SWAP1 POP JUMP JUMPDEST PUSH1 0x0 PUSH1 0x20 DUP3 ADD SWAP1 POP DUP2 DUP2 SUB PUSH1 0x0 DUP4 ADD MSTORE PUSH2 0x1349 DUP2 PUSH2 0x130D JUMP JUMPDEST SWAP1 POP SWAP2 SWAP1 POP JUMP JUMPDEST PUSH32 0x4E487B7100000000000000000000000000000000000000000000000000000000 PUSH1 0x0 MSTORE PUSH1 0x11 PUSH1 0x4 MSTORE PUSH1 0x24 PUSH1 0x0 REVERT JUMPDEST PUSH1 0x0 PUSH2 0x138A DUP3 PUSH2 0xE73 JUMP JUMPDEST SWAP2 POP PUSH2 0x1395 DUP4 PUSH2 0xE73 JUMP JUMPDEST SWAP3 POP DUP3 PUSH32 0xFFFFFFFFFFFFFFFFFFFFFFFFFFFFFFFFFFFFFFFFFFFFFFFFFFFFFFFFFFFFFFFF SUB DUP3 GT ISZERO PUSH2 0x13CA JUMPI PUSH2 0x13C9 PUSH2 0x1350 JUMP JUMPDEST JUMPDEST DUP3 DUP3 ADD SWAP1 POP SWAP3 SWAP2 POP POP JUMP JUMPDEST PUSH1 0x0 PUSH2 0x13E0 DUP3 PUSH2 0xE73 JUMP JUMPDEST SWAP2 POP PUSH32 0xFFFFFFFFFFFFFFFFFFFFFFFFFFFFFFFFFFFFFFFFFFFFFFFFFFFFFFFFFFFFFFFF DUP3 EQ ISZERO PUSH2 0x1413 JUMPI PUSH2 0x1412 PUSH2 0x1350 JUMP JUMPDEST JUMPDEST PUSH1 0x1 DUP3 ADD SWAP1 POP SWAP2 SWAP1 POP JUMP JUMPDEST PUSH1 0x0 PUSH2 0x1429 DUP3 PUSH2 0xE73 JUMP JUMPDEST SWAP2 POP PUSH2 0x1434 DUP4 PUSH2 0xE73 JUMP JUMPDEST SWAP3 POP DUP3 DUP3 LT ISZERO PUSH2 0x1447 JUMPI PUSH2 0x1446 PUSH2 0x1350 JUMP JUMPDEST JUMPDEST DUP3 DUP3 SUB SWAP1 POP SWAP3 SWAP2 POP POP JUMP JUMPDEST PUSH32 0x446561646C696E65206578636565646564000000000000000000000000000000 PUSH1 0x0 DUP3 ADD MSTORE POP JUMP JUMPDEST PUSH1 0x0 PUSH2 0x1488 PUSH1 0x11 DUP4 PUSH2 0x10CA JUMP JUMPDEST SWAP2 POP PUSH2 0x1493 DUP3 PUSH2 0x1452 JUMP JUMPDEST PUSH1 0x20 DUP3 ADD SWAP1 POP SWAP2 SWAP1 POP JUMP JUMPDEST PUSH1 0x0 PUSH1 0x20 DUP3 ADD SWAP1 POP DUP2 DUP2 SUB PUSH1 0x0 DUP4 ADD MSTORE PUSH2 0x14B7 DUP2 PUSH2 0x147B JUMP JUMPDEST SWAP1 POP SWAP2 SWAP1 POP JUMP JUMPDEST PUSH1 0x0 PUSH1 0x40 DUP3 ADD SWAP1 POP PUSH2 0x14D3 PUSH1 0x0 DUP4 ADD DUP6 PUSH2 0xFA0 JUMP JUMPDEST PUSH2 0x14E0 PUSH1 0x20 DUP4 ADD DUP5 PUSH2 0xED6 JUMP JUMPDEST SWAP4 SWAP3 POP POP POP JUMP JUMPDEST PUSH32 0x416C726561647920766F74656400000000000000000000000000000000000000 PUSH1 0x0 DUP3 ADD MSTORE POP JUMP JUMPDEST PUSH1 0x0 PUSH2 0x151D PUSH1 0xD DUP4 PUSH2 0x10CA JUMP JUMPDEST SWAP2 POP PUSH2 0x1528 DUP3 PUSH2 0x14E7 JUMP JUMPDEST PUSH1 0x20 DUP3 ADD SWAP1 POP SWAP2 SWAP1 POP JUMP JUMPDEST PUSH1 0x0 PUSH1 0x20 DUP3 ADD SWAP1 POP DUP2 DUP2 SUB PUSH1 0x0 DUP4 ADD MSTORE PUSH2 0x154C DUP2 PUSH2 0x1510 JUMP JUMPDEST SWAP1 POP SWAP2 SWAP1 POP JUMP JUMPDEST PUSH32 0x4E487B7100000000000000000000000000000000000000000000000000000000 PUSH1 0x0 MSTORE PUSH1 0x21 PUSH1 0x4 MSTORE PUSH1 0x24 PUSH1 0x0 REVERT JUMPDEST PUSH32 0x4F776E61626C653A206E6577206F776E657220697320746865207A65726F2061 PUSH1 0x0 DUP3 ADD MSTORE PUSH32 0x6464726573730000000000000000000000000000000000000000000000000000 PUSH1 0x20 DUP3 ADD MSTORE POP JUMP JUMPDEST PUSH1 0x0 PUSH2 0x15DE PUSH1 0x26 DUP4 PUSH2 0x10CA JUMP JUMPDEST SWAP2 POP PUSH2 0x15E9 DUP3 PUSH2 0x1582 JUMP JUMPDEST PUSH1 0x40 DUP3 ADD SWAP1 POP SWAP2 SWAP1 POP JUMP JUMPDEST PUSH1 0x0 PUSH1 0x20 DUP3 ADD SWAP1 POP DUP2 DUP2 SUB PUSH1 0x0 DUP4 ADD MSTORE PUSH2 0x160D DUP2 PUSH2 0x15D1 JUMP JUMPDEST SWAP1 POP SWAP2 SWAP1 POP JUMP JUMPDEST PUSH32 0x4F776E61626C653A2063616C6C6572206973206E6F7420746865206F776E6572 PUSH1 0x0 DUP3 ADD MSTORE POP JUMP JUMPDEST PUSH1 0x0 PUSH2 0x164A PUSH1 0x20 DUP4 PUSH2 0x10CA JUMP JUMPDEST SWAP2 POP PUSH2 0x1655 DUP3 PUSH2 0x1614 JUMP JUMPDEST PUSH1 0x20 DUP3 ADD SWAP1 POP SWAP2 SWAP1 POP JUMP JUMPDEST PUSH1 0x0 PUSH1 0x20 DUP3 ADD SWAP1 POP DUP2 DUP2 SUB PUSH1 0x0 DUP4 ADD MSTORE PUSH2 0x1679 DUP2 PUSH2 0x163D JUMP JUMPDEST SWAP1 POP SWAP2 SWAP1 POP JUMP INVALID LOG2 PUSH5 0x6970667358 0x22 SLT KECCAK256 0xBA MSTORE 0xB0 CALLDATASIZE 0xE3 PUSH27 0x163E272B9C05BB2C73CA66B006030BC8804B35AF4AB1E69056DC64 PUSH20 0x6F6C634300080900330000000000000000000000 "
				},
				"gasEstimates": {
					"creation": {
						"codeDepositCost": "1162800",
						"executionCost": "infinite",
						"totalCost": "infinite"
					},
					"external": {
						"": "174",
						"createProposal(uint256)": "infinite",
						"executeProposal(uint256)": "infinite",
						"numProposals()": "2474",
						"owner()": "2566",
						"proposals(uint256)": "infinite",
						"renounceOwnership()": "30398",
						"transferOwnership(address)": "30835",
						"voteOnProposal(uint256,uint8)": "infinite",
						"withdrawEther()": "infinite"
					}
				},
				"methodIdentifiers": {
					"createProposal(uint256)": "5a43dc00",
					"executeProposal(uint256)": "0d61b519",
					"numProposals()": "400e3949",
					"owner()": "8da5cb5b",
					"proposals(uint256)": "013cf08b",
					"renounceOwnership()": "715018a6",
					"transferOwnership(address)": "f2fde38b",
					"voteOnProposal(uint256,uint8)": "efafb22e",
					"withdrawEther()": "7362377b"
				}
			},
			"storageLayout": {
				"storage": [
					{
						"astId": 7,
						"contract": "hardhat-tutorial/contracts/CryptoDevsDAO.sol:CryptoDevsDAO",
						"label": "_owner",
						"offset": 0,
						"slot": "0",
						"type": "t_address"
					},
					{
						"astId": 196,
						"contract": "hardhat-tutorial/contracts/CryptoDevsDAO.sol:CryptoDevsDAO",
						"label": "proposals",
						"offset": 0,
						"slot": "1",
						"type": "t_mapping(t_uint256,t_struct(Proposal)191_storage)"
					},
					{
						"astId": 198,
						"contract": "hardhat-tutorial/contracts/CryptoDevsDAO.sol:CryptoDevsDAO",
						"label": "numProposals",
						"offset": 0,
						"slot": "2",
						"type": "t_uint256"
					},
					{
						"astId": 201,
						"contract": "hardhat-tutorial/contracts/CryptoDevsDAO.sol:CryptoDevsDAO",
						"label": "nftMarketPlace",
						"offset": 0,
						"slot": "3",
						"type": "t_contract(IFakeNFTMarketPlace)157"
					},
					{
						"astId": 204,
						"contract": "hardhat-tutorial/contracts/CryptoDevsDAO.sol:CryptoDevsDAO",
						"label": "cryptoDevsNFT",
						"offset": 0,
						"slot": "4",
						"type": "t_contract(ICryptoDevsNFT)174"
					}
				],
				"types": {
					"t_address": {
						"encoding": "inplace",
						"label": "address",
						"numberOfBytes": "20"
					},
					"t_bool": {
						"encoding": "inplace",
						"label": "bool",
						"numberOfBytes": "1"
					},
					"t_contract(ICryptoDevsNFT)174": {
						"encoding": "inplace",
						"label": "contract ICryptoDevsNFT",
						"numberOfBytes": "20"
					},
					"t_contract(IFakeNFTMarketPlace)157": {
						"encoding": "inplace",
						"label": "contract IFakeNFTMarketPlace",
						"numberOfBytes": "20"
					},
					"t_mapping(t_uint256,t_bool)": {
						"encoding": "mapping",
						"key": "t_uint256",
						"label": "mapping(uint256 => bool)",
						"numberOfBytes": "32",
						"value": "t_bool"
					},
					"t_mapping(t_uint256,t_struct(Proposal)191_storage)": {
						"encoding": "mapping",
						"key": "t_uint256",
						"label": "mapping(uint256 => struct CryptoDevsDAO.Proposal)",
						"numberOfBytes": "32",
						"value": "t_struct(Proposal)191_storage"
					},
					"t_struct(Proposal)191_storage": {
						"encoding": "inplace",
						"label": "struct CryptoDevsDAO.Proposal",
						"members": [
							{
								"astId": 178,
								"contract": "hardhat-tutorial/contracts/CryptoDevsDAO.sol:CryptoDevsDAO",
								"label": "nftTokenId",
								"offset": 0,
								"slot": "0",
								"type": "t_uint256"
							},
							{
								"astId": 180,
								"contract": "hardhat-tutorial/contracts/CryptoDevsDAO.sol:CryptoDevsDAO",
								"label": "deadline",
								"offset": 0,
								"slot": "1",
								"type": "t_uint256"
							},
							{
								"astId": 182,
								"contract": "hardhat-tutorial/contracts/CryptoDevsDAO.sol:CryptoDevsDAO",
								"label": "yesVotes",
								"offset": 0,
								"slot": "2",
								"type": "t_uint256"
							},
							{
								"astId": 184,
								"contract": "hardhat-tutorial/contracts/CryptoDevsDAO.sol:CryptoDevsDAO",
								"label": "noVotes",
								"offset": 0,
								"slot": "3",
								"type": "t_uint256"
							},
							{
								"astId": 186,
								"contract": "hardhat-tutorial/contracts/CryptoDevsDAO.sol:CryptoDevsDAO",
								"label": "executed",
								"offset": 0,
								"slot": "4",
								"type": "t_bool"
							},
							{
								"astId": 190,
								"contract": "hardhat-tutorial/contracts/CryptoDevsDAO.sol:CryptoDevsDAO",
								"label": "voters",
								"offset": 0,
								"slot": "5",
								"type": "t_mapping(t_uint256,t_bool)"
							}
						],
						"numberOfBytes": "192"
					},
					"t_uint256": {
						"encoding": "inplace",
						"label": "uint256",
						"numberOfBytes": "32"
					}
				}
			},
			"userdoc": {
				"kind": "user",
				"methods": {},
				"version": 1
			}
		}
	}
}